{
	"main.sol": {
		"SignedSealedBidAuction": {
			"abi": [
				{
					"inputs": [
						{
							"internalType": "uint256",
							"name": "commitDurationSeconds",
							"type": "uint256"
						},
						{
							"internalType": "uint256",
							"name": "revealDurationSeconds",
							"type": "uint256"
						}
					],
					"stateMutability": "nonpayable",
					"type": "constructor"
				},
				{
					"anonymous": false,
					"inputs": [
						{
							"indexed": true,
							"internalType": "address",
							"name": "winner",
							"type": "address"
						},
						{
							"indexed": false,
							"internalType": "uint256",
							"name": "winningBid",
							"type": "uint256"
						}
					],
					"name": "AuctionFinalized",
					"type": "event"
				},
				{
					"anonymous": false,
					"inputs": [
						{
							"indexed": true,
							"internalType": "address",
							"name": "bidder",
							"type": "address"
						},
						{
							"indexed": true,
							"internalType": "bytes32",
							"name": "commitment",
							"type": "bytes32"
						},
						{
							"indexed": false,
							"internalType": "uint256",
							"name": "nonce",
							"type": "uint256"
						},
						{
							"indexed": true,
							"internalType": "address",
							"name": "relayer",
							"type": "address"
						}
					],
					"name": "BidCommitted",
					"type": "event"
				},
				{
					"anonymous": false,
					"inputs": [
						{
							"indexed": true,
							"internalType": "address",
							"name": "bidder",
							"type": "address"
						},
						{
							"indexed": false,
							"internalType": "uint256",
							"name": "amount",
							"type": "uint256"
						},
						{
							"indexed": false,
							"internalType": "bool",
							"name": "isHighest",
							"type": "bool"
						}
					],
					"name": "BidRevealed",
					"type": "event"
				},
				{
					"anonymous": false,
					"inputs": [
						{
							"indexed": true,
							"internalType": "address",
							"name": "account",
							"type": "address"
						},
						{
							"indexed": false,
							"internalType": "uint256",
							"name": "amount",
							"type": "uint256"
						}
					],
					"name": "Withdrawal",
					"type": "event"
				},
				{
					"inputs": [],
					"name": "COMMIT_AUTHORIZATION_TYPEHASH",
					"outputs": [
						{
							"internalType": "bytes32",
							"name": "",
							"type": "bytes32"
						}
					],
					"stateMutability": "view",
					"type": "function"
				},
				{
					"inputs": [],
					"name": "auctionId",
					"outputs": [
						{
							"internalType": "bytes32",
							"name": "",
							"type": "bytes32"
						}
					],
					"stateMutability": "view",
					"type": "function"
				},
				{
					"inputs": [
						{
							"internalType": "address",
							"name": "bidder",
							"type": "address"
						},
						{
							"internalType": "bytes32",
							"name": "commitment",
							"type": "bytes32"
						},
						{
							"internalType": "uint256",
							"name": "nonce",
							"type": "uint256"
						},
						{
							"internalType": "uint256",
							"name": "deadline",
							"type": "uint256"
						},
						{
							"internalType": "bytes",
							"name": "signature",
							"type": "bytes"
						}
					],
					"name": "commitBid",
					"outputs": [],
					"stateMutability": "nonpayable",
					"type": "function"
				},
				{
					"inputs": [],
					"name": "commitEnd",
					"outputs": [
						{
							"internalType": "uint256",
							"name": "",
							"type": "uint256"
						}
					],
					"stateMutability": "view",
					"type": "function"
				},
				{
					"inputs": [
						{
							"internalType": "address",
							"name": "",
							"type": "address"
						}
					],
					"name": "commitments",
					"outputs": [
						{
							"internalType": "bytes32",
							"name": "value",
							"type": "bytes32"
						},
						{
							"internalType": "uint256",
							"name": "nonce",
							"type": "uint256"
						},
						{
							"internalType": "bool",
							"name": "revealed",
							"type": "bool"
						}
					],
					"stateMutability": "view",
					"type": "function"
				},
				{
					"inputs": [
						{
							"internalType": "address",
							"name": "",
							"type": "address"
						}
					],
					"name": "credits",
					"outputs": [
						{
							"internalType": "uint256",
							"name": "",
							"type": "uint256"
						}
					],
					"stateMutability": "view",
					"type": "function"
				},
				{
					"inputs": [],
					"name": "finalize",
					"outputs": [],
					"stateMutability": "nonpayable",
					"type": "function"
				},
				{
					"inputs": [],
					"name": "finalized",
					"outputs": [
						{
							"internalType": "bool",
							"name": "",
							"type": "bool"
						}
					],
					"stateMutability": "view",
					"type": "function"
				},
				{
					"inputs": [
						{
							"internalType": "address",
							"name": "bidder",
							"type": "address"
						},
						{
							"internalType": "bytes32",
							"name": "commitment",
							"type": "bytes32"
						},
						{
							"internalType": "uint256",
							"name": "nonce",
							"type": "uint256"
						},
						{
							"internalType": "uint256",
							"name": "deadline",
							"type": "uint256"
						}
					],
					"name": "getCommitAuthorizationDigest",
					"outputs": [
						{
							"internalType": "bytes32",
							"name": "",
							"type": "bytes32"
						}
					],
					"stateMutability": "view",
					"type": "function"
				},
				{
					"inputs": [
						{
							"internalType": "address",
							"name": "bidder",
							"type": "address"
						},
						{
							"internalType": "bytes32",
							"name": "commitment",
							"type": "bytes32"
						},
						{
							"internalType": "uint256",
							"name": "nonce",
							"type": "uint256"
						},
						{
							"internalType": "uint256",
							"name": "deadline",
							"type": "uint256"
						}
					],
					"name": "getCommitAuthorizationHash",
					"outputs": [
						{
							"internalType": "bytes32",
							"name": "",
							"type": "bytes32"
						}
					],
					"stateMutability": "view",
					"type": "function"
				},
				{
					"inputs": [],
					"name": "highestBid",
					"outputs": [
						{
							"internalType": "uint256",
							"name": "",
							"type": "uint256"
						}
					],
					"stateMutability": "view",
					"type": "function"
				},
				{
					"inputs": [],
					"name": "highestBidder",
					"outputs": [
						{
							"internalType": "address",
							"name": "",
							"type": "address"
						}
					],
					"stateMutability": "view",
					"type": "function"
				},
				{
					"inputs": [
						{
							"internalType": "address",
							"name": "bidder",
							"type": "address"
						},
						{
							"internalType": "uint256",
							"name": "bidAmount",
							"type": "uint256"
						},
						{
							"internalType": "bytes32",
							"name": "salt",
							"type": "bytes32"
						}
					],
					"name": "makeCommitment",
					"outputs": [
						{
							"internalType": "bytes32",
							"name": "",
							"type": "bytes32"
						}
					],
					"stateMutability": "view",
					"type": "function"
				},
				{
					"inputs": [
						{
							"internalType": "address",
							"name": "",
							"type": "address"
						}
					],
					"name": "nonces",
					"outputs": [
						{
							"internalType": "uint256",
							"name": "",
							"type": "uint256"
						}
					],
					"stateMutability": "view",
					"type": "function"
				},
				{
					"inputs": [],
					"name": "phase",
					"outputs": [
						{
							"internalType": "string",
							"name": "",
							"type": "string"
						}
					],
					"stateMutability": "view",
					"type": "function"
				},
				{
					"inputs": [
						{
							"internalType": "uint256",
							"name": "bidAmount",
							"type": "uint256"
						},
						{
							"internalType": "bytes32",
							"name": "salt",
							"type": "bytes32"
						}
					],
					"name": "revealBid",
					"outputs": [],
					"stateMutability": "payable",
					"type": "function"
				},
				{
					"inputs": [],
					"name": "revealEnd",
					"outputs": [
						{
							"internalType": "uint256",
							"name": "",
							"type": "uint256"
						}
					],
					"stateMutability": "view",
					"type": "function"
				},
				{
					"inputs": [],
					"name": "seller",
					"outputs": [
						{
							"internalType": "address",
							"name": "",
							"type": "address"
						}
					],
					"stateMutability": "view",
					"type": "function"
				},
				{
					"inputs": [],
					"name": "withdraw",
					"outputs": [],
					"stateMutability": "nonpayable",
					"type": "function"
				},
				{
					"stateMutability": "payable",
					"type": "receive"
				}
			],
			"devdoc": {
				"kind": "dev",
				"methods": {
					"commitBid(address,bytes32,uint256,uint256,bytes)": {
						"details": "The transaction sender may be the bidder or a relayer."
					},
					"finalize()": {
						"details": "Anyone can finalize, but only the seller receives the proceeds."
					},
					"getCommitAuthorizationHash(address,bytes32,uint256,uint256)": {
						"details": "Sign this result with personal_sign or ethers.signMessage()."
					},
					"makeCommitment(address,uint256,bytes32)": {
						"params": {
							"bidAmount": "Bid amount in wei.",
							"bidder": "Address that will reveal the bid.",
							"salt": "Secret random bytes32 value."
						}
					}
				},
				"title": "Signed sealed-bid auction",
				"version": 1
			},
			"evm": {
				"assembly": "    /* \"main.sol\":434:11467  contract SignedSealedBidAuction {... */\n  mstore(0x40, 0x0100)\n    /* \"main.sol\":2138:2939  constructor(... */\n  callvalue\n  dup1\n  iszero\n  tag_1\n  jumpi\n  revert(0x00, 0x00)\ntag_1:\n  pop\n  mload(0x40)\n  sub(codesize, bytecodeSize)\n  dup1\n  bytecodeSize\n  dup4\n  codecopy\n  dup2\n  dup2\n  add\n  0x40\n  mstore\n  dup2\n  add\n  swap1\n  tag_2\n  swap2\n  swap1\n  tag_3\n  jump\t// in\ntag_2:\n    /* \"main.sol\":2294:2295  0 */\n  0x00\n    /* \"main.sol\":2270:2291  commitDurationSeconds */\n  dup3\n    /* \"main.sol\":2270:2295  commitDurationSeconds > 0 */\n  gt\n    /* \"main.sol\":2248:2346  require(... */\n  tag_6\n  jumpi\n  mload(0x40)\n  0x08c379a000000000000000000000000000000000000000000000000000000000\n  dup2\n  mstore\n  0x04\n  add\n  tag_7\n  swap1\n  tag_8\n  jump\t// in\ntag_7:\n  mload(0x40)\n  dup1\n  swap2\n  sub\n  swap1\n  revert\ntag_6:\n    /* \"main.sol\":2405:2406  0 */\n  0x00\n    /* \"main.sol\":2381:2402  revealDurationSeconds */\n  dup2\n    /* \"main.sol\":2381:2406  revealDurationSeconds > 0 */\n  gt\n    /* \"main.sol\":2359:2457  require(... */\n  tag_9\n  jumpi\n  mload(0x40)\n  0x08c379a000000000000000000000000000000000000000000000000000000000\n  dup2\n  mstore\n  0x04\n  add\n  tag_10\n  swap1\n  tag_11\n  jump\t// in\ntag_10:\n  mload(0x40)\n  dup1\n  swap2\n  sub\n  swap1\n  revert\ntag_9:\n    /* \"main.sol\":2479:2489  msg.sender */\n  caller\n    /* \"main.sol\":2470:2489  seller = msg.sender */\n  0xffffffffffffffffffffffffffffffffffffffff\n  and\n  0x80\n  dup2\n  0xffffffffffffffffffffffffffffffffffffffff\n  and\n  dup2\n  mstore\n  pop\n  pop\n    /* \"main.sol\":2558:2579  commitDurationSeconds */\n  dup2\n    /* \"main.sol\":2527:2542  block.timestamp */\n  timestamp\n    /* \"main.sol\":2527:2579  block.timestamp +... */\n  tag_12\n  swap2\n  swap1\n  tag_13\n  jump\t// in\ntag_12:\n    /* \"main.sol\":2502:2579  commitEnd =... */\n  0xa0\n  dup2\n  dup2\n  mstore\n  pop\n  pop\n    /* \"main.sol\":2642:2663  revealDurationSeconds */\n  dup1\n    /* \"main.sol\":2617:2626  commitEnd */\n  mload(0xa0)\n    /* \"main.sol\":2617:2663  commitEnd +... */\n  tag_14\n  swap2\n  swap1\n  tag_13\n  jump\t// in\ntag_14:\n    /* \"main.sol\":2592:2663  revealEnd =... */\n  0xc0\n  dup2\n  dup2\n  mstore\n  pop\n  pop\n    /* \"main.sol\":2749:2753  this */\n  address\n    /* \"main.sol\":2773:2786  block.chainid */\n  chainid\n    /* \"main.sol\":2805:2815  msg.sender */\n  caller\n    /* \"main.sol\":2834:2849  block.timestamp */\n  timestamp\n    /* \"main.sol\":2868:2877  commitEnd */\n  mload(0xa0)\n    /* \"main.sol\":2896:2905  revealEnd */\n  mload(0xc0)\n    /* \"main.sol\":2712:2920  abi.encode(... */\n  add(0x20, mload(0x40))\n  tag_15\n  swap7\n  swap6\n  swap5\n  swap4\n  swap3\n  swap2\n  swap1\n  tag_16\n  jump\t// in\ntag_15:\n  mload(0x40)\n  0x20\n  dup2\n  dup4\n  sub\n  sub\n  dup2\n  mstore\n  swap1\n  0x40\n  mstore\n    /* \"main.sol\":2688:2931  keccak256(... */\n  dup1\n  mload\n  swap1\n  0x20\n  add\n  keccak256\n    /* \"main.sol\":2676:2931  auctionId = keccak256(... */\n  0xe0\n  dup2\n  dup2\n  mstore\n  pop\n  pop\n    /* \"main.sol\":2138:2939  constructor(... */\n  pop\n  pop\n    /* \"main.sol\":434:11467  contract SignedSealedBidAuction {... */\n  jump(tag_17)\n    /* \"#utility.yul\":88:205   */\ntag_19:\n    /* \"#utility.yul\":197:198   */\n  0x00\n    /* \"#utility.yul\":194:195   */\n  0x00\n    /* \"#utility.yul\":187:199   */\n  revert\n    /* \"#utility.yul\":334:411   */\ntag_21:\n    /* \"#utility.yul\":371:378   */\n  0x00\n    /* \"#utility.yul\":400:405   */\n  dup2\n    /* \"#utility.yul\":389:405   */\n  swap1\n  pop\n    /* \"#utility.yul\":334:411   */\n  swap2\n  swap1\n  pop\n  jump\t// out\n    /* \"#utility.yul\":417:539   */\ntag_22:\n    /* \"#utility.yul\":490:514   */\n  tag_40\n    /* \"#utility.yul\":508:513   */\n  dup2\n    /* \"#utility.yul\":490:514   */\n  tag_21\n  jump\t// in\ntag_40:\n    /* \"#utility.yul\":483:488   */\n  dup2\n    /* \"#utility.yul\":480:515   */\n  eq\n    /* \"#utility.yul\":470:533   */\n  tag_41\n  jumpi\n    /* \"#utility.yul\":529:530   */\n  0x00\n    /* \"#utility.yul\":526:527   */\n  0x00\n    /* \"#utility.yul\":519:531   */\n  revert\n    /* \"#utility.yul\":470:533   */\ntag_41:\n    /* \"#utility.yul\":417:539   */\n  pop\n  jump\t// out\n    /* \"#utility.yul\":545:688   */\ntag_23:\n    /* \"#utility.yul\":602:607   */\n  0x00\n    /* \"#utility.yul\":633:639   */\n  dup2\n    /* \"#utility.yul\":627:640   */\n  mload\n    /* \"#utility.yul\":618:640   */\n  swap1\n  pop\n    /* \"#utility.yul\":649:682   */\n  tag_43\n    /* \"#utility.yul\":676:681   */\n  dup2\n    /* \"#utility.yul\":649:682   */\n  tag_22\n  jump\t// in\ntag_43:\n    /* \"#utility.yul\":545:688   */\n  swap3\n  swap2\n  pop\n  pop\n  jump\t// out\n    /* \"#utility.yul\":694:1201   */\ntag_3:\n    /* \"#utility.yul\":773:779   */\n  0x00\n    /* \"#utility.yul\":781:787   */\n  0x00\n    /* \"#utility.yul\":830:832   */\n  0x40\n    /* \"#utility.yul\":818:827   */\n  dup4\n    /* \"#utility.yul\":809:816   */\n  dup6\n    /* \"#utility.yul\":805:828   */\n  sub\n    /* \"#utility.yul\":801:833   */\n  slt\n    /* \"#utility.yul\":798:917   */\n  iszero\n  tag_45\n  jumpi\n    /* \"#utility.yul\":836:915   */\n  tag_46\n  tag_19\n  jump\t// in\ntag_46:\n    /* \"#utility.yul\":798:917   */\ntag_45:\n    /* \"#utility.yul\":956:957   */\n  0x00\n    /* \"#utility.yul\":981:1045   */\n  tag_47\n    /* \"#utility.yul\":1037:1044   */\n  dup6\n    /* \"#utility.yul\":1028:1034   */\n  dup3\n    /* \"#utility.yul\":1017:1026   */\n  dup7\n    /* \"#utility.yul\":1013:1035   */\n  add\n    /* \"#utility.yul\":981:1045   */\n  tag_23\n  jump\t// in\ntag_47:\n    /* \"#utility.yul\":971:1045   */\n  swap3\n  pop\n    /* \"#utility.yul\":927:1055   */\n  pop\n    /* \"#utility.yul\":1094:1096   */\n  0x20\n    /* \"#utility.yul\":1120:1184   */\n  tag_48\n    /* \"#utility.yul\":1176:1183   */\n  dup6\n    /* \"#utility.yul\":1167:1173   */\n  dup3\n    /* \"#utility.yul\":1156:1165   */\n  dup7\n    /* \"#utility.yul\":1152:1174   */\n  add\n    /* \"#utility.yul\":1120:1184   */\n  tag_23\n  jump\t// in\ntag_48:\n    /* \"#utility.yul\":1110:1184   */\n  swap2\n  pop\n    /* \"#utility.yul\":1065:1194   */\n  pop\n    /* \"#utility.yul\":694:1201   */\n  swap3\n  pop\n  swap3\n  swap1\n  pop\n  jump\t// out\n    /* \"#utility.yul\":1207:1376   */\ntag_24:\n    /* \"#utility.yul\":1291:1302   */\n  0x00\n    /* \"#utility.yul\":1325:1331   */\n  dup3\n    /* \"#utility.yul\":1320:1323   */\n  dup3\n    /* \"#utility.yul\":1313:1332   */\n  mstore\n    /* \"#utility.yul\":1365:1369   */\n  0x20\n    /* \"#utility.yul\":1360:1363   */\n  dup3\n    /* \"#utility.yul\":1356:1370   */\n  add\n    /* \"#utility.yul\":1341:1370   */\n  swap1\n  pop\n    /* \"#utility.yul\":1207:1376   */\n  swap3\n  swap2\n  pop\n  pop\n  jump\t// out\n    /* \"#utility.yul\":1382:1555   */\ntag_25:\n    /* \"#utility.yul\":1522:1547   */\n  0x436f6d6d6974206475726174696f6e206973207a65726f000000000000000000\n    /* \"#utility.yul\":1518:1519   */\n  0x00\n    /* \"#utility.yul\":1510:1516   */\n  dup3\n    /* \"#utility.yul\":1506:1520   */\n  add\n    /* \"#utility.yul\":1499:1548   */\n  mstore\n    /* \"#utility.yul\":1382:1555   */\n  pop\n  jump\t// out\n    /* \"#utility.yul\":1561:1927   */\ntag_26:\n    /* \"#utility.yul\":1703:1706   */\n  0x00\n    /* \"#utility.yul\":1724:1791   */\n  tag_52\n    /* \"#utility.yul\":1788:1790   */\n  0x17\n    /* \"#utility.yul\":1783:1786   */\n  dup4\n    /* \"#utility.yul\":1724:1791   */\n  tag_24\n  jump\t// in\ntag_52:\n    /* \"#utility.yul\":1717:1791   */\n  swap2\n  pop\n    /* \"#utility.yul\":1800:1893   */\n  tag_53\n    /* \"#utility.yul\":1889:1892   */\n  dup3\n    /* \"#utility.yul\":1800:1893   */\n  tag_25\n  jump\t// in\ntag_53:\n    /* \"#utility.yul\":1918:1920   */\n  0x20\n    /* \"#utility.yul\":1913:1916   */\n  dup3\n    /* \"#utility.yul\":1909:1921   */\n  add\n    /* \"#utility.yul\":1902:1921   */\n  swap1\n  pop\n    /* \"#utility.yul\":1561:1927   */\n  swap2\n  swap1\n  pop\n  jump\t// out\n    /* \"#utility.yul\":1933:2352   */\ntag_8:\n    /* \"#utility.yul\":2099:2103   */\n  0x00\n    /* \"#utility.yul\":2137:2139   */\n  0x20\n    /* \"#utility.yul\":2126:2135   */\n  dup3\n    /* \"#utility.yul\":2122:2140   */\n  add\n    /* \"#utility.yul\":2114:2140   */\n  swap1\n  pop\n    /* \"#utility.yul\":2186:2195   */\n  dup2\n    /* \"#utility.yul\":2180:2184   */\n  dup2\n    /* \"#utility.yul\":2176:2196   */\n  sub\n    /* \"#utility.yul\":2172:2173   */\n  0x00\n    /* \"#utility.yul\":2161:2170   */\n  dup4\n    /* \"#utility.yul\":2157:2174   */\n  add\n    /* \"#utility.yul\":2150:2197   */\n  mstore\n    /* \"#utility.yul\":2214:2345   */\n  tag_55\n    /* \"#utility.yul\":2340:2344   */\n  dup2\n    /* \"#utility.yul\":2214:2345   */\n  tag_26\n  jump\t// in\ntag_55:\n    /* \"#utility.yul\":2206:2345   */\n  swap1\n  pop\n    /* \"#utility.yul\":1933:2352   */\n  swap2\n  swap1\n  pop\n  jump\t// out\n    /* \"#utility.yul\":2358:2531   */\ntag_27:\n    /* \"#utility.yul\":2498:2523   */\n  0x52657665616c206475726174696f6e206973207a65726f000000000000000000\n    /* \"#utility.yul\":2494:2495   */\n  0x00\n    /* \"#utility.yul\":2486:2492   */\n  dup3\n    /* \"#utility.yul\":2482:2496   */\n  add\n    /* \"#utility.yul\":2475:2524   */\n  mstore\n    /* \"#utility.yul\":2358:2531   */\n  pop\n  jump\t// out\n    /* \"#utility.yul\":2537:2903   */\ntag_28:\n    /* \"#utility.yul\":2679:2682   */\n  0x00\n    /* \"#utility.yul\":2700:2767   */\n  tag_58\n    /* \"#utility.yul\":2764:2766   */\n  0x17\n    /* \"#utility.yul\":2759:2762   */\n  dup4\n    /* \"#utility.yul\":2700:2767   */\n  tag_24\n  jump\t// in\ntag_58:\n    /* \"#utility.yul\":2693:2767   */\n  swap2\n  pop\n    /* \"#utility.yul\":2776:2869   */\n  tag_59\n    /* \"#utility.yul\":2865:2868   */\n  dup3\n    /* \"#utility.yul\":2776:2869   */\n  tag_27\n  jump\t// in\ntag_59:\n    /* \"#utility.yul\":2894:2896   */\n  0x20\n    /* \"#utility.yul\":2889:2892   */\n  dup3\n    /* \"#utility.yul\":2885:2897   */\n  add\n    /* \"#utility.yul\":2878:2897   */\n  swap1\n  pop\n    /* \"#utility.yul\":2537:2903   */\n  swap2\n  swap1\n  pop\n  jump\t// out\n    /* \"#utility.yul\":2909:3328   */\ntag_11:\n    /* \"#utility.yul\":3075:3079   */\n  0x00\n    /* \"#utility.yul\":3113:3115   */\n  0x20\n    /* \"#utility.yul\":3102:3111   */\n  dup3\n    /* \"#utility.yul\":3098:3116   */\n  add\n    /* \"#utility.yul\":3090:3116   */\n  swap1\n  pop\n    /* \"#utility.yul\":3162:3171   */\n  dup2\n    /* \"#utility.yul\":3156:3160   */\n  dup2\n    /* \"#utility.yul\":3152:3172   */\n  sub\n    /* \"#utility.yul\":3148:3149   */\n  0x00\n    /* \"#utility.yul\":3137:3146   */\n  dup4\n    /* \"#utility.yul\":3133:3150   */\n  add\n    /* \"#utility.yul\":3126:3173   */\n  mstore\n    /* \"#utility.yul\":3190:3321   */\n  tag_61\n    /* \"#utility.yul\":3316:3320   */\n  dup2\n    /* \"#utility.yul\":3190:3321   */\n  tag_28\n  jump\t// in\ntag_61:\n    /* \"#utility.yul\":3182:3321   */\n  swap1\n  pop\n    /* \"#utility.yul\":2909:3328   */\n  swap2\n  swap1\n  pop\n  jump\t// out\n    /* \"#utility.yul\":3334:3514   */\ntag_29:\n    /* \"#utility.yul\":3382:3459   */\n  0x4e487b7100000000000000000000000000000000000000000000000000000000\n    /* \"#utility.yul\":3379:3380   */\n  0x00\n    /* \"#utility.yul\":3372:3460   */\n  mstore\n    /* \"#utility.yul\":3479:3483   */\n  0x11\n    /* \"#utility.yul\":3476:3477   */\n  0x04\n    /* \"#utility.yul\":3469:3484   */\n  mstore\n    /* \"#utility.yul\":3503:3507   */\n  0x24\n    /* \"#utility.yul\":3500:3501   */\n  0x00\n    /* \"#utility.yul\":3493:3508   */\n  revert\n    /* \"#utility.yul\":3520:3711   */\ntag_13:\n    /* \"#utility.yul\":3560:3563   */\n  0x00\n    /* \"#utility.yul\":3579:3599   */\n  tag_64\n    /* \"#utility.yul\":3597:3598   */\n  dup3\n    /* \"#utility.yul\":3579:3599   */\n  tag_21\n  jump\t// in\ntag_64:\n    /* \"#utility.yul\":3574:3599   */\n  swap2\n  pop\n    /* \"#utility.yul\":3613:3633   */\n  tag_65\n    /* \"#utility.yul\":3631:3632   */\n  dup4\n    /* \"#utility.yul\":3613:3633   */\n  tag_21\n  jump\t// in\ntag_65:\n    /* \"#utility.yul\":3608:3633   */\n  swap3\n  pop\n    /* \"#utility.yul\":3656:3657   */\n  dup3\n    /* \"#utility.yul\":3653:3654   */\n  dup3\n    /* \"#utility.yul\":3649:3658   */\n  add\n    /* \"#utility.yul\":3642:3658   */\n  swap1\n  pop\n    /* \"#utility.yul\":3677:3680   */\n  dup1\n    /* \"#utility.yul\":3674:3675   */\n  dup3\n    /* \"#utility.yul\":3671:3681   */\n  gt\n    /* \"#utility.yul\":3668:3704   */\n  iszero\n  tag_66\n  jumpi\n    /* \"#utility.yul\":3684:3702   */\n  tag_67\n  tag_29\n  jump\t// in\ntag_67:\n    /* \"#utility.yul\":3668:3704   */\ntag_66:\n    /* \"#utility.yul\":3520:3711   */\n  swap3\n  swap2\n  pop\n  pop\n  jump\t// out\n    /* \"#utility.yul\":3717:3843   */\ntag_30:\n    /* \"#utility.yul\":3754:3761   */\n  0x00\n    /* \"#utility.yul\":3794:3836   */\n  0xffffffffffffffffffffffffffffffffffffffff\n    /* \"#utility.yul\":3787:3792   */\n  dup3\n    /* \"#utility.yul\":3783:3837   */\n  and\n    /* \"#utility.yul\":3772:3837   */\n  swap1\n  pop\n    /* \"#utility.yul\":3717:3843   */\n  swap2\n  swap1\n  pop\n  jump\t// out\n    /* \"#utility.yul\":3849:3945   */\ntag_31:\n    /* \"#utility.yul\":3886:3893   */\n  0x00\n    /* \"#utility.yul\":3915:3939   */\n  tag_70\n    /* \"#utility.yul\":3933:3938   */\n  dup3\n    /* \"#utility.yul\":3915:3939   */\n  tag_30\n  jump\t// in\ntag_70:\n    /* \"#utility.yul\":3904:3939   */\n  swap1\n  pop\n    /* \"#utility.yul\":3849:3945   */\n  swap2\n  swap1\n  pop\n  jump\t// out\n    /* \"#utility.yul\":3951:4069   */\ntag_32:\n    /* \"#utility.yul\":4038:4062   */\n  tag_72\n    /* \"#utility.yul\":4056:4061   */\n  dup2\n    /* \"#utility.yul\":4038:4062   */\n  tag_31\n  jump\t// in\ntag_72:\n    /* \"#utility.yul\":4033:4036   */\n  dup3\n    /* \"#utility.yul\":4026:4063   */\n  mstore\n    /* \"#utility.yul\":3951:4069   */\n  pop\n  pop\n  jump\t// out\n    /* \"#utility.yul\":4075:4193   */\ntag_33:\n    /* \"#utility.yul\":4162:4186   */\n  tag_74\n    /* \"#utility.yul\":4180:4185   */\n  dup2\n    /* \"#utility.yul\":4162:4186   */\n  tag_21\n  jump\t// in\ntag_74:\n    /* \"#utility.yul\":4157:4160   */\n  dup3\n    /* \"#utility.yul\":4150:4187   */\n  mstore\n    /* \"#utility.yul\":4075:4193   */\n  pop\n  pop\n  jump\t// out\n    /* \"#utility.yul\":4199:4974   */\ntag_16:\n    /* \"#utility.yul\":4432:4436   */\n  0x00\n    /* \"#utility.yul\":4470:4473   */\n  0xc0\n    /* \"#utility.yul\":4459:4468   */\n  dup3\n    /* \"#utility.yul\":4455:4474   */\n  add\n    /* \"#utility.yul\":4447:4474   */\n  swap1\n  pop\n    /* \"#utility.yul\":4484:4555   */\n  tag_76\n    /* \"#utility.yul\":4552:4553   */\n  0x00\n    /* \"#utility.yul\":4541:4550   */\n  dup4\n    /* \"#utility.yul\":4537:4554   */\n  add\n    /* \"#utility.yul\":4528:4534   */\n  dup10\n    /* \"#utility.yul\":4484:4555   */\n  tag_32\n  jump\t// in\ntag_76:\n    /* \"#utility.yul\":4565:4637   */\n  tag_77\n    /* \"#utility.yul\":4633:4635   */\n  0x20\n    /* \"#utility.yul\":4622:4631   */\n  dup4\n    /* \"#utility.yul\":4618:4636   */\n  add\n    /* \"#utility.yul\":4609:4615   */\n  dup9\n    /* \"#utility.yul\":4565:4637   */\n  tag_33\n  jump\t// in\ntag_77:\n    /* \"#utility.yul\":4647:4719   */\n  tag_78\n    /* \"#utility.yul\":4715:4717   */\n  0x40\n    /* \"#utility.yul\":4704:4713   */\n  dup4\n    /* \"#utility.yul\":4700:4718   */\n  add\n    /* \"#utility.yul\":4691:4697   */\n  dup8\n    /* \"#utility.yul\":4647:4719   */\n  tag_32\n  jump\t// in\ntag_78:\n    /* \"#utility.yul\":4729:4801   */\n  tag_79\n    /* \"#utility.yul\":4797:4799   */\n  0x60\n    /* \"#utility.yul\":4786:4795   */\n  dup4\n    /* \"#utility.yul\":4782:4800   */\n  add\n    /* \"#utility.yul\":4773:4779   */\n  dup7\n    /* \"#utility.yul\":4729:4801   */\n  tag_33\n  jump\t// in\ntag_79:\n    /* \"#utility.yul\":4811:4884   */\n  tag_80\n    /* \"#utility.yul\":4879:4882   */\n  0x80\n    /* \"#utility.yul\":4868:4877   */\n  dup4\n    /* \"#utility.yul\":4864:4883   */\n  add\n    /* \"#utility.yul\":4855:4861   */\n  dup6\n    /* \"#utility.yul\":4811:4884   */\n  tag_33\n  jump\t// in\ntag_80:\n    /* \"#utility.yul\":4894:4967   */\n  tag_81\n    /* \"#utility.yul\":4962:4965   */\n  0xa0\n    /* \"#utility.yul\":4951:4960   */\n  dup4\n    /* \"#utility.yul\":4947:4966   */\n  add\n    /* \"#utility.yul\":4938:4944   */\n  dup5\n    /* \"#utility.yul\":4894:4967   */\n  tag_33\n  jump\t// in\ntag_81:\n    /* \"#utility.yul\":4199:4974   */\n  swap8\n  swap7\n  pop\n  pop\n  pop\n  pop\n  pop\n  pop\n  pop\n  jump\t// out\n    /* \"main.sol\":434:11467  contract SignedSealedBidAuction {... */\ntag_17:\n  mload(0x80)\n  mload(0xa0)\n  mload(0xc0)\n  mload(0xe0)\n  codecopy(0x00, dataOffset(sub_0), dataSize(sub_0))\n  0x00\n  assignImmutable(\"0x1a192fabce13988b84994d4296e6cdc418d55e2f1d7f942188d4040b94fc57ac\")\n  0x00\n  assignImmutable(\"0xe4b1702d9298fee62dfeccc57d322a463ad55ca201256d01f62b45b2e1c21c10\")\n  0x00\n  assignImmutable(\"0xe455bf8ea6e7463a1046a0b52804526e119b4bf5136279614e0b1e8e296a4e2d\")\n  0x00\n  assignImmutable(\"0x13600b294191fc92924bb3ce4b969c1e7e2bab8f4c93c3fc6d0a51733df3c060\")\n  return(0x00, dataSize(sub_0))\nstop\n\nsub_0: assembly {\n        /* \"main.sol\":434:11467  contract SignedSealedBidAuction {... */\n      mstore(0x40, 0x80)\n      jumpi(tag_1, lt(calldatasize, 0x04))\n      shr(0xe0, calldataload(0x00))\n      dup1\n      0x7ecebe00\n      gt\n      tag_22\n      jumpi\n      dup1\n      0xd57bde79\n      gt\n      tag_23\n      jumpi\n      dup1\n      0xd57bde79\n      eq\n      tag_17\n      jumpi\n      dup1\n      0xe8ba4047\n      eq\n      tag_18\n      jumpi\n      dup1\n      0xe8fcf723\n      eq\n      tag_19\n      jumpi\n      dup1\n      0xfb667b48\n      eq\n      tag_20\n      jumpi\n      dup1\n      0xfe5ff468\n      eq\n      tag_21\n      jumpi\n      jump(tag_2)\n    tag_23:\n      dup1\n      0x7ecebe00\n      eq\n      tag_12\n      jumpi\n      dup1\n      0x91f90157\n      eq\n      tag_13\n      jumpi\n      dup1\n      0xa6e66477\n      eq\n      tag_14\n      jumpi\n      dup1\n      0xb1c9fe6e\n      eq\n      tag_15\n      jumpi\n      dup1\n      0xb3f05b97\n      eq\n      tag_16\n      jumpi\n      jump(tag_2)\n    tag_22:\n      dup1\n      0x2ec4620f\n      gt\n      tag_24\n      jumpi\n      dup1\n      0x2ec4620f\n      eq\n      tag_7\n      jumpi\n      dup1\n      0x3ccfd60b\n      eq\n      tag_8\n      jumpi\n      dup1\n      0x3eee4e27\n      eq\n      tag_9\n      jumpi\n      dup1\n      0x4bb278f3\n      eq\n      tag_10\n      jumpi\n      dup1\n      0x62c5424a\n      eq\n      tag_11\n      jumpi\n      jump(tag_2)\n    tag_24:\n      dup1\n      0x023f5bdf\n      eq\n      tag_3\n      jumpi\n      dup1\n      0x08551a53\n      eq\n      tag_4\n      jumpi\n      dup1\n      0x10782f8f\n      eq\n      tag_5\n      jumpi\n      dup1\n      0x11928dbe\n      eq\n      tag_6\n      jumpi\n      jump(tag_2)\n    tag_1:\n      jumpi(tag_2, calldatasize)\n        /* \"main.sol\":11433:11456  revert(\"Use revealBid\") */\n      mload(0x40)\n      0x08c379a000000000000000000000000000000000000000000000000000000000\n      dup2\n      mstore\n      0x04\n      add\n      tag_27\n      swap1\n      tag_28\n      jump\t// in\n    tag_27:\n      mload(0x40)\n      dup1\n      swap2\n      sub\n      swap1\n      revert\n        /* \"main.sol\":434:11467  contract SignedSealedBidAuction {... */\n    tag_2:\n      revert(0x00, 0x00)\n        /* \"main.sol\":3158:3549  function makeCommitment(... */\n    tag_3:\n      callvalue\n      dup1\n      iszero\n      tag_29\n      jumpi\n      revert(0x00, 0x00)\n    tag_29:\n      pop\n      tag_30\n      0x04\n      dup1\n      calldatasize\n      sub\n      dup2\n      add\n      swap1\n      tag_31\n      swap2\n      swap1\n      tag_32\n      jump\t// in\n    tag_31:\n      tag_33\n      jump\t// in\n    tag_30:\n      mload(0x40)\n      tag_34\n      swap2\n      swap1\n      tag_35\n      jump\t// in\n    tag_34:\n      mload(0x40)\n      dup1\n      swap2\n      sub\n      swap1\n      return\n        /* \"main.sol\":473:504  address public immutable seller */\n    tag_4:\n      callvalue\n      dup1\n      iszero\n      tag_36\n      jumpi\n      revert(0x00, 0x00)\n    tag_36:\n      pop\n      tag_37\n      tag_38\n      jump\t// in\n    tag_37:\n      mload(0x40)\n      tag_39\n      swap2\n      swap1\n      tag_40\n      jump\t// in\n    tag_39:\n      mload(0x40)\n      dup1\n      swap2\n      sub\n      swap1\n      return\n        /* \"main.sol\":597:631  bytes32 public immutable auctionId */\n    tag_5:\n      callvalue\n      dup1\n      iszero\n      tag_41\n      jumpi\n      revert(0x00, 0x00)\n    tag_41:\n      pop\n      tag_42\n      tag_43\n      jump\t// in\n    tag_42:\n      mload(0x40)\n      tag_44\n      swap2\n      swap1\n      tag_35\n      jump\t// in\n    tag_44:\n      mload(0x40)\n      dup1\n      swap2\n      sub\n      swap1\n      return\n        /* \"main.sol\":4960:6558  function commitBid(... */\n    tag_6:\n      callvalue\n      dup1\n      iszero\n      tag_45\n      jumpi\n      revert(0x00, 0x00)\n    tag_45:\n      pop\n      tag_46\n      0x04\n      dup1\n      calldatasize\n      sub\n      dup2\n      add\n      swap1\n      tag_47\n      swap2\n      swap1\n      tag_48\n      jump\t// in\n    tag_47:\n      tag_49\n      jump\t// in\n    tag_46:\n      stop\n        /* \"main.sol\":3695:4204  function getCommitAuthorizationHash(... */\n    tag_7:\n      callvalue\n      dup1\n      iszero\n      tag_50\n      jumpi\n      revert(0x00, 0x00)\n    tag_50:\n      pop\n      tag_51\n      0x04\n      dup1\n      calldatasize\n      sub\n      dup2\n      add\n      swap1\n      tag_52\n      swap2\n      swap1\n      tag_53\n      jump\t// in\n    tag_52:\n      tag_54\n      jump\t// in\n    tag_51:\n      mload(0x40)\n      tag_55\n      swap2\n      swap1\n      tag_35\n      jump\t// in\n    tag_55:\n      mload(0x40)\n      dup1\n      swap2\n      sub\n      swap1\n      return\n        /* \"main.sol\":8910:9646  function withdraw() external {... */\n    tag_8:\n      callvalue\n      dup1\n      iszero\n      tag_56\n      jumpi\n      revert(0x00, 0x00)\n    tag_56:\n      pop\n      tag_57\n      tag_58\n      jump\t// in\n    tag_57:\n      stop\n        /* \"main.sol\":513:547  uint256 public immutable commitEnd */\n    tag_9:\n      callvalue\n      dup1\n      iszero\n      tag_59\n      jumpi\n      revert(0x00, 0x00)\n    tag_59:\n      pop\n      tag_60\n      tag_61\n      jump\t// in\n    tag_60:\n      mload(0x40)\n      tag_62\n      swap2\n      swap1\n      tag_63\n      jump\t// in\n    tag_62:\n      mload(0x40)\n      dup1\n      swap2\n      sub\n      swap1\n      return\n        /* \"main.sol\":8394:8847  function finalize() external {... */\n    tag_10:\n      callvalue\n      dup1\n      iszero\n      tag_64\n      jumpi\n      revert(0x00, 0x00)\n    tag_64:\n      pop\n      tag_65\n      tag_66\n      jump\t// in\n    tag_65:\n      stop\n        /* \"main.sol\":6635:8245  function revealBid(... */\n    tag_11:\n      tag_67\n      0x04\n      dup1\n      calldatasize\n      sub\n      dup2\n      add\n      swap1\n      tag_68\n      swap2\n      swap1\n      tag_69\n      jump\t// in\n    tag_68:\n      tag_70\n      jump\t// in\n    tag_67:\n      stop\n        /* \"main.sol\":1032:1073  mapping(address => uint256) public nonces */\n    tag_12:\n      callvalue\n      dup1\n      iszero\n      tag_71\n      jumpi\n      revert(0x00, 0x00)\n    tag_71:\n      pop\n      tag_72\n      0x04\n      dup1\n      calldatasize\n      sub\n      dup2\n      add\n      swap1\n      tag_73\n      swap2\n      swap1\n      tag_74\n      jump\t// in\n    tag_73:\n      tag_75\n      jump\t// in\n    tag_72:\n      mload(0x40)\n      tag_76\n      swap2\n      swap1\n      tag_63\n      jump\t// in\n    tag_76:\n      mload(0x40)\n      dup1\n      swap2\n      sub\n      swap1\n      return\n        /* \"main.sol\":640:668  address public highestBidder */\n    tag_13:\n      callvalue\n      dup1\n      iszero\n      tag_77\n      jumpi\n      revert(0x00, 0x00)\n    tag_77:\n      pop\n      tag_78\n      tag_79\n      jump\t// in\n    tag_78:\n      mload(0x40)\n      tag_80\n      swap2\n      swap1\n      tag_40\n      jump\t// in\n    tag_80:\n      mload(0x40)\n      dup1\n      swap2\n      sub\n      swap1\n      return\n        /* \"main.sol\":554:588  uint256 public immutable revealEnd */\n    tag_14:\n      callvalue\n      dup1\n      iszero\n      tag_81\n      jumpi\n      revert(0x00, 0x00)\n    tag_81:\n      pop\n      tag_82\n      tag_83\n      jump\t// in\n    tag_82:\n      mload(0x40)\n      tag_84\n      swap2\n      swap1\n      tag_63\n      jump\t// in\n    tag_84:\n      mload(0x40)\n      dup1\n      swap2\n      sub\n      swap1\n      return\n        /* \"main.sol\":9706:10085  function phase()... */\n    tag_15:\n      callvalue\n      dup1\n      iszero\n      tag_85\n      jumpi\n      revert(0x00, 0x00)\n    tag_85:\n      pop\n      tag_86\n      tag_87\n      jump\t// in\n    tag_86:\n      mload(0x40)\n      tag_88\n      swap2\n      swap1\n      tag_89\n      jump\t// in\n    tag_88:\n      mload(0x40)\n      dup1\n      swap2\n      sub\n      swap1\n      return\n        /* \"main.sol\":709:730  bool public finalized */\n    tag_16:\n      callvalue\n      dup1\n      iszero\n      tag_90\n      jumpi\n      revert(0x00, 0x00)\n    tag_90:\n      pop\n      tag_91\n      tag_92\n      jump\t// in\n    tag_91:\n      mload(0x40)\n      tag_93\n      swap2\n      swap1\n      tag_94\n      jump\t// in\n    tag_93:\n      mload(0x40)\n      dup1\n      swap2\n      sub\n      swap1\n      return\n        /* \"main.sol\":675:700  uint256 public highestBid */\n    tag_17:\n      callvalue\n      dup1\n      iszero\n      tag_95\n      jumpi\n      revert(0x00, 0x00)\n    tag_95:\n      pop\n      tag_96\n      tag_97\n      jump\t// in\n    tag_96:\n      mload(0x40)\n      tag_98\n      swap2\n      swap1\n      tag_63\n      jump\t// in\n    tag_98:\n      mload(0x40)\n      dup1\n      swap2\n      sub\n      swap1\n      return\n        /* \"main.sol\":1169:1416  bytes32 public constant COMMIT_AUTHORIZATION_TYPEHASH =... */\n    tag_18:\n      callvalue\n      dup1\n      iszero\n      tag_99\n      jumpi\n      revert(0x00, 0x00)\n    tag_99:\n      pop\n      tag_100\n      tag_101\n      jump\t// in\n    tag_100:\n      mload(0x40)\n      tag_102\n      swap2\n      swap1\n      tag_35\n      jump\t// in\n    tag_102:\n      mload(0x40)\n      dup1\n      swap2\n      sub\n      swap1\n      return\n        /* \"main.sol\":923:978  mapping(address => StoredCommitment) public commitments */\n    tag_19:\n      callvalue\n      dup1\n      iszero\n      tag_103\n      jumpi\n      revert(0x00, 0x00)\n    tag_103:\n      pop\n      tag_104\n      0x04\n      dup1\n      calldatasize\n      sub\n      dup2\n      add\n      swap1\n      tag_105\n      swap2\n      swap1\n      tag_74\n      jump\t// in\n    tag_105:\n      tag_106\n      jump\t// in\n    tag_104:\n      mload(0x40)\n      tag_107\n      swap4\n      swap3\n      swap2\n      swap1\n      tag_108\n      jump\t// in\n    tag_107:\n      mload(0x40)\n      dup1\n      swap2\n      sub\n      swap1\n      return\n        /* \"main.sol\":4276:4837  function getCommitAuthorizationDigest(... */\n    tag_20:\n      callvalue\n      dup1\n      iszero\n      tag_109\n      jumpi\n      revert(0x00, 0x00)\n    tag_109:\n      pop\n      tag_110\n      0x04\n      dup1\n      calldatasize\n      sub\n      dup2\n      add\n      swap1\n      tag_111\n      swap2\n      swap1\n      tag_53\n      jump\t// in\n    tag_111:\n      tag_112\n      jump\t// in\n    tag_110:\n      mload(0x40)\n      tag_113\n      swap2\n      swap1\n      tag_35\n      jump\t// in\n    tag_113:\n      mload(0x40)\n      dup1\n      swap2\n      sub\n      swap1\n      return\n        /* \"main.sol\":1118:1160  mapping(address => uint256) public credits */\n    tag_21:\n      callvalue\n      dup1\n      iszero\n      tag_114\n      jumpi\n      revert(0x00, 0x00)\n    tag_114:\n      pop\n      tag_115\n      0x04\n      dup1\n      calldatasize\n      sub\n      dup2\n      add\n      swap1\n      tag_116\n      swap2\n      swap1\n      tag_74\n      jump\t// in\n    tag_116:\n      tag_117\n      jump\t// in\n    tag_115:\n      mload(0x40)\n      tag_118\n      swap2\n      swap1\n      tag_63\n      jump\t// in\n    tag_118:\n      mload(0x40)\n      dup1\n      swap2\n      sub\n      swap1\n      return\n        /* \"main.sol\":3158:3549  function makeCommitment(... */\n    tag_33:\n        /* \"main.sol\":3286:3293  bytes32 */\n      0x00\n        /* \"main.sol\":3366:3375  auctionId */\n      immutable(\"0x1a192fabce13988b84994d4296e6cdc418d55e2f1d7f942188d4040b94fc57ac\")\n        /* \"main.sol\":3402:3406  this */\n      address\n        /* \"main.sol\":3426:3439  block.chainid */\n      chainid\n        /* \"main.sol\":3458:3464  bidder */\n      dup7\n        /* \"main.sol\":3483:3492  bidAmount */\n      dup7\n        /* \"main.sol\":3511:3515  salt */\n      dup7\n        /* \"main.sol\":3337:3530  abi.encode(... */\n      add(0x20, mload(0x40))\n      tag_120\n      swap7\n      swap6\n      swap5\n      swap4\n      swap3\n      swap2\n      swap1\n      tag_121\n      jump\t// in\n    tag_120:\n      mload(0x40)\n      0x20\n      dup2\n      dup4\n      sub\n      sub\n      dup2\n      mstore\n      swap1\n      0x40\n      mstore\n        /* \"main.sol\":3313:3541  keccak256(... */\n      dup1\n      mload\n      swap1\n      0x20\n      add\n      keccak256\n        /* \"main.sol\":3306:3541  return keccak256(... */\n      swap1\n      pop\n        /* \"main.sol\":3158:3549  function makeCommitment(... */\n      swap4\n      swap3\n      pop\n      pop\n      pop\n      jump\t// out\n        /* \"main.sol\":473:504  address public immutable seller */\n    tag_38:\n      immutable(\"0x13600b294191fc92924bb3ce4b969c1e7e2bab8f4c93c3fc6d0a51733df3c060\")\n      dup2\n      jump\t// out\n        /* \"main.sol\":597:631  bytes32 public immutable auctionId */\n    tag_43:\n      immutable(\"0x1a192fabce13988b84994d4296e6cdc418d55e2f1d7f942188d4040b94fc57ac\")\n      dup2\n      jump\t// out\n        /* \"main.sol\":4960:6558  function commitBid(... */\n    tag_49:\n        /* \"main.sol\":5186:5195  commitEnd */\n      immutable(\"0xe455bf8ea6e7463a1046a0b52804526e119b4bf5136279614e0b1e8e296a4e2d\")\n        /* \"main.sol\":5168:5183  block.timestamp */\n      timestamp\n        /* \"main.sol\":5168:5195  block.timestamp < commitEnd */\n      lt\n        /* \"main.sol\":5146:5241  require(... */\n      tag_123\n      jumpi\n      mload(0x40)\n      0x08c379a000000000000000000000000000000000000000000000000000000000\n      dup2\n      mstore\n      0x04\n      add\n      tag_124\n      swap1\n      tag_125\n      jump\t// in\n    tag_124:\n      mload(0x40)\n      dup1\n      swap2\n      sub\n      swap1\n      revert\n    tag_123:\n        /* \"main.sol\":5295:5303  deadline */\n      dup3\n        /* \"main.sol\":5276:5291  block.timestamp */\n      timestamp\n        /* \"main.sol\":5276:5303  block.timestamp <= deadline */\n      gt\n      iszero\n        /* \"main.sol\":5254:5348  require(... */\n      tag_126\n      jumpi\n      mload(0x40)\n      0x08c379a000000000000000000000000000000000000000000000000000000000\n      dup2\n      mstore\n      0x04\n      add\n      tag_127\n      swap1\n      tag_128\n      jump\t// in\n    tag_127:\n      mload(0x40)\n      dup1\n      swap2\n      sub\n      swap1\n      revert\n    tag_126:\n        /* \"main.sol\":5401:5402  0 */\n      0x00\n        /* \"main.sol\":5383:5403  bidder != address(0) */\n      0xffffffffffffffffffffffffffffffffffffffff\n      and\n        /* \"main.sol\":5383:5389  bidder */\n      dup7\n        /* \"main.sol\":5383:5403  bidder != address(0) */\n      0xffffffffffffffffffffffffffffffffffffffff\n      and\n      sub\n        /* \"main.sol\":5361:5445  require(... */\n      tag_129\n      jumpi\n      mload(0x40)\n      0x08c379a000000000000000000000000000000000000000000000000000000000\n      dup2\n      mstore\n      0x04\n      add\n      tag_130\n      swap1\n      tag_131\n      jump\t// in\n    tag_130:\n      mload(0x40)\n      dup1\n      swap2\n      sub\n      swap1\n      revert\n    tag_129:\n        /* \"main.sol\":5502:5503  0 */\n      0x00\n        /* \"main.sol\":5494:5504  bytes32(0) */\n      0x00\n      shl\n        /* \"main.sol\":5480:5490  commitment */\n      dup6\n        /* \"main.sol\":5480:5504  commitment != bytes32(0) */\n      sub\n        /* \"main.sol\":5458:5548  require(... */\n      tag_132\n      jumpi\n      mload(0x40)\n      0x08c379a000000000000000000000000000000000000000000000000000000000\n      dup2\n      mstore\n      0x04\n      add\n      tag_133\n      swap1\n      tag_134\n      jump\t// in\n    tag_133:\n      mload(0x40)\n      dup1\n      swap2\n      sub\n      swap1\n      revert\n    tag_132:\n        /* \"main.sol\":5592:5598  nonces */\n      0x04\n        /* \"main.sol\":5592:5606  nonces[bidder] */\n      0x00\n        /* \"main.sol\":5599:5605  bidder */\n      dup8\n        /* \"main.sol\":5592:5606  nonces[bidder] */\n      0xffffffffffffffffffffffffffffffffffffffff\n      and\n      0xffffffffffffffffffffffffffffffffffffffff\n      and\n      dup2\n      mstore\n      0x20\n      add\n      swap1\n      dup2\n      mstore\n      0x20\n      add\n      0x00\n      keccak256\n      sload\n        /* \"main.sol\":5583:5588  nonce */\n      dup5\n        /* \"main.sol\":5583:5606  nonce == nonces[bidder] */\n      eq\n        /* \"main.sol\":5561:5647  require(... */\n      tag_135\n      jumpi\n      mload(0x40)\n      0x08c379a000000000000000000000000000000000000000000000000000000000\n      dup2\n      mstore\n      0x04\n      add\n      tag_136\n      swap1\n      tag_137\n      jump\t// in\n    tag_136:\n      mload(0x40)\n      dup1\n      swap2\n      sub\n      swap1\n      revert\n    tag_135:\n        /* \"main.sol\":5660:5674  bytes32 digest */\n      0x00\n        /* \"main.sol\":5690:5838  getCommitAuthorizationDigest(... */\n      tag_138\n        /* \"main.sol\":5737:5743  bidder */\n      dup8\n        /* \"main.sol\":5762:5772  commitment */\n      dup8\n        /* \"main.sol\":5791:5796  nonce */\n      dup8\n        /* \"main.sol\":5815:5823  deadline */\n      dup8\n        /* \"main.sol\":5690:5718  getCommitAuthorizationDigest */\n      tag_112\n        /* \"main.sol\":5690:5838  getCommitAuthorizationDigest(... */\n      jump\t// in\n    tag_138:\n        /* \"main.sol\":5660:5838  bytes32 digest =... */\n      swap1\n      pop\n        /* \"main.sol\":5851:5874  address recoveredSigner */\n      0x00\n        /* \"main.sol\":5890:5923  _recoverSigner(digest, signature) */\n      tag_139\n        /* \"main.sol\":5905:5911  digest */\n      dup3\n        /* \"main.sol\":5913:5922  signature */\n      dup6\n      dup6\n        /* \"main.sol\":5890:5904  _recoverSigner */\n      tag_140\n        /* \"main.sol\":5890:5923  _recoverSigner(digest, signature) */\n      jump\t// in\n    tag_139:\n        /* \"main.sol\":5851:5923  address recoveredSigner =... */\n      swap1\n      pop\n        /* \"main.sol\":5977:5983  bidder */\n      dup8\n        /* \"main.sol\":5958:5983  recoveredSigner == bidder */\n      0xffffffffffffffffffffffffffffffffffffffff\n      and\n        /* \"main.sol\":5958:5973  recoveredSigner */\n      dup2\n        /* \"main.sol\":5958:5983  recoveredSigner == bidder */\n      0xffffffffffffffffffffffffffffffffffffffff\n      and\n      eq\n        /* \"main.sol\":5936:6028  require(... */\n      tag_141\n      jumpi\n      mload(0x40)\n      0x08c379a000000000000000000000000000000000000000000000000000000000\n      dup2\n      mstore\n      0x04\n      add\n      tag_142\n      swap1\n      tag_143\n      jump\t// in\n    tag_142:\n      mload(0x40)\n      dup1\n      swap2\n      sub\n      swap1\n      revert\n    tag_141:\n        /* \"main.sol\":6127:6128  1 */\n      0x01\n        /* \"main.sol\":6119:6124  nonce */\n      dup7\n        /* \"main.sol\":6119:6128  nonce + 1 */\n      tag_144\n      swap2\n      swap1\n      tag_145\n      jump\t// in\n    tag_144:\n        /* \"main.sol\":6102:6108  nonces */\n      0x04\n        /* \"main.sol\":6102:6116  nonces[bidder] */\n      0x00\n        /* \"main.sol\":6109:6115  bidder */\n      dup11\n        /* \"main.sol\":6102:6116  nonces[bidder] */\n      0xffffffffffffffffffffffffffffffffffffffff\n      and\n      0xffffffffffffffffffffffffffffffffffffffff\n      and\n      dup2\n      mstore\n      0x20\n      add\n      swap1\n      dup2\n      mstore\n      0x20\n      add\n      0x00\n      keccak256\n        /* \"main.sol\":6102:6128  nonces[bidder] = nonce + 1 */\n      dup2\n      swap1\n      sstore\n      pop\n        /* \"main.sol\":6300:6418  StoredCommitment({... */\n      mload(0x40)\n      dup1\n      0x60\n      add\n      0x40\n      mstore\n      dup1\n        /* \"main.sol\":6339:6349  commitment */\n      dup9\n        /* \"main.sol\":6300:6418  StoredCommitment({... */\n      dup2\n      mstore\n      0x20\n      add\n        /* \"main.sol\":6371:6376  nonce */\n      dup8\n        /* \"main.sol\":6300:6418  StoredCommitment({... */\n      dup2\n      mstore\n      0x20\n      add\n        /* \"main.sol\":6401:6406  false */\n      0x00\n        /* \"main.sol\":6300:6418  StoredCommitment({... */\n      iszero\n      iszero\n      dup2\n      mstore\n      pop\n        /* \"main.sol\":6278:6289  commitments */\n      0x03\n        /* \"main.sol\":6278:6297  commitments[bidder] */\n      0x00\n        /* \"main.sol\":6290:6296  bidder */\n      dup11\n        /* \"main.sol\":6278:6297  commitments[bidder] */\n      0xffffffffffffffffffffffffffffffffffffffff\n      and\n      0xffffffffffffffffffffffffffffffffffffffff\n      and\n      dup2\n      mstore\n      0x20\n      add\n      swap1\n      dup2\n      mstore\n      0x20\n      add\n      0x00\n      keccak256\n        /* \"main.sol\":6278:6418  commitments[bidder] = StoredCommitment({... */\n      0x00\n      dup3\n      add\n      mload\n      dup2\n      0x00\n      add\n      sstore\n      0x20\n      dup3\n      add\n      mload\n      dup2\n      0x01\n      add\n      sstore\n      0x40\n      dup3\n      add\n      mload\n      dup2\n      0x02\n      add\n      exp(0x0100, 0x00)\n      dup2\n      sload\n      dup2\n      0xff\n      mul\n      not\n      and\n      swap1\n      dup4\n      iszero\n      iszero\n      mul\n      or\n      swap1\n      sstore\n      pop\n      swap1\n      pop\n      pop\n        /* \"main.sol\":6529:6539  msg.sender */\n      caller\n        /* \"main.sol\":6436:6550  BidCommitted(... */\n      0xffffffffffffffffffffffffffffffffffffffff\n      and\n        /* \"main.sol\":6484:6494  commitment */\n      dup8\n        /* \"main.sol\":6463:6469  bidder */\n      dup10\n        /* \"main.sol\":6436:6550  BidCommitted(... */\n      0xffffffffffffffffffffffffffffffffffffffff\n      and\n      0x17fbcc6e4e21b1297f78174a0e2733b509e285c1ef8414629e371f7a635f80f2\n        /* \"main.sol\":6509:6514  nonce */\n      dup10\n        /* \"main.sol\":6436:6550  BidCommitted(... */\n      mload(0x40)\n      tag_146\n      swap2\n      swap1\n      tag_63\n      jump\t// in\n    tag_146:\n      mload(0x40)\n      dup1\n      swap2\n      sub\n      swap1\n      log4\n        /* \"main.sol\":5135:6558  {... */\n      pop\n      pop\n        /* \"main.sol\":4960:6558  function commitBid(... */\n      pop\n      pop\n      pop\n      pop\n      pop\n      pop\n      jump\t// out\n        /* \"main.sol\":3695:4204  function getCommitAuthorizationHash(... */\n    tag_54:\n        /* \"main.sol\":3864:3871  bytes32 */\n      0x00\n        /* \"main.sol\":1234:1416  keccak256(... */\n      0xf5f53de1e01e354974d8391cbdb53dd5f7827082d54e624f952bfd51a484aa07\n        /* \"main.sol\":3992:4001  auctionId */\n      immutable(\"0x1a192fabce13988b84994d4296e6cdc418d55e2f1d7f942188d4040b94fc57ac\")\n        /* \"main.sol\":4020:4026  bidder */\n      dup7\n        /* \"main.sol\":4045:4055  commitment */\n      dup7\n        /* \"main.sol\":4074:4079  nonce */\n      dup7\n        /* \"main.sol\":4098:4106  deadline */\n      dup7\n        /* \"main.sol\":4133:4137  this */\n      address\n        /* \"main.sol\":4157:4170  block.chainid */\n      chainid\n        /* \"main.sol\":3915:4185  abi.encode(... */\n      add(0x20, mload(0x40))\n      tag_148\n      swap9\n      swap8\n      swap7\n      swap6\n      swap5\n      swap4\n      swap3\n      swap2\n      swap1\n      tag_149\n      jump\t// in\n    tag_148:\n      mload(0x40)\n      0x20\n      dup2\n      dup4\n      sub\n      sub\n      dup2\n      mstore\n      swap1\n      0x40\n      mstore\n        /* \"main.sol\":3891:4196  keccak256(... */\n      dup1\n      mload\n      swap1\n      0x20\n      add\n      keccak256\n        /* \"main.sol\":3884:4196  return keccak256(... */\n      swap1\n      pop\n        /* \"main.sol\":3695:4204  function getCommitAuthorizationHash(... */\n      swap5\n      swap4\n      pop\n      pop\n      pop\n      pop\n      jump\t// out\n        /* \"main.sol\":8910:9646  function withdraw() external {... */\n    tag_58:\n        /* \"main.sol\":8973:8989  withdrawalLocked */\n      0x02\n      0x01\n      swap1\n      sload\n      swap1\n      0x0100\n      exp\n      swap1\n      div\n      0xff\n      and\n        /* \"main.sol\":8972:8989  !withdrawalLocked */\n      iszero\n        /* \"main.sol\":8950:9031  require(... */\n      tag_151\n      jumpi\n      mload(0x40)\n      0x08c379a000000000000000000000000000000000000000000000000000000000\n      dup2\n      mstore\n      0x04\n      add\n      tag_152\n      swap1\n      tag_153\n      jump\t// in\n    tag_152:\n      mload(0x40)\n      dup1\n      swap2\n      sub\n      swap1\n      revert\n    tag_151:\n        /* \"main.sol\":9044:9058  uint256 amount */\n      0x00\n        /* \"main.sol\":9074:9081  credits */\n      0x05\n        /* \"main.sol\":9074:9093  credits[msg.sender] */\n      0x00\n        /* \"main.sol\":9082:9092  msg.sender */\n      caller\n        /* \"main.sol\":9074:9093  credits[msg.sender] */\n      0xffffffffffffffffffffffffffffffffffffffff\n      and\n      0xffffffffffffffffffffffffffffffffffffffff\n      and\n      dup2\n      mstore\n      0x20\n      add\n      swap1\n      dup2\n      mstore\n      0x20\n      add\n      0x00\n      keccak256\n      sload\n        /* \"main.sol\":9044:9093  uint256 amount =... */\n      swap1\n      pop\n        /* \"main.sol\":9137:9138  0 */\n      0x00\n        /* \"main.sol\":9128:9134  amount */\n      dup2\n        /* \"main.sol\":9128:9138  amount > 0 */\n      gt\n        /* \"main.sol\":9106:9185  require(... */\n      tag_154\n      jumpi\n      mload(0x40)\n      0x08c379a000000000000000000000000000000000000000000000000000000000\n      dup2\n      mstore\n      0x04\n      add\n      tag_155\n      swap1\n      tag_156\n      jump\t// in\n    tag_155:\n      mload(0x40)\n      dup1\n      swap2\n      sub\n      swap1\n      revert\n    tag_154:\n        /* \"main.sol\":9217:9221  true */\n      0x01\n        /* \"main.sol\":9198:9214  withdrawalLocked */\n      0x02\n      0x01\n        /* \"main.sol\":9198:9221  withdrawalLocked = true */\n      0x0100\n      exp\n      dup2\n      sload\n      dup2\n      0xff\n      mul\n      not\n      and\n      swap1\n      dup4\n      iszero\n      iszero\n      mul\n      or\n      swap1\n      sstore\n      pop\n        /* \"main.sol\":9306:9307  0 */\n      0x00\n        /* \"main.sol\":9284:9291  credits */\n      0x05\n        /* \"main.sol\":9284:9303  credits[msg.sender] */\n      0x00\n        /* \"main.sol\":9292:9302  msg.sender */\n      caller\n        /* \"main.sol\":9284:9303  credits[msg.sender] */\n      0xffffffffffffffffffffffffffffffffffffffff\n      and\n      0xffffffffffffffffffffffffffffffffffffffff\n      and\n      dup2\n      mstore\n      0x20\n      add\n      swap1\n      dup2\n      mstore\n      0x20\n      add\n      0x00\n      keccak256\n        /* \"main.sol\":9284:9307  credits[msg.sender] = 0 */\n      dup2\n      swap1\n      sstore\n      pop\n        /* \"main.sol\":9321:9333  bool success */\n      0x00\n        /* \"main.sol\":9360:9370  msg.sender */\n      caller\n        /* \"main.sol\":9352:9376  payable(msg.sender).call */\n      0xffffffffffffffffffffffffffffffffffffffff\n      and\n        /* \"main.sol\":9402:9408  amount */\n      dup3\n        /* \"main.sol\":9352:9427  payable(msg.sender).call{... */\n      mload(0x40)\n      tag_157\n      swap1\n      tag_158\n      jump\t// in\n    tag_157:\n      0x00\n      mload(0x40)\n      dup1\n      dup4\n      sub\n      dup2\n      dup6\n      dup8\n      gas\n      call\n      swap3\n      pop\n      pop\n      pop\n      returndatasize\n      dup1\n      0x00\n      dup2\n      eq\n      tag_161\n      jumpi\n      mload(0x40)\n      swap2\n      pop\n      and(add(returndatasize, 0x3f), not(0x1f))\n      dup3\n      add\n      0x40\n      mstore\n      returndatasize\n      dup3\n      mstore\n      returndatasize\n      0x00\n      0x20\n      dup5\n      add\n      returndatacopy\n      jump(tag_160)\n    tag_161:\n      0x60\n      swap2\n      pop\n    tag_160:\n      pop\n        /* \"main.sol\":9320:9427  (bool success, ) =... */\n      pop\n      swap1\n      pop\n        /* \"main.sol\":9462:9469  success */\n      dup1\n        /* \"main.sol\":9440:9516  require(... */\n      tag_162\n      jumpi\n      mload(0x40)\n      0x08c379a000000000000000000000000000000000000000000000000000000000\n      dup2\n      mstore\n      0x04\n      add\n      tag_163\n      swap1\n      tag_164\n      jump\t// in\n    tag_163:\n      mload(0x40)\n      dup1\n      swap2\n      sub\n      swap1\n      revert\n    tag_162:\n        /* \"main.sol\":9548:9553  false */\n      0x00\n        /* \"main.sol\":9529:9545  withdrawalLocked */\n      0x02\n      0x01\n        /* \"main.sol\":9529:9553  withdrawalLocked = false */\n      0x0100\n      exp\n      dup2\n      sload\n      dup2\n      0xff\n      mul\n      not\n      and\n      swap1\n      dup4\n      iszero\n      iszero\n      mul\n      or\n      swap1\n      sstore\n      pop\n        /* \"main.sol\":9596:9606  msg.sender */\n      caller\n        /* \"main.sol\":9571:9638  Withdrawal(... */\n      0xffffffffffffffffffffffffffffffffffffffff\n      and\n      0x7fcf532c15f0a6db0bd6d0e038bea71d30d808c7d98cb3bf7268a95bf5081b65\n        /* \"main.sol\":9621:9627  amount */\n      dup4\n        /* \"main.sol\":9571:9638  Withdrawal(... */\n      mload(0x40)\n      tag_165\n      swap2\n      swap1\n      tag_63\n      jump\t// in\n    tag_165:\n      mload(0x40)\n      dup1\n      swap2\n      sub\n      swap1\n      log2\n        /* \"main.sol\":8939:9646  {... */\n      pop\n      pop\n        /* \"main.sol\":8910:9646  function withdraw() external {... */\n      jump\t// out\n        /* \"main.sol\":513:547  uint256 public immutable commitEnd */\n    tag_61:\n      immutable(\"0xe455bf8ea6e7463a1046a0b52804526e119b4bf5136279614e0b1e8e296a4e2d\")\n      dup2\n      jump\t// out\n        /* \"main.sol\":8394:8847  function finalize() external {... */\n    tag_66:\n        /* \"main.sol\":8475:8484  revealEnd */\n      immutable(\"0xe4b1702d9298fee62dfeccc57d322a463ad55ca201256d01f62b45b2e1c21c10\")\n        /* \"main.sol\":8456:8471  block.timestamp */\n      timestamp\n        /* \"main.sol\":8456:8484  block.timestamp >= revealEnd */\n      lt\n      iszero\n        /* \"main.sol\":8434:8534  require(... */\n      tag_167\n      jumpi\n      mload(0x40)\n      0x08c379a000000000000000000000000000000000000000000000000000000000\n      dup2\n      mstore\n      0x04\n      add\n      tag_168\n      swap1\n      tag_169\n      jump\t// in\n    tag_168:\n      mload(0x40)\n      dup1\n      swap2\n      sub\n      swap1\n      revert\n    tag_167:\n        /* \"main.sol\":8570:8579  finalized */\n      0x02\n      0x00\n      swap1\n      sload\n      swap1\n      0x0100\n      exp\n      swap1\n      div\n      0xff\n      and\n        /* \"main.sol\":8569:8579  !finalized */\n      iszero\n        /* \"main.sol\":8547:8624  require(... */\n      tag_170\n      jumpi\n      mload(0x40)\n      0x08c379a000000000000000000000000000000000000000000000000000000000\n      dup2\n      mstore\n      0x04\n      add\n      tag_171\n      swap1\n      tag_172\n      jump\t// in\n    tag_171:\n      mload(0x40)\n      dup1\n      swap2\n      sub\n      swap1\n      revert\n    tag_170:\n        /* \"main.sol\":8649:8653  true */\n      0x01\n        /* \"main.sol\":8637:8646  finalized */\n      0x02\n      0x00\n        /* \"main.sol\":8637:8653  finalized = true */\n      0x0100\n      exp\n      dup2\n      sload\n      dup2\n      0xff\n      mul\n      not\n      and\n      swap1\n      dup4\n      iszero\n      iszero\n      mul\n      or\n      swap1\n      sstore\n      pop\n        /* \"main.sol\":8683:8684  0 */\n      0x00\n        /* \"main.sol\":8670:8680  highestBid */\n      sload(0x01)\n        /* \"main.sol\":8670:8684  highestBid > 0 */\n      gt\n        /* \"main.sol\":8666:8742  if (highestBid > 0) {... */\n      iszero\n      tag_173\n      jumpi\n        /* \"main.sol\":8720:8730  highestBid */\n      sload(0x01)\n        /* \"main.sol\":8701:8708  credits */\n      0x05\n        /* \"main.sol\":8701:8716  credits[seller] */\n      0x00\n        /* \"main.sol\":8709:8715  seller */\n      immutable(\"0x13600b294191fc92924bb3ce4b969c1e7e2bab8f4c93c3fc6d0a51733df3c060\")\n        /* \"main.sol\":8701:8716  credits[seller] */\n      0xffffffffffffffffffffffffffffffffffffffff\n      and\n      0xffffffffffffffffffffffffffffffffffffffff\n      and\n      dup2\n      mstore\n      0x20\n      add\n      swap1\n      dup2\n      mstore\n      0x20\n      add\n      0x00\n      keccak256\n      0x00\n        /* \"main.sol\":8701:8730  credits[seller] += highestBid */\n      dup3\n      dup3\n      sload\n      tag_174\n      swap2\n      swap1\n      tag_145\n      jump\t// in\n    tag_174:\n      swap3\n      pop\n      pop\n      dup2\n      swap1\n      sstore\n      pop\n        /* \"main.sol\":8666:8742  if (highestBid > 0) {... */\n    tag_173:\n        /* \"main.sol\":8790:8803  highestBidder */\n      0x00\n      0x00\n      swap1\n      sload\n      swap1\n      0x0100\n      exp\n      swap1\n      div\n      0xffffffffffffffffffffffffffffffffffffffff\n      and\n        /* \"main.sol\":8759:8839  AuctionFinalized(... */\n      0xffffffffffffffffffffffffffffffffffffffff\n      and\n      0x357afab190ee87fe0ef1c717f2728d2904d9e415a069d99f4d9382873cb3279d\n        /* \"main.sol\":8818:8828  highestBid */\n      sload(0x01)\n        /* \"main.sol\":8759:8839  AuctionFinalized(... */\n      mload(0x40)\n      tag_175\n      swap2\n      swap1\n      tag_63\n      jump\t// in\n    tag_175:\n      mload(0x40)\n      dup1\n      swap2\n      sub\n      swap1\n      log2\n        /* \"main.sol\":8394:8847  function finalize() external {... */\n      jump\t// out\n        /* \"main.sol\":6635:8245  function revealBid(... */\n    tag_70:\n        /* \"main.sol\":6781:6790  commitEnd */\n      immutable(\"0xe455bf8ea6e7463a1046a0b52804526e119b4bf5136279614e0b1e8e296a4e2d\")\n        /* \"main.sol\":6762:6777  block.timestamp */\n      timestamp\n        /* \"main.sol\":6762:6790  block.timestamp >= commitEnd */\n      lt\n      iszero\n        /* \"main.sol\":6740:6842  require(... */\n      tag_177\n      jumpi\n      mload(0x40)\n      0x08c379a000000000000000000000000000000000000000000000000000000000\n      dup2\n      mstore\n      0x04\n      add\n      tag_178\n      swap1\n      tag_179\n      jump\t// in\n    tag_178:\n      mload(0x40)\n      dup1\n      swap2\n      sub\n      swap1\n      revert\n    tag_177:\n        /* \"main.sol\":6895:6904  revealEnd */\n      immutable(\"0xe4b1702d9298fee62dfeccc57d322a463ad55ca201256d01f62b45b2e1c21c10\")\n        /* \"main.sol\":6877:6892  block.timestamp */\n      timestamp\n        /* \"main.sol\":6877:6904  block.timestamp < revealEnd */\n      lt\n        /* \"main.sol\":6855:6950  require(... */\n      tag_180\n      jumpi\n      mload(0x40)\n      0x08c379a000000000000000000000000000000000000000000000000000000000\n      dup2\n      mstore\n      0x04\n      add\n      tag_181\n      swap1\n      tag_182\n      jump\t// in\n    tag_181:\n      mload(0x40)\n      dup1\n      swap2\n      sub\n      swap1\n      revert\n    tag_180:\n        /* \"main.sol\":6998:7007  bidAmount */\n      dup2\n        /* \"main.sol\":6985:6994  msg.value */\n      callvalue\n        /* \"main.sol\":6985:7007  msg.value == bidAmount */\n      eq\n        /* \"main.sol\":6963:7051  require(... */\n      tag_183\n      jumpi\n      mload(0x40)\n      0x08c379a000000000000000000000000000000000000000000000000000000000\n      dup2\n      mstore\n      0x04\n      add\n      tag_184\n      swap1\n      tag_185\n      jump\t// in\n    tag_184:\n      mload(0x40)\n      dup1\n      swap2\n      sub\n      swap1\n      revert\n    tag_183:\n        /* \"main.sol\":7064:7095  StoredCommitment storage stored */\n      0x00\n        /* \"main.sol\":7111:7122  commitments */\n      0x03\n        /* \"main.sol\":7111:7134  commitments[msg.sender] */\n      0x00\n        /* \"main.sol\":7123:7133  msg.sender */\n      caller\n        /* \"main.sol\":7111:7134  commitments[msg.sender] */\n      0xffffffffffffffffffffffffffffffffffffffff\n      and\n      0xffffffffffffffffffffffffffffffffffffffff\n      and\n      dup2\n      mstore\n      0x20\n      add\n      swap1\n      dup2\n      mstore\n      0x20\n      add\n      0x00\n      keccak256\n        /* \"main.sol\":7064:7134  StoredCommitment storage stored =... */\n      swap1\n      pop\n        /* \"main.sol\":7193:7194  0 */\n      0x00\n        /* \"main.sol\":7185:7195  bytes32(0) */\n      0x00\n      shl\n        /* \"main.sol\":7169:7175  stored */\n      dup2\n        /* \"main.sol\":7169:7181  stored.value */\n      0x00\n      add\n      sload\n        /* \"main.sol\":7169:7195  stored.value != bytes32(0) */\n      sub\n        /* \"main.sol\":7147:7236  require(... */\n      tag_186\n      jumpi\n      mload(0x40)\n      0x08c379a000000000000000000000000000000000000000000000000000000000\n      dup2\n      mstore\n      0x04\n      add\n      tag_187\n      swap1\n      tag_188\n      jump\t// in\n    tag_187:\n      mload(0x40)\n      dup1\n      swap2\n      sub\n      swap1\n      revert\n    tag_186:\n        /* \"main.sol\":7272:7278  stored */\n      dup1\n        /* \"main.sol\":7272:7287  stored.revealed */\n      0x02\n      add\n      0x00\n      swap1\n      sload\n      swap1\n      0x0100\n      exp\n      swap1\n      div\n      0xff\n      and\n        /* \"main.sol\":7271:7287  !stored.revealed */\n      iszero\n        /* \"main.sol\":7249:7331  require(... */\n      tag_189\n      jumpi\n      mload(0x40)\n      0x08c379a000000000000000000000000000000000000000000000000000000000\n      dup2\n      mstore\n      0x04\n      add\n      tag_190\n      swap1\n      tag_191\n      jump\t// in\n    tag_190:\n      mload(0x40)\n      dup1\n      swap2\n      sub\n      swap1\n      revert\n    tag_189:\n        /* \"main.sol\":7344:7370  bytes32 expectedCommitment */\n      0x00\n        /* \"main.sol\":7386:7495  makeCommitment(... */\n      tag_192\n        /* \"main.sol\":7419:7429  msg.sender */\n      caller\n        /* \"main.sol\":7448:7457  bidAmount */\n      dup6\n        /* \"main.sol\":7476:7480  salt */\n      dup6\n        /* \"main.sol\":7386:7400  makeCommitment */\n      tag_33\n        /* \"main.sol\":7386:7495  makeCommitment(... */\n      jump\t// in\n    tag_192:\n        /* \"main.sol\":7344:7495  bytes32 expectedCommitment =... */\n      swap1\n      pop\n        /* \"main.sol\":7552:7558  stored */\n      dup2\n        /* \"main.sol\":7552:7564  stored.value */\n      0x00\n      add\n      sload\n        /* \"main.sol\":7530:7548  expectedCommitment */\n      dup2\n        /* \"main.sol\":7530:7564  expectedCommitment == stored.value */\n      eq\n        /* \"main.sol\":7508:7611  require(... */\n      tag_193\n      jumpi\n      mload(0x40)\n      0x08c379a000000000000000000000000000000000000000000000000000000000\n      dup2\n      mstore\n      0x04\n      add\n      tag_194\n      swap1\n      tag_195\n      jump\t// in\n    tag_194:\n      mload(0x40)\n      dup1\n      swap2\n      sub\n      swap1\n      revert\n    tag_193:\n        /* \"main.sol\":7642:7646  true */\n      0x01\n        /* \"main.sol\":7624:7630  stored */\n      dup3\n        /* \"main.sol\":7624:7639  stored.revealed */\n      0x02\n      add\n      0x00\n        /* \"main.sol\":7624:7646  stored.revealed = true */\n      0x0100\n      exp\n      dup2\n      sload\n      dup2\n      0xff\n      mul\n      not\n      and\n      swap1\n      dup4\n      iszero\n      iszero\n      mul\n      or\n      swap1\n      sstore\n      pop\n        /* \"main.sol\":7659:7673  bool isHighest */\n      0x00\n        /* \"main.sol\":7701:7711  highestBid */\n      sload(0x01)\n        /* \"main.sol\":7689:7698  bidAmount */\n      dup6\n        /* \"main.sol\":7689:7711  bidAmount > highestBid */\n      gt\n        /* \"main.sol\":7659:7711  bool isHighest =... */\n      swap1\n      pop\n        /* \"main.sol\":7728:7737  isHighest */\n      dup1\n        /* \"main.sol\":7724:8125  if (isHighest) {... */\n      iszero\n      tag_196\n      jumpi\n        /* \"main.sol\":7835:7836  0 */\n      0x00\n        /* \"main.sol\":7810:7837  highestBidder != address(0) */\n      0xffffffffffffffffffffffffffffffffffffffff\n      and\n        /* \"main.sol\":7810:7823  highestBidder */\n      0x00\n      0x00\n      swap1\n      sload\n      swap1\n      0x0100\n      exp\n      swap1\n      div\n      0xffffffffffffffffffffffffffffffffffffffff\n      and\n        /* \"main.sol\":7810:7837  highestBidder != address(0) */\n      0xffffffffffffffffffffffffffffffffffffffff\n      and\n      eq\n        /* \"main.sol\":7806:7910  if (highestBidder != address(0)) {... */\n      tag_197\n      jumpi\n        /* \"main.sol\":7884:7894  highestBid */\n      sload(0x01)\n        /* \"main.sol\":7858:7865  credits */\n      0x05\n        /* \"main.sol\":7858:7880  credits[highestBidder] */\n      0x00\n        /* \"main.sol\":7866:7879  highestBidder */\n      0x00\n      0x00\n      swap1\n      sload\n      swap1\n      0x0100\n      exp\n      swap1\n      div\n      0xffffffffffffffffffffffffffffffffffffffff\n      and\n        /* \"main.sol\":7858:7880  credits[highestBidder] */\n      0xffffffffffffffffffffffffffffffffffffffff\n      and\n      0xffffffffffffffffffffffffffffffffffffffff\n      and\n      dup2\n      mstore\n      0x20\n      add\n      swap1\n      dup2\n      mstore\n      0x20\n      add\n      0x00\n      keccak256\n      0x00\n        /* \"main.sol\":7858:7894  credits[highestBidder] += highestBid */\n      dup3\n      dup3\n      sload\n      tag_198\n      swap2\n      swap1\n      tag_145\n      jump\t// in\n    tag_198:\n      swap3\n      pop\n      pop\n      dup2\n      swap1\n      sstore\n      pop\n        /* \"main.sol\":7806:7910  if (highestBidder != address(0)) {... */\n    tag_197:\n        /* \"main.sol\":7942:7952  msg.sender */\n      caller\n        /* \"main.sol\":7926:7939  highestBidder */\n      0x00\n      0x00\n        /* \"main.sol\":7926:7952  highestBidder = msg.sender */\n      0x0100\n      exp\n      dup2\n      sload\n      dup2\n      0xffffffffffffffffffffffffffffffffffffffff\n      mul\n      not\n      and\n      swap1\n      dup4\n      0xffffffffffffffffffffffffffffffffffffffff\n      and\n      mul\n      or\n      swap1\n      sstore\n      pop\n        /* \"main.sol\":7980:7989  bidAmount */\n      dup5\n        /* \"main.sol\":7967:7977  highestBid */\n      0x01\n        /* \"main.sol\":7967:7989  highestBid = bidAmount */\n      dup2\n      swap1\n      sstore\n      pop\n        /* \"main.sol\":7724:8125  if (isHighest) {... */\n      jump(tag_199)\n    tag_196:\n        /* \"main.sol\":8104:8113  bidAmount */\n      dup5\n        /* \"main.sol\":8081:8088  credits */\n      0x05\n        /* \"main.sol\":8081:8100  credits[msg.sender] */\n      0x00\n        /* \"main.sol\":8089:8099  msg.sender */\n      caller\n        /* \"main.sol\":8081:8100  credits[msg.sender] */\n      0xffffffffffffffffffffffffffffffffffffffff\n      and\n      0xffffffffffffffffffffffffffffffffffffffff\n      and\n      dup2\n      mstore\n      0x20\n      add\n      swap1\n      dup2\n      mstore\n      0x20\n      add\n      0x00\n      keccak256\n      0x00\n        /* \"main.sol\":8081:8113  credits[msg.sender] += bidAmount */\n      dup3\n      dup3\n      sload\n      tag_200\n      swap2\n      swap1\n      tag_145\n      jump\t// in\n    tag_200:\n      swap3\n      pop\n      pop\n      dup2\n      swap1\n      sstore\n      pop\n        /* \"main.sol\":7724:8125  if (isHighest) {... */\n    tag_199:\n        /* \"main.sol\":8168:8178  msg.sender */\n      caller\n        /* \"main.sol\":8142:8237  BidRevealed(... */\n      0xffffffffffffffffffffffffffffffffffffffff\n      and\n      0x9c2d1dff1e244149eef8b49255674d40752acd825b23d4ad303807f98fe59532\n        /* \"main.sol\":8193:8202  bidAmount */\n      dup7\n        /* \"main.sol\":8217:8226  isHighest */\n      dup4\n        /* \"main.sol\":8142:8237  BidRevealed(... */\n      mload(0x40)\n      tag_201\n      swap3\n      swap2\n      swap1\n      tag_202\n      jump\t// in\n    tag_201:\n      mload(0x40)\n      dup1\n      swap2\n      sub\n      swap1\n      log2\n        /* \"main.sol\":6729:8245  {... */\n      pop\n      pop\n      pop\n        /* \"main.sol\":6635:8245  function revealBid(... */\n      pop\n      pop\n      jump\t// out\n        /* \"main.sol\":1032:1073  mapping(address => uint256) public nonces */\n    tag_75:\n      mstore(0x20, 0x04)\n      dup1\n      0x00\n      mstore\n      keccak256(0x00, 0x40)\n      0x00\n      swap2\n      pop\n      swap1\n      pop\n      sload\n      dup2\n      jump\t// out\n        /* \"main.sol\":640:668  address public highestBidder */\n    tag_79:\n      0x00\n      0x00\n      swap1\n      sload\n      swap1\n      0x0100\n      exp\n      swap1\n      div\n      0xffffffffffffffffffffffffffffffffffffffff\n      and\n      dup2\n      jump\t// out\n        /* \"main.sol\":554:588  uint256 public immutable revealEnd */\n    tag_83:\n      immutable(\"0xe4b1702d9298fee62dfeccc57d322a463ad55ca201256d01f62b45b2e1c21c10\")\n      dup2\n      jump\t// out\n        /* \"main.sol\":9706:10085  function phase()... */\n    tag_87:\n        /* \"main.sol\":9773:9786  string memory */\n      0x60\n        /* \"main.sol\":9826:9835  commitEnd */\n      immutable(\"0xe455bf8ea6e7463a1046a0b52804526e119b4bf5136279614e0b1e8e296a4e2d\")\n        /* \"main.sol\":9808:9823  block.timestamp */\n      timestamp\n        /* \"main.sol\":9808:9835  block.timestamp < commitEnd */\n      lt\n        /* \"main.sol\":9804:9879  if (block.timestamp < commitEnd) {... */\n      iszero\n      tag_204\n      jumpi\n        /* \"main.sol\":9852:9867  return \"COMMIT\" */\n      mload(0x40)\n      dup1\n      0x40\n      add\n      0x40\n      mstore\n      dup1\n      0x06\n      dup2\n      mstore\n      0x20\n      add\n      0x434f4d4d49540000000000000000000000000000000000000000000000000000\n      dup2\n      mstore\n      pop\n      swap1\n      pop\n      jump(tag_203)\n        /* \"main.sol\":9804:9879  if (block.timestamp < commitEnd) {... */\n    tag_204:\n        /* \"main.sol\":9913:9922  revealEnd */\n      immutable(\"0xe4b1702d9298fee62dfeccc57d322a463ad55ca201256d01f62b45b2e1c21c10\")\n        /* \"main.sol\":9895:9910  block.timestamp */\n      timestamp\n        /* \"main.sol\":9895:9922  block.timestamp < revealEnd */\n      lt\n        /* \"main.sol\":9891:9966  if (block.timestamp < revealEnd) {... */\n      iszero\n      tag_205\n      jumpi\n        /* \"main.sol\":9939:9954  return \"REVEAL\" */\n      mload(0x40)\n      dup1\n      0x40\n      add\n      0x40\n      mstore\n      dup1\n      0x06\n      dup2\n      mstore\n      0x20\n      add\n      0x52455645414c0000000000000000000000000000000000000000000000000000\n      dup2\n      mstore\n      pop\n      swap1\n      pop\n      jump(tag_203)\n        /* \"main.sol\":9891:9966  if (block.timestamp < revealEnd) {... */\n    tag_205:\n        /* \"main.sol\":9983:9992  finalized */\n      0x02\n      0x00\n      swap1\n      sload\n      swap1\n      0x0100\n      exp\n      swap1\n      div\n      0xff\n      and\n        /* \"main.sol\":9978:10047  if (!finalized) {... */\n      tag_206\n      jumpi\n        /* \"main.sol\":10009:10035  return \"READY_TO_FINALIZE\" */\n      mload(0x40)\n      dup1\n      0x40\n      add\n      0x40\n      mstore\n      dup1\n      0x11\n      dup2\n      mstore\n      0x20\n      add\n      0x52454144595f544f5f46494e414c495a45000000000000000000000000000000\n      dup2\n      mstore\n      pop\n      swap1\n      pop\n      jump(tag_203)\n        /* \"main.sol\":9978:10047  if (!finalized) {... */\n    tag_206:\n        /* \"main.sol\":10059:10077  return \"FINALIZED\" */\n      mload(0x40)\n      dup1\n      0x40\n      add\n      0x40\n      mstore\n      dup1\n      0x09\n      dup2\n      mstore\n      0x20\n      add\n      0x46494e414c495a45440000000000000000000000000000000000000000000000\n      dup2\n      mstore\n      pop\n      swap1\n      pop\n        /* \"main.sol\":9706:10085  function phase()... */\n    tag_203:\n      swap1\n      jump\t// out\n        /* \"main.sol\":709:730  bool public finalized */\n    tag_92:\n      0x02\n      0x00\n      swap1\n      sload\n      swap1\n      0x0100\n      exp\n      swap1\n      div\n      0xff\n      and\n      dup2\n      jump\t// out\n        /* \"main.sol\":675:700  uint256 public highestBid */\n    tag_97:\n      sload(0x01)\n      dup2\n      jump\t// out\n        /* \"main.sol\":1169:1416  bytes32 public constant COMMIT_AUTHORIZATION_TYPEHASH =... */\n    tag_101:\n        /* \"main.sol\":1234:1416  keccak256(... */\n      0xf5f53de1e01e354974d8391cbdb53dd5f7827082d54e624f952bfd51a484aa07\n        /* \"main.sol\":1169:1416  bytes32 public constant COMMIT_AUTHORIZATION_TYPEHASH =... */\n      dup2\n      jump\t// out\n        /* \"main.sol\":923:978  mapping(address => StoredCommitment) public commitments */\n    tag_106:\n      mstore(0x20, 0x03)\n      dup1\n      0x00\n      mstore\n      keccak256(0x00, 0x40)\n      0x00\n      swap2\n      pop\n      swap1\n      pop\n      dup1\n      0x00\n      add\n      sload\n      swap1\n      dup1\n      0x01\n      add\n      sload\n      swap1\n      dup1\n      0x02\n      add\n      0x00\n      swap1\n      sload\n      swap1\n      0x0100\n      exp\n      swap1\n      div\n      0xff\n      and\n      swap1\n      pop\n      dup4\n      jump\t// out\n        /* \"main.sol\":4276:4837  function getCommitAuthorizationDigest(... */\n    tag_112:\n        /* \"main.sol\":4447:4454  bytes32 */\n      0x00\n        /* \"main.sol\":4467:4492  bytes32 authorizationHash */\n      0x00\n        /* \"main.sol\":4508:4654  getCommitAuthorizationHash(... */\n      tag_208\n        /* \"main.sol\":4553:4559  bidder */\n      dup7\n        /* \"main.sol\":4578:4588  commitment */\n      dup7\n        /* \"main.sol\":4607:4612  nonce */\n      dup7\n        /* \"main.sol\":4631:4639  deadline */\n      dup7\n        /* \"main.sol\":4508:4534  getCommitAuthorizationHash */\n      tag_54\n        /* \"main.sol\":4508:4654  getCommitAuthorizationHash(... */\n      jump\t// in\n    tag_208:\n        /* \"main.sol\":4467:4654  bytes32 authorizationHash =... */\n      swap1\n      pop\n        /* \"main.sol\":4786:4803  authorizationHash */\n      dup1\n        /* \"main.sol\":4698:4818  abi.encodePacked(... */\n      add(0x20, mload(0x40))\n      tag_209\n      swap2\n      swap1\n      tag_210\n      jump\t// in\n    tag_209:\n      mload(0x40)\n      0x20\n      dup2\n      dup4\n      sub\n      sub\n      dup2\n      mstore\n      swap1\n      0x40\n      mstore\n        /* \"main.sol\":4674:4829  keccak256(... */\n      dup1\n      mload\n      swap1\n      0x20\n      add\n      keccak256\n        /* \"main.sol\":4667:4829  return keccak256(... */\n      swap2\n      pop\n      pop\n        /* \"main.sol\":4276:4837  function getCommitAuthorizationDigest(... */\n      swap5\n      swap4\n      pop\n      pop\n      pop\n      pop\n      jump\t// out\n        /* \"main.sol\":1118:1160  mapping(address => uint256) public credits */\n    tag_117:\n      mstore(0x20, 0x05)\n      dup1\n      0x00\n      mstore\n      keccak256(0x00, 0x40)\n      0x00\n      swap2\n      pop\n      swap1\n      pop\n      sload\n      dup2\n      jump\t// out\n        /* \"main.sol\":10093:11387  function _recoverSigner(... */\n    tag_140:\n        /* \"main.sol\":10207:10214  address */\n      0x00\n        /* \"main.sol\":10269:10271  65 */\n      0x41\n        /* \"main.sol\":10249:10258  signature */\n      dup4\n      dup4\n        /* \"main.sol\":10249:10265  signature.length */\n      swap1\n      pop\n        /* \"main.sol\":10249:10271  signature.length == 65 */\n      eq\n        /* \"main.sol\":10227:10325  require(... */\n      tag_212\n      jumpi\n      mload(0x40)\n      0x08c379a000000000000000000000000000000000000000000000000000000000\n      dup2\n      mstore\n      0x04\n      add\n      tag_213\n      swap1\n      tag_214\n      jump\t// in\n    tag_213:\n      mload(0x40)\n      dup1\n      swap2\n      sub\n      swap1\n      revert\n    tag_212:\n        /* \"main.sol\":10338:10347  bytes32 r */\n      0x00\n        /* \"main.sol\":10358:10367  bytes32 s */\n      0x00\n        /* \"main.sol\":10378:10385  uint8 v */\n      0x00\n        /* \"main.sol\":10440:10456  signature.offset */\n      dup6\n        /* \"main.sol\":10427:10457  calldataload(signature.offset) */\n      calldataload\n        /* \"main.sol\":10422:10457  r := calldataload(signature.offset) */\n      swap3\n      pop\n        /* \"main.sol\":10529:10531  32 */\n      0x20\n        /* \"main.sol\":10511:10527  signature.offset */\n      dup7\n        /* \"main.sol\":10507:10532  add(signature.offset, 32) */\n      add\n        /* \"main.sol\":10476:10547  calldataload(... */\n      calldataload\n        /* \"main.sol\":10471:10547  s := calldataload(... */\n      swap2\n      pop\n        /* \"main.sol\":10666:10668  64 */\n      0x40\n        /* \"main.sol\":10648:10664  signature.offset */\n      dup7\n        /* \"main.sol\":10644:10669  add(signature.offset, 64) */\n      add\n        /* \"main.sol\":10609:10688  calldataload(... */\n      calldataload\n        /* \"main.sol\":10589:10590  0 */\n      0x00\n        /* \"main.sol\":10566:10703  byte(... */\n      byte\n        /* \"main.sol\":10561:10703  v := byte(... */\n      swap1\n      pop\n        /* \"main.sol\":10796:10798  27 */\n      0x1b\n        /* \"main.sol\":10792:10793  v */\n      dup2\n        /* \"main.sol\":10792:10798  v < 27 */\n      0xff\n      and\n      lt\n        /* \"main.sol\":10788:10834  if (v < 27) {... */\n      iszero\n      tag_215\n      jumpi\n        /* \"main.sol\":10820:10822  27 */\n      0x1b\n        /* \"main.sol\":10815:10822  v += 27 */\n      dup2\n      tag_216\n      swap2\n      swap1\n      tag_217\n      jump\t// in\n    tag_216:\n      swap1\n      pop\n        /* \"main.sol\":10788:10834  if (v < 27) {... */\n    tag_215:\n        /* \"main.sol\":10873:10875  27 */\n      0x1b\n        /* \"main.sol\":10868:10869  v */\n      dup2\n        /* \"main.sol\":10868:10875  v == 27 */\n      0xff\n      and\n      eq\n        /* \"main.sol\":10868:10886  v == 27 || v == 28 */\n      dup1\n      tag_218\n      jumpi\n      pop\n        /* \"main.sol\":10884:10886  28 */\n      0x1c\n        /* \"main.sol\":10879:10880  v */\n      dup2\n        /* \"main.sol\":10879:10886  v == 28 */\n      0xff\n      and\n      eq\n        /* \"main.sol\":10868:10886  v == 27 || v == 28 */\n    tag_218:\n        /* \"main.sol\":10846:10933  require(... */\n      tag_219\n      jumpi\n      mload(0x40)\n      0x08c379a000000000000000000000000000000000000000000000000000000000\n      dup2\n      mstore\n      0x04\n      add\n      tag_220\n      swap1\n      tag_221\n      jump\t// in\n    tag_220:\n      mload(0x40)\n      dup1\n      swap2\n      sub\n      swap1\n      revert\n    tag_219:\n        /* \"main.sol\":10981:10982  0 */\n      0x00\n        /* \"main.sol\":10976:10977  s */\n      dup3\n        /* \"main.sol\":10968:10978  uint256(s) */\n      0x00\n      shr\n        /* \"main.sol\":10968:10982  uint256(s) > 0 */\n      gt\n        /* \"main.sol\":10968:11037  uint256(s) > 0 &&... */\n      dup1\n      iszero\n      tag_222\n      jumpi\n      pop\n        /* \"main.sol\":1594:1660  0x7fffffffffffffffffffffffffffffff5d576e7357a4501ddfe92f46681b20a0 */\n      0x7fffffffffffffffffffffffffffffff5d576e7357a4501ddfe92f46681b20a0\n        /* \"main.sol\":11011:11012  s */\n      dup3\n        /* \"main.sol\":11003:11013  uint256(s) */\n      0x00\n      shr\n        /* \"main.sol\":11003:11037  uint256(s) <= SECP256K1_HALF_ORDER */\n      gt\n      iszero\n        /* \"main.sol\":10968:11037  uint256(s) > 0 &&... */\n    tag_222:\n        /* \"main.sol\":10946:11084  require(... */\n      tag_223\n      jumpi\n      mload(0x40)\n      0x08c379a000000000000000000000000000000000000000000000000000000000\n      dup2\n      mstore\n      0x04\n      add\n      tag_224\n      swap1\n      tag_225\n      jump\t// in\n    tag_224:\n      mload(0x40)\n      dup1\n      swap2\n      sub\n      swap1\n      revert\n    tag_223:\n        /* \"main.sol\":11097:11114  address recovered */\n      0x00\n        /* \"main.sol\":11130:11239  ecrecover(... */\n      0x01\n        /* \"main.sol\":11158:11164  digest */\n      dup9\n        /* \"main.sol\":11183:11184  v */\n      dup4\n        /* \"main.sol\":11203:11204  r */\n      dup7\n        /* \"main.sol\":11223:11224  s */\n      dup7\n        /* \"main.sol\":11130:11239  ecrecover(... */\n      mload(0x40)\n      0x00\n      dup2\n      mstore\n      0x20\n      add\n      0x40\n      mstore\n      mload(0x40)\n      tag_226\n      swap5\n      swap4\n      swap3\n      swap2\n      swap1\n      tag_227\n      jump\t// in\n    tag_226:\n      0x20\n      mload(0x40)\n      0x20\n      dup2\n      sub\n      swap1\n      dup1\n      dup5\n      sub\n      swap1\n      dup6\n      gas\n      staticcall\n      iszero\n      dup1\n      iszero\n      tag_229\n      jumpi\n      returndatacopy(0x00, 0x00, returndatasize)\n      revert(0x00, returndatasize)\n    tag_229:\n      pop\n      pop\n      pop\n      mload(sub(mload(0x40), 0x20))\n        /* \"main.sol\":11097:11239  address recovered =... */\n      swap1\n      pop\n        /* \"main.sol\":11295:11296  0 */\n      0x00\n        /* \"main.sol\":11274:11297  recovered != address(0) */\n      0xffffffffffffffffffffffffffffffffffffffff\n      and\n        /* \"main.sol\":11274:11283  recovered */\n      dup2\n        /* \"main.sol\":11274:11297  recovered != address(0) */\n      0xffffffffffffffffffffffffffffffffffffffff\n      and\n      sub\n        /* \"main.sol\":11252:11350  require(... */\n      tag_230\n      jumpi\n      mload(0x40)\n      0x08c379a000000000000000000000000000000000000000000000000000000000\n      dup2\n      mstore\n      0x04\n      add\n      tag_231\n      swap1\n      tag_232\n      jump\t// in\n    tag_231:\n      mload(0x40)\n      dup1\n      swap2\n      sub\n      swap1\n      revert\n    tag_230:\n        /* \"main.sol\":11370:11379  recovered */\n      dup1\n        /* \"main.sol\":11363:11379  return recovered */\n      swap5\n      pop\n      pop\n      pop\n      pop\n      pop\n        /* \"main.sol\":10093:11387  function _recoverSigner(... */\n      swap4\n      swap3\n      pop\n      pop\n      pop\n      jump\t// out\n        /* \"#utility.yul\":7:176   */\n    tag_233:\n        /* \"#utility.yul\":91:102   */\n      0x00\n        /* \"#utility.yul\":125:131   */\n      dup3\n        /* \"#utility.yul\":120:123   */\n      dup3\n        /* \"#utility.yul\":113:132   */\n      mstore\n        /* \"#utility.yul\":165:169   */\n      0x20\n        /* \"#utility.yul\":160:163   */\n      dup3\n        /* \"#utility.yul\":156:170   */\n      add\n        /* \"#utility.yul\":141:170   */\n      swap1\n      pop\n        /* \"#utility.yul\":7:176   */\n      swap3\n      swap2\n      pop\n      pop\n      jump\t// out\n        /* \"#utility.yul\":182:345   */\n    tag_234:\n        /* \"#utility.yul\":322:337   */\n      0x5573652072657665616c42696400000000000000000000000000000000000000\n        /* \"#utility.yul\":318:319   */\n      0x00\n        /* \"#utility.yul\":310:316   */\n      dup3\n        /* \"#utility.yul\":306:320   */\n      add\n        /* \"#utility.yul\":299:338   */\n      mstore\n        /* \"#utility.yul\":182:345   */\n      pop\n      jump\t// out\n        /* \"#utility.yul\":351:717   */\n    tag_235:\n        /* \"#utility.yul\":493:496   */\n      0x00\n        /* \"#utility.yul\":514:581   */\n      tag_319\n        /* \"#utility.yul\":578:580   */\n      0x0d\n        /* \"#utility.yul\":573:576   */\n      dup4\n        /* \"#utility.yul\":514:581   */\n      tag_233\n      jump\t// in\n    tag_319:\n        /* \"#utility.yul\":507:581   */\n      swap2\n      pop\n        /* \"#utility.yul\":590:683   */\n      tag_320\n        /* \"#utility.yul\":679:682   */\n      dup3\n        /* \"#utility.yul\":590:683   */\n      tag_234\n      jump\t// in\n    tag_320:\n        /* \"#utility.yul\":708:710   */\n      0x20\n        /* \"#utility.yul\":703:706   */\n      dup3\n        /* \"#utility.yul\":699:711   */\n      add\n        /* \"#utility.yul\":692:711   */\n      swap1\n      pop\n        /* \"#utility.yul\":351:717   */\n      swap2\n      swap1\n      pop\n      jump\t// out\n        /* \"#utility.yul\":723:1142   */\n    tag_28:\n        /* \"#utility.yul\":889:893   */\n      0x00\n        /* \"#utility.yul\":927:929   */\n      0x20\n        /* \"#utility.yul\":916:925   */\n      dup3\n        /* \"#utility.yul\":912:930   */\n      add\n        /* \"#utility.yul\":904:930   */\n      swap1\n      pop\n        /* \"#utility.yul\":976:985   */\n      dup2\n        /* \"#utility.yul\":970:974   */\n      dup2\n        /* \"#utility.yul\":966:986   */\n      sub\n        /* \"#utility.yul\":962:963   */\n      0x00\n        /* \"#utility.yul\":951:960   */\n      dup4\n        /* \"#utility.yul\":947:964   */\n      add\n        /* \"#utility.yul\":940:987   */\n      mstore\n        /* \"#utility.yul\":1004:1135   */\n      tag_322\n        /* \"#utility.yul\":1130:1134   */\n      dup2\n        /* \"#utility.yul\":1004:1135   */\n      tag_235\n      jump\t// in\n    tag_322:\n        /* \"#utility.yul\":996:1135   */\n      swap1\n      pop\n        /* \"#utility.yul\":723:1142   */\n      swap2\n      swap1\n      pop\n      jump\t// out\n        /* \"#utility.yul\":1229:1346   */\n    tag_237:\n        /* \"#utility.yul\":1338:1339   */\n      0x00\n        /* \"#utility.yul\":1335:1336   */\n      0x00\n        /* \"#utility.yul\":1328:1340   */\n      revert\n        /* \"#utility.yul\":1352:1469   */\n    tag_238:\n        /* \"#utility.yul\":1461:1462   */\n      0x00\n        /* \"#utility.yul\":1458:1459   */\n      0x00\n        /* \"#utility.yul\":1451:1463   */\n      revert\n        /* \"#utility.yul\":1475:1601   */\n    tag_239:\n        /* \"#utility.yul\":1512:1519   */\n      0x00\n        /* \"#utility.yul\":1552:1594   */\n      0xffffffffffffffffffffffffffffffffffffffff\n        /* \"#utility.yul\":1545:1550   */\n      dup3\n        /* \"#utility.yul\":1541:1595   */\n      and\n        /* \"#utility.yul\":1530:1595   */\n      swap1\n      pop\n        /* \"#utility.yul\":1475:1601   */\n      swap2\n      swap1\n      pop\n      jump\t// out\n        /* \"#utility.yul\":1607:1703   */\n    tag_240:\n        /* \"#utility.yul\":1644:1651   */\n      0x00\n        /* \"#utility.yul\":1673:1697   */\n      tag_328\n        /* \"#utility.yul\":1691:1696   */\n      dup3\n        /* \"#utility.yul\":1673:1697   */\n      tag_239\n      jump\t// in\n    tag_328:\n        /* \"#utility.yul\":1662:1697   */\n      swap1\n      pop\n        /* \"#utility.yul\":1607:1703   */\n      swap2\n      swap1\n      pop\n      jump\t// out\n        /* \"#utility.yul\":1709:1831   */\n    tag_241:\n        /* \"#utility.yul\":1782:1806   */\n      tag_330\n        /* \"#utility.yul\":1800:1805   */\n      dup2\n        /* \"#utility.yul\":1782:1806   */\n      tag_240\n      jump\t// in\n    tag_330:\n        /* \"#utility.yul\":1775:1780   */\n      dup2\n        /* \"#utility.yul\":1772:1807   */\n      eq\n        /* \"#utility.yul\":1762:1825   */\n      tag_331\n      jumpi\n        /* \"#utility.yul\":1821:1822   */\n      0x00\n        /* \"#utility.yul\":1818:1819   */\n      0x00\n        /* \"#utility.yul\":1811:1823   */\n      revert\n        /* \"#utility.yul\":1762:1825   */\n    tag_331:\n        /* \"#utility.yul\":1709:1831   */\n      pop\n      jump\t// out\n        /* \"#utility.yul\":1837:1976   */\n    tag_242:\n        /* \"#utility.yul\":1883:1888   */\n      0x00\n        /* \"#utility.yul\":1921:1927   */\n      dup2\n        /* \"#utility.yul\":1908:1928   */\n      calldataload\n        /* \"#utility.yul\":1899:1928   */\n      swap1\n      pop\n        /* \"#utility.yul\":1937:1970   */\n      tag_333\n        /* \"#utility.yul\":1964:1969   */\n      dup2\n        /* \"#utility.yul\":1937:1970   */\n      tag_241\n      jump\t// in\n    tag_333:\n        /* \"#utility.yul\":1837:1976   */\n      swap3\n      swap2\n      pop\n      pop\n      jump\t// out\n        /* \"#utility.yul\":1982:2059   */\n    tag_243:\n        /* \"#utility.yul\":2019:2026   */\n      0x00\n        /* \"#utility.yul\":2048:2053   */\n      dup2\n        /* \"#utility.yul\":2037:2053   */\n      swap1\n      pop\n        /* \"#utility.yul\":1982:2059   */\n      swap2\n      swap1\n      pop\n      jump\t// out\n        /* \"#utility.yul\":2065:2187   */\n    tag_244:\n        /* \"#utility.yul\":2138:2162   */\n      tag_336\n        /* \"#utility.yul\":2156:2161   */\n      dup2\n        /* \"#utility.yul\":2138:2162   */\n      tag_243\n      jump\t// in\n    tag_336:\n        /* \"#utility.yul\":2131:2136   */\n      dup2\n        /* \"#utility.yul\":2128:2163   */\n      eq\n        /* \"#utility.yul\":2118:2181   */\n      tag_337\n      jumpi\n        /* \"#utility.yul\":2177:2178   */\n      0x00\n        /* \"#utility.yul\":2174:2175   */\n      0x00\n        /* \"#utility.yul\":2167:2179   */\n      revert\n        /* \"#utility.yul\":2118:2181   */\n    tag_337:\n        /* \"#utility.yul\":2065:2187   */\n      pop\n      jump\t// out\n        /* \"#utility.yul\":2193:2332   */\n    tag_245:\n        /* \"#utility.yul\":2239:2244   */\n      0x00\n        /* \"#utility.yul\":2277:2283   */\n      dup2\n        /* \"#utility.yul\":2264:2284   */\n      calldataload\n        /* \"#utility.yul\":2255:2284   */\n      swap1\n      pop\n        /* \"#utility.yul\":2293:2326   */\n      tag_339\n        /* \"#utility.yul\":2320:2325   */\n      dup2\n        /* \"#utility.yul\":2293:2326   */\n      tag_244\n      jump\t// in\n    tag_339:\n        /* \"#utility.yul\":2193:2332   */\n      swap3\n      swap2\n      pop\n      pop\n      jump\t// out\n        /* \"#utility.yul\":2338:2415   */\n    tag_246:\n        /* \"#utility.yul\":2375:2382   */\n      0x00\n        /* \"#utility.yul\":2404:2409   */\n      dup2\n        /* \"#utility.yul\":2393:2409   */\n      swap1\n      pop\n        /* \"#utility.yul\":2338:2415   */\n      swap2\n      swap1\n      pop\n      jump\t// out\n        /* \"#utility.yul\":2421:2543   */\n    tag_247:\n        /* \"#utility.yul\":2494:2518   */\n      tag_342\n        /* \"#utility.yul\":2512:2517   */\n      dup2\n        /* \"#utility.yul\":2494:2518   */\n      tag_246\n      jump\t// in\n    tag_342:\n        /* \"#utility.yul\":2487:2492   */\n      dup2\n        /* \"#utility.yul\":2484:2519   */\n      eq\n        /* \"#utility.yul\":2474:2537   */\n      tag_343\n      jumpi\n        /* \"#utility.yul\":2533:2534   */\n      0x00\n        /* \"#utility.yul\":2530:2531   */\n      0x00\n        /* \"#utility.yul\":2523:2535   */\n      revert\n        /* \"#utility.yul\":2474:2537   */\n    tag_343:\n        /* \"#utility.yul\":2421:2543   */\n      pop\n      jump\t// out\n        /* \"#utility.yul\":2549:2688   */\n    tag_248:\n        /* \"#utility.yul\":2595:2600   */\n      0x00\n        /* \"#utility.yul\":2633:2639   */\n      dup2\n        /* \"#utility.yul\":2620:2640   */\n      calldataload\n        /* \"#utility.yul\":2611:2640   */\n      swap1\n      pop\n        /* \"#utility.yul\":2649:2682   */\n      tag_345\n        /* \"#utility.yul\":2676:2681   */\n      dup2\n        /* \"#utility.yul\":2649:2682   */\n      tag_247\n      jump\t// in\n    tag_345:\n        /* \"#utility.yul\":2549:2688   */\n      swap3\n      swap2\n      pop\n      pop\n      jump\t// out\n        /* \"#utility.yul\":2694:3313   */\n    tag_32:\n        /* \"#utility.yul\":2771:2777   */\n      0x00\n        /* \"#utility.yul\":2779:2785   */\n      0x00\n        /* \"#utility.yul\":2787:2793   */\n      0x00\n        /* \"#utility.yul\":2836:2838   */\n      0x60\n        /* \"#utility.yul\":2824:2833   */\n      dup5\n        /* \"#utility.yul\":2815:2822   */\n      dup7\n        /* \"#utility.yul\":2811:2834   */\n      sub\n        /* \"#utility.yul\":2807:2839   */\n      slt\n        /* \"#utility.yul\":2804:2923   */\n      iszero\n      tag_347\n      jumpi\n        /* \"#utility.yul\":2842:2921   */\n      tag_348\n      tag_237\n      jump\t// in\n    tag_348:\n        /* \"#utility.yul\":2804:2923   */\n    tag_347:\n        /* \"#utility.yul\":2962:2963   */\n      0x00\n        /* \"#utility.yul\":2987:3040   */\n      tag_349\n        /* \"#utility.yul\":3032:3039   */\n      dup7\n        /* \"#utility.yul\":3023:3029   */\n      dup3\n        /* \"#utility.yul\":3012:3021   */\n      dup8\n        /* \"#utility.yul\":3008:3030   */\n      add\n        /* \"#utility.yul\":2987:3040   */\n      tag_242\n      jump\t// in\n    tag_349:\n        /* \"#utility.yul\":2977:3040   */\n      swap4\n      pop\n        /* \"#utility.yul\":2933:3050   */\n      pop\n        /* \"#utility.yul\":3089:3091   */\n      0x20\n        /* \"#utility.yul\":3115:3168   */\n      tag_350\n        /* \"#utility.yul\":3160:3167   */\n      dup7\n        /* \"#utility.yul\":3151:3157   */\n      dup3\n        /* \"#utility.yul\":3140:3149   */\n      dup8\n        /* \"#utility.yul\":3136:3158   */\n      add\n        /* \"#utility.yul\":3115:3168   */\n      tag_245\n      jump\t// in\n    tag_350:\n        /* \"#utility.yul\":3105:3168   */\n      swap3\n      pop\n        /* \"#utility.yul\":3060:3178   */\n      pop\n        /* \"#utility.yul\":3217:3219   */\n      0x40\n        /* \"#utility.yul\":3243:3296   */\n      tag_351\n        /* \"#utility.yul\":3288:3295   */\n      dup7\n        /* \"#utility.yul\":3279:3285   */\n      dup3\n        /* \"#utility.yul\":3268:3277   */\n      dup8\n        /* \"#utility.yul\":3264:3286   */\n      add\n        /* \"#utility.yul\":3243:3296   */\n      tag_248\n      jump\t// in\n    tag_351:\n        /* \"#utility.yul\":3233:3296   */\n      swap2\n      pop\n        /* \"#utility.yul\":3188:3306   */\n      pop\n        /* \"#utility.yul\":2694:3313   */\n      swap3\n      pop\n      swap3\n      pop\n      swap3\n      jump\t// out\n        /* \"#utility.yul\":3319:3437   */\n    tag_249:\n        /* \"#utility.yul\":3406:3430   */\n      tag_353\n        /* \"#utility.yul\":3424:3429   */\n      dup2\n        /* \"#utility.yul\":3406:3430   */\n      tag_246\n      jump\t// in\n    tag_353:\n        /* \"#utility.yul\":3401:3404   */\n      dup3\n        /* \"#utility.yul\":3394:3431   */\n      mstore\n        /* \"#utility.yul\":3319:3437   */\n      pop\n      pop\n      jump\t// out\n        /* \"#utility.yul\":3443:3665   */\n    tag_35:\n        /* \"#utility.yul\":3536:3540   */\n      0x00\n        /* \"#utility.yul\":3574:3576   */\n      0x20\n        /* \"#utility.yul\":3563:3572   */\n      dup3\n        /* \"#utility.yul\":3559:3577   */\n      add\n        /* \"#utility.yul\":3551:3577   */\n      swap1\n      pop\n        /* \"#utility.yul\":3587:3658   */\n      tag_355\n        /* \"#utility.yul\":3655:3656   */\n      0x00\n        /* \"#utility.yul\":3644:3653   */\n      dup4\n        /* \"#utility.yul\":3640:3657   */\n      add\n        /* \"#utility.yul\":3631:3637   */\n      dup5\n        /* \"#utility.yul\":3587:3658   */\n      tag_249\n      jump\t// in\n    tag_355:\n        /* \"#utility.yul\":3443:3665   */\n      swap3\n      swap2\n      pop\n      pop\n      jump\t// out\n        /* \"#utility.yul\":3671:3789   */\n    tag_250:\n        /* \"#utility.yul\":3758:3782   */\n      tag_357\n        /* \"#utility.yul\":3776:3781   */\n      dup2\n        /* \"#utility.yul\":3758:3782   */\n      tag_240\n      jump\t// in\n    tag_357:\n        /* \"#utility.yul\":3753:3756   */\n      dup3\n        /* \"#utility.yul\":3746:3783   */\n      mstore\n        /* \"#utility.yul\":3671:3789   */\n      pop\n      pop\n      jump\t// out\n        /* \"#utility.yul\":3795:4017   */\n    tag_40:\n        /* \"#utility.yul\":3888:3892   */\n      0x00\n        /* \"#utility.yul\":3926:3928   */\n      0x20\n        /* \"#utility.yul\":3915:3924   */\n      dup3\n        /* \"#utility.yul\":3911:3929   */\n      add\n        /* \"#utility.yul\":3903:3929   */\n      swap1\n      pop\n        /* \"#utility.yul\":3939:4010   */\n      tag_359\n        /* \"#utility.yul\":4007:4008   */\n      0x00\n        /* \"#utility.yul\":3996:4005   */\n      dup4\n        /* \"#utility.yul\":3992:4009   */\n      add\n        /* \"#utility.yul\":3983:3989   */\n      dup5\n        /* \"#utility.yul\":3939:4010   */\n      tag_250\n      jump\t// in\n    tag_359:\n        /* \"#utility.yul\":3795:4017   */\n      swap3\n      swap2\n      pop\n      pop\n      jump\t// out\n        /* \"#utility.yul\":4023:4140   */\n    tag_251:\n        /* \"#utility.yul\":4132:4133   */\n      0x00\n        /* \"#utility.yul\":4129:4130   */\n      0x00\n        /* \"#utility.yul\":4122:4134   */\n      revert\n        /* \"#utility.yul\":4146:4263   */\n    tag_252:\n        /* \"#utility.yul\":4255:4256   */\n      0x00\n        /* \"#utility.yul\":4252:4253   */\n      0x00\n        /* \"#utility.yul\":4245:4257   */\n      revert\n        /* \"#utility.yul\":4269:4386   */\n    tag_253:\n        /* \"#utility.yul\":4378:4379   */\n      0x00\n        /* \"#utility.yul\":4375:4376   */\n      0x00\n        /* \"#utility.yul\":4368:4380   */\n      revert\n        /* \"#utility.yul\":4405:4957   */\n    tag_254:\n        /* \"#utility.yul\":4462:4470   */\n      0x00\n        /* \"#utility.yul\":4472:4478   */\n      0x00\n        /* \"#utility.yul\":4522:4525   */\n      dup4\n        /* \"#utility.yul\":4515:4519   */\n      0x1f\n        /* \"#utility.yul\":4507:4513   */\n      dup5\n        /* \"#utility.yul\":4503:4520   */\n      add\n        /* \"#utility.yul\":4499:4526   */\n      slt\n        /* \"#utility.yul\":4489:4611   */\n      tag_364\n      jumpi\n        /* \"#utility.yul\":4530:4609   */\n      tag_365\n      tag_251\n      jump\t// in\n    tag_365:\n        /* \"#utility.yul\":4489:4611   */\n    tag_364:\n        /* \"#utility.yul\":4643:4649   */\n      dup3\n        /* \"#utility.yul\":4630:4650   */\n      calldataload\n        /* \"#utility.yul\":4620:4650   */\n      swap1\n      pop\n        /* \"#utility.yul\":4673:4691   */\n      0xffffffffffffffff\n        /* \"#utility.yul\":4665:4671   */\n      dup2\n        /* \"#utility.yul\":4662:4692   */\n      gt\n        /* \"#utility.yul\":4659:4776   */\n      iszero\n      tag_366\n      jumpi\n        /* \"#utility.yul\":4695:4774   */\n      tag_367\n      tag_252\n      jump\t// in\n    tag_367:\n        /* \"#utility.yul\":4659:4776   */\n    tag_366:\n        /* \"#utility.yul\":4809:4813   */\n      0x20\n        /* \"#utility.yul\":4801:4807   */\n      dup4\n        /* \"#utility.yul\":4797:4814   */\n      add\n        /* \"#utility.yul\":4785:4814   */\n      swap2\n      pop\n        /* \"#utility.yul\":4863:4866   */\n      dup4\n        /* \"#utility.yul\":4855:4859   */\n      0x01\n        /* \"#utility.yul\":4847:4853   */\n      dup3\n        /* \"#utility.yul\":4843:4860   */\n      mul\n        /* \"#utility.yul\":4833:4841   */\n      dup4\n        /* \"#utility.yul\":4829:4861   */\n      add\n        /* \"#utility.yul\":4826:4867   */\n      gt\n        /* \"#utility.yul\":4823:4951   */\n      iszero\n      tag_368\n      jumpi\n        /* \"#utility.yul\":4870:4949   */\n      tag_369\n      tag_253\n      jump\t// in\n    tag_369:\n        /* \"#utility.yul\":4823:4951   */\n    tag_368:\n        /* \"#utility.yul\":4405:4957   */\n      swap3\n      pop\n      swap3\n      swap1\n      pop\n      jump\t// out\n        /* \"#utility.yul\":4963:6072   */\n    tag_48:\n        /* \"#utility.yul\":5069:5075   */\n      0x00\n        /* \"#utility.yul\":5077:5083   */\n      0x00\n        /* \"#utility.yul\":5085:5091   */\n      0x00\n        /* \"#utility.yul\":5093:5099   */\n      0x00\n        /* \"#utility.yul\":5101:5107   */\n      0x00\n        /* \"#utility.yul\":5109:5115   */\n      0x00\n        /* \"#utility.yul\":5158:5161   */\n      0xa0\n        /* \"#utility.yul\":5146:5155   */\n      dup8\n        /* \"#utility.yul\":5137:5144   */\n      dup10\n        /* \"#utility.yul\":5133:5156   */\n      sub\n        /* \"#utility.yul\":5129:5162   */\n      slt\n        /* \"#utility.yul\":5126:5246   */\n      iszero\n      tag_371\n      jumpi\n        /* \"#utility.yul\":5165:5244   */\n      tag_372\n      tag_237\n      jump\t// in\n    tag_372:\n        /* \"#utility.yul\":5126:5246   */\n    tag_371:\n        /* \"#utility.yul\":5285:5286   */\n      0x00\n        /* \"#utility.yul\":5310:5363   */\n      tag_373\n        /* \"#utility.yul\":5355:5362   */\n      dup10\n        /* \"#utility.yul\":5346:5352   */\n      dup3\n        /* \"#utility.yul\":5335:5344   */\n      dup11\n        /* \"#utility.yul\":5331:5353   */\n      add\n        /* \"#utility.yul\":5310:5363   */\n      tag_242\n      jump\t// in\n    tag_373:\n        /* \"#utility.yul\":5300:5363   */\n      swap7\n      pop\n        /* \"#utility.yul\":5256:5373   */\n      pop\n        /* \"#utility.yul\":5412:5414   */\n      0x20\n        /* \"#utility.yul\":5438:5491   */\n      tag_374\n        /* \"#utility.yul\":5483:5490   */\n      dup10\n        /* \"#utility.yul\":5474:5480   */\n      dup3\n        /* \"#utility.yul\":5463:5472   */\n      dup11\n        /* \"#utility.yul\":5459:5481   */\n      add\n        /* \"#utility.yul\":5438:5491   */\n      tag_248\n      jump\t// in\n    tag_374:\n        /* \"#utility.yul\":5428:5491   */\n      swap6\n      pop\n        /* \"#utility.yul\":5383:5501   */\n      pop\n        /* \"#utility.yul\":5540:5542   */\n      0x40\n        /* \"#utility.yul\":5566:5619   */\n      tag_375\n        /* \"#utility.yul\":5611:5618   */\n      dup10\n        /* \"#utility.yul\":5602:5608   */\n      dup3\n        /* \"#utility.yul\":5591:5600   */\n      dup11\n        /* \"#utility.yul\":5587:5609   */\n      add\n        /* \"#utility.yul\":5566:5619   */\n      tag_245\n      jump\t// in\n    tag_375:\n        /* \"#utility.yul\":5556:5619   */\n      swap5\n      pop\n        /* \"#utility.yul\":5511:5629   */\n      pop\n        /* \"#utility.yul\":5668:5670   */\n      0x60\n        /* \"#utility.yul\":5694:5747   */\n      tag_376\n        /* \"#utility.yul\":5739:5746   */\n      dup10\n        /* \"#utility.yul\":5730:5736   */\n      dup3\n        /* \"#utility.yul\":5719:5728   */\n      dup11\n        /* \"#utility.yul\":5715:5737   */\n      add\n        /* \"#utility.yul\":5694:5747   */\n      tag_245\n      jump\t// in\n    tag_376:\n        /* \"#utility.yul\":5684:5747   */\n      swap4\n      pop\n        /* \"#utility.yul\":5639:5757   */\n      pop\n        /* \"#utility.yul\":5824:5827   */\n      0x80\n        /* \"#utility.yul\":5813:5822   */\n      dup8\n        /* \"#utility.yul\":5809:5828   */\n      add\n        /* \"#utility.yul\":5796:5829   */\n      calldataload\n        /* \"#utility.yul\":5856:5874   */\n      0xffffffffffffffff\n        /* \"#utility.yul\":5848:5854   */\n      dup2\n        /* \"#utility.yul\":5845:5875   */\n      gt\n        /* \"#utility.yul\":5842:5959   */\n      iszero\n      tag_377\n      jumpi\n        /* \"#utility.yul\":5878:5957   */\n      tag_378\n      tag_238\n      jump\t// in\n    tag_378:\n        /* \"#utility.yul\":5842:5959   */\n    tag_377:\n        /* \"#utility.yul\":5991:6055   */\n      tag_379\n        /* \"#utility.yul\":6047:6054   */\n      dup10\n        /* \"#utility.yul\":6038:6044   */\n      dup3\n        /* \"#utility.yul\":6027:6036   */\n      dup11\n        /* \"#utility.yul\":6023:6045   */\n      add\n        /* \"#utility.yul\":5991:6055   */\n      tag_254\n      jump\t// in\n    tag_379:\n        /* \"#utility.yul\":5973:6055   */\n      swap3\n      pop\n      swap3\n      pop\n        /* \"#utility.yul\":5767:6065   */\n      pop\n        /* \"#utility.yul\":4963:6072   */\n      swap3\n      swap6\n      pop\n      swap3\n      swap6\n      pop\n      swap3\n      swap6\n      jump\t// out\n        /* \"#utility.yul\":6078:6843   */\n    tag_53:\n        /* \"#utility.yul\":6164:6170   */\n      0x00\n        /* \"#utility.yul\":6172:6178   */\n      0x00\n        /* \"#utility.yul\":6180:6186   */\n      0x00\n        /* \"#utility.yul\":6188:6194   */\n      0x00\n        /* \"#utility.yul\":6237:6240   */\n      0x80\n        /* \"#utility.yul\":6225:6234   */\n      dup6\n        /* \"#utility.yul\":6216:6223   */\n      dup8\n        /* \"#utility.yul\":6212:6235   */\n      sub\n        /* \"#utility.yul\":6208:6241   */\n      slt\n        /* \"#utility.yul\":6205:6325   */\n      iszero\n      tag_381\n      jumpi\n        /* \"#utility.yul\":6244:6323   */\n      tag_382\n      tag_237\n      jump\t// in\n    tag_382:\n        /* \"#utility.yul\":6205:6325   */\n    tag_381:\n        /* \"#utility.yul\":6364:6365   */\n      0x00\n        /* \"#utility.yul\":6389:6442   */\n      tag_383\n        /* \"#utility.yul\":6434:6441   */\n      dup8\n        /* \"#utility.yul\":6425:6431   */\n      dup3\n        /* \"#utility.yul\":6414:6423   */\n      dup9\n        /* \"#utility.yul\":6410:6432   */\n      add\n        /* \"#utility.yul\":6389:6442   */\n      tag_242\n      jump\t// in\n    tag_383:\n        /* \"#utility.yul\":6379:6442   */\n      swap5\n      pop\n        /* \"#utility.yul\":6335:6452   */\n      pop\n        /* \"#utility.yul\":6491:6493   */\n      0x20\n        /* \"#utility.yul\":6517:6570   */\n      tag_384\n        /* \"#utility.yul\":6562:6569   */\n      dup8\n        /* \"#utility.yul\":6553:6559   */\n      dup3\n        /* \"#utility.yul\":6542:6551   */\n      dup9\n        /* \"#utility.yul\":6538:6560   */\n      add\n        /* \"#utility.yul\":6517:6570   */\n      tag_248\n      jump\t// in\n    tag_384:\n        /* \"#utility.yul\":6507:6570   */\n      swap4\n      pop\n        /* \"#utility.yul\":6462:6580   */\n      pop\n        /* \"#utility.yul\":6619:6621   */\n      0x40\n        /* \"#utility.yul\":6645:6698   */\n      tag_385\n        /* \"#utility.yul\":6690:6697   */\n      dup8\n        /* \"#utility.yul\":6681:6687   */\n      dup3\n        /* \"#utility.yul\":6670:6679   */\n      dup9\n        /* \"#utility.yul\":6666:6688   */\n      add\n        /* \"#utility.yul\":6645:6698   */\n      tag_245\n      jump\t// in\n    tag_385:\n        /* \"#utility.yul\":6635:6698   */\n      swap3\n      pop\n        /* \"#utility.yul\":6590:6708   */\n      pop\n        /* \"#utility.yul\":6747:6749   */\n      0x60\n        /* \"#utility.yul\":6773:6826   */\n      tag_386\n        /* \"#utility.yul\":6818:6825   */\n      dup8\n        /* \"#utility.yul\":6809:6815   */\n      dup3\n        /* \"#utility.yul\":6798:6807   */\n      dup9\n        /* \"#utility.yul\":6794:6816   */\n      add\n        /* \"#utility.yul\":6773:6826   */\n      tag_245\n      jump\t// in\n    tag_386:\n        /* \"#utility.yul\":6763:6826   */\n      swap2\n      pop\n        /* \"#utility.yul\":6718:6836   */\n      pop\n        /* \"#utility.yul\":6078:6843   */\n      swap3\n      swap6\n      swap2\n      swap5\n      pop\n      swap3\n      pop\n      jump\t// out\n        /* \"#utility.yul\":6849:6967   */\n    tag_255:\n        /* \"#utility.yul\":6936:6960   */\n      tag_388\n        /* \"#utility.yul\":6954:6959   */\n      dup2\n        /* \"#utility.yul\":6936:6960   */\n      tag_243\n      jump\t// in\n    tag_388:\n        /* \"#utility.yul\":6931:6934   */\n      dup3\n        /* \"#utility.yul\":6924:6961   */\n      mstore\n        /* \"#utility.yul\":6849:6967   */\n      pop\n      pop\n      jump\t// out\n        /* \"#utility.yul\":6973:7195   */\n    tag_63:\n        /* \"#utility.yul\":7066:7070   */\n      0x00\n        /* \"#utility.yul\":7104:7106   */\n      0x20\n        /* \"#utility.yul\":7093:7102   */\n      dup3\n        /* \"#utility.yul\":7089:7107   */\n      add\n        /* \"#utility.yul\":7081:7107   */\n      swap1\n      pop\n        /* \"#utility.yul\":7117:7188   */\n      tag_390\n        /* \"#utility.yul\":7185:7186   */\n      0x00\n        /* \"#utility.yul\":7174:7183   */\n      dup4\n        /* \"#utility.yul\":7170:7187   */\n      add\n        /* \"#utility.yul\":7161:7167   */\n      dup5\n        /* \"#utility.yul\":7117:7188   */\n      tag_255\n      jump\t// in\n    tag_390:\n        /* \"#utility.yul\":6973:7195   */\n      swap3\n      swap2\n      pop\n      pop\n      jump\t// out\n        /* \"#utility.yul\":7201:7675   */\n    tag_69:\n        /* \"#utility.yul\":7269:7275   */\n      0x00\n        /* \"#utility.yul\":7277:7283   */\n      0x00\n        /* \"#utility.yul\":7326:7328   */\n      0x40\n        /* \"#utility.yul\":7314:7323   */\n      dup4\n        /* \"#utility.yul\":7305:7312   */\n      dup6\n        /* \"#utility.yul\":7301:7324   */\n      sub\n        /* \"#utility.yul\":7297:7329   */\n      slt\n        /* \"#utility.yul\":7294:7413   */\n      iszero\n      tag_392\n      jumpi\n        /* \"#utility.yul\":7332:7411   */\n      tag_393\n      tag_237\n      jump\t// in\n    tag_393:\n        /* \"#utility.yul\":7294:7413   */\n    tag_392:\n        /* \"#utility.yul\":7452:7453   */\n      0x00\n        /* \"#utility.yul\":7477:7530   */\n      tag_394\n        /* \"#utility.yul\":7522:7529   */\n      dup6\n        /* \"#utility.yul\":7513:7519   */\n      dup3\n        /* \"#utility.yul\":7502:7511   */\n      dup7\n        /* \"#utility.yul\":7498:7520   */\n      add\n        /* \"#utility.yul\":7477:7530   */\n      tag_245\n      jump\t// in\n    tag_394:\n        /* \"#utility.yul\":7467:7530   */\n      swap3\n      pop\n        /* \"#utility.yul\":7423:7540   */\n      pop\n        /* \"#utility.yul\":7579:7581   */\n      0x20\n        /* \"#utility.yul\":7605:7658   */\n      tag_395\n        /* \"#utility.yul\":7650:7657   */\n      dup6\n        /* \"#utility.yul\":7641:7647   */\n      dup3\n        /* \"#utility.yul\":7630:7639   */\n      dup7\n        /* \"#utility.yul\":7626:7648   */\n      add\n        /* \"#utility.yul\":7605:7658   */\n      tag_248\n      jump\t// in\n    tag_395:\n        /* \"#utility.yul\":7595:7658   */\n      swap2\n      pop\n        /* \"#utility.yul\":7550:7668   */\n      pop\n        /* \"#utility.yul\":7201:7675   */\n      swap3\n      pop\n      swap3\n      swap1\n      pop\n      jump\t// out\n        /* \"#utility.yul\":7681:8010   */\n    tag_74:\n        /* \"#utility.yul\":7740:7746   */\n      0x00\n        /* \"#utility.yul\":7789:7791   */\n      0x20\n        /* \"#utility.yul\":7777:7786   */\n      dup3\n        /* \"#utility.yul\":7768:7775   */\n      dup5\n        /* \"#utility.yul\":7764:7787   */\n      sub\n        /* \"#utility.yul\":7760:7792   */\n      slt\n        /* \"#utility.yul\":7757:7876   */\n      iszero\n      tag_397\n      jumpi\n        /* \"#utility.yul\":7795:7874   */\n      tag_398\n      tag_237\n      jump\t// in\n    tag_398:\n        /* \"#utility.yul\":7757:7876   */\n    tag_397:\n        /* \"#utility.yul\":7915:7916   */\n      0x00\n        /* \"#utility.yul\":7940:7993   */\n      tag_399\n        /* \"#utility.yul\":7985:7992   */\n      dup5\n        /* \"#utility.yul\":7976:7982   */\n      dup3\n        /* \"#utility.yul\":7965:7974   */\n      dup6\n        /* \"#utility.yul\":7961:7983   */\n      add\n        /* \"#utility.yul\":7940:7993   */\n      tag_242\n      jump\t// in\n    tag_399:\n        /* \"#utility.yul\":7930:7993   */\n      swap2\n      pop\n        /* \"#utility.yul\":7886:8003   */\n      pop\n        /* \"#utility.yul\":7681:8010   */\n      swap3\n      swap2\n      pop\n      pop\n      jump\t// out\n        /* \"#utility.yul\":8016:8115   */\n    tag_256:\n        /* \"#utility.yul\":8068:8074   */\n      0x00\n        /* \"#utility.yul\":8102:8107   */\n      dup2\n        /* \"#utility.yul\":8096:8108   */\n      mload\n        /* \"#utility.yul\":8086:8108   */\n      swap1\n      pop\n        /* \"#utility.yul\":8016:8115   */\n      swap2\n      swap1\n      pop\n      jump\t// out\n        /* \"#utility.yul\":8121:8260   */\n    tag_257:\n        /* \"#utility.yul\":8210:8216   */\n      dup3\n        /* \"#utility.yul\":8205:8208   */\n      dup2\n        /* \"#utility.yul\":8200:8203   */\n      dup4\n        /* \"#utility.yul\":8194:8217   */\n      mcopy\n        /* \"#utility.yul\":8251:8252   */\n      0x00\n        /* \"#utility.yul\":8242:8248   */\n      dup4\n        /* \"#utility.yul\":8237:8240   */\n      dup4\n        /* \"#utility.yul\":8233:8249   */\n      add\n        /* \"#utility.yul\":8226:8253   */\n      mstore\n        /* \"#utility.yul\":8121:8260   */\n      pop\n      pop\n      pop\n      jump\t// out\n        /* \"#utility.yul\":8266:8368   */\n    tag_258:\n        /* \"#utility.yul\":8307:8313   */\n      0x00\n        /* \"#utility.yul\":8358:8360   */\n      0x1f\n        /* \"#utility.yul\":8354:8361   */\n      not\n        /* \"#utility.yul\":8349:8351   */\n      0x1f\n        /* \"#utility.yul\":8342:8347   */\n      dup4\n        /* \"#utility.yul\":8338:8352   */\n      add\n        /* \"#utility.yul\":8334:8362   */\n      and\n        /* \"#utility.yul\":8324:8362   */\n      swap1\n      pop\n        /* \"#utility.yul\":8266:8368   */\n      swap2\n      swap1\n      pop\n      jump\t// out\n        /* \"#utility.yul\":8374:8751   */\n    tag_259:\n        /* \"#utility.yul\":8462:8465   */\n      0x00\n        /* \"#utility.yul\":8490:8529   */\n      tag_404\n        /* \"#utility.yul\":8523:8528   */\n      dup3\n        /* \"#utility.yul\":8490:8529   */\n      tag_256\n      jump\t// in\n    tag_404:\n        /* \"#utility.yul\":8545:8616   */\n      tag_405\n        /* \"#utility.yul\":8609:8615   */\n      dup2\n        /* \"#utility.yul\":8604:8607   */\n      dup6\n        /* \"#utility.yul\":8545:8616   */\n      tag_233\n      jump\t// in\n    tag_405:\n        /* \"#utility.yul\":8538:8616   */\n      swap4\n      pop\n        /* \"#utility.yul\":8625:8690   */\n      tag_406\n        /* \"#utility.yul\":8683:8689   */\n      dup2\n        /* \"#utility.yul\":8678:8681   */\n      dup6\n        /* \"#utility.yul\":8671:8675   */\n      0x20\n        /* \"#utility.yul\":8664:8669   */\n      dup7\n        /* \"#utility.yul\":8660:8676   */\n      add\n        /* \"#utility.yul\":8625:8690   */\n      tag_257\n      jump\t// in\n    tag_406:\n        /* \"#utility.yul\":8715:8744   */\n      tag_407\n        /* \"#utility.yul\":8737:8743   */\n      dup2\n        /* \"#utility.yul\":8715:8744   */\n      tag_258\n      jump\t// in\n    tag_407:\n        /* \"#utility.yul\":8710:8713   */\n      dup5\n        /* \"#utility.yul\":8706:8745   */\n      add\n        /* \"#utility.yul\":8699:8745   */\n      swap2\n      pop\n        /* \"#utility.yul\":8466:8751   */\n      pop\n        /* \"#utility.yul\":8374:8751   */\n      swap3\n      swap2\n      pop\n      pop\n      jump\t// out\n        /* \"#utility.yul\":8757:9070   */\n    tag_89:\n        /* \"#utility.yul\":8870:8874   */\n      0x00\n        /* \"#utility.yul\":8908:8910   */\n      0x20\n        /* \"#utility.yul\":8897:8906   */\n      dup3\n        /* \"#utility.yul\":8893:8911   */\n      add\n        /* \"#utility.yul\":8885:8911   */\n      swap1\n      pop\n        /* \"#utility.yul\":8957:8966   */\n      dup2\n        /* \"#utility.yul\":8951:8955   */\n      dup2\n        /* \"#utility.yul\":8947:8967   */\n      sub\n        /* \"#utility.yul\":8943:8944   */\n      0x00\n        /* \"#utility.yul\":8932:8941   */\n      dup4\n        /* \"#utility.yul\":8928:8945   */\n      add\n        /* \"#utility.yul\":8921:8968   */\n      mstore\n        /* \"#utility.yul\":8985:9063   */\n      tag_409\n        /* \"#utility.yul\":9058:9062   */\n      dup2\n        /* \"#utility.yul\":9049:9055   */\n      dup5\n        /* \"#utility.yul\":8985:9063   */\n      tag_259\n      jump\t// in\n    tag_409:\n        /* \"#utility.yul\":8977:9063   */\n      swap1\n      pop\n        /* \"#utility.yul\":8757:9070   */\n      swap3\n      swap2\n      pop\n      pop\n      jump\t// out\n        /* \"#utility.yul\":9076:9166   */\n    tag_260:\n        /* \"#utility.yul\":9110:9117   */\n      0x00\n        /* \"#utility.yul\":9153:9158   */\n      dup2\n        /* \"#utility.yul\":9146:9159   */\n      iszero\n        /* \"#utility.yul\":9139:9160   */\n      iszero\n        /* \"#utility.yul\":9128:9160   */\n      swap1\n      pop\n        /* \"#utility.yul\":9076:9166   */\n      swap2\n      swap1\n      pop\n      jump\t// out\n        /* \"#utility.yul\":9172:9281   */\n    tag_261:\n        /* \"#utility.yul\":9253:9274   */\n      tag_412\n        /* \"#utility.yul\":9268:9273   */\n      dup2\n        /* \"#utility.yul\":9253:9274   */\n      tag_260\n      jump\t// in\n    tag_412:\n        /* \"#utility.yul\":9248:9251   */\n      dup3\n        /* \"#utility.yul\":9241:9275   */\n      mstore\n        /* \"#utility.yul\":9172:9281   */\n      pop\n      pop\n      jump\t// out\n        /* \"#utility.yul\":9287:9497   */\n    tag_94:\n        /* \"#utility.yul\":9374:9378   */\n      0x00\n        /* \"#utility.yul\":9412:9414   */\n      0x20\n        /* \"#utility.yul\":9401:9410   */\n      dup3\n        /* \"#utility.yul\":9397:9415   */\n      add\n        /* \"#utility.yul\":9389:9415   */\n      swap1\n      pop\n        /* \"#utility.yul\":9425:9490   */\n      tag_414\n        /* \"#utility.yul\":9487:9488   */\n      0x00\n        /* \"#utility.yul\":9476:9485   */\n      dup4\n        /* \"#utility.yul\":9472:9489   */\n      add\n        /* \"#utility.yul\":9463:9469   */\n      dup5\n        /* \"#utility.yul\":9425:9490   */\n      tag_261\n      jump\t// in\n    tag_414:\n        /* \"#utility.yul\":9287:9497   */\n      swap3\n      swap2\n      pop\n      pop\n      jump\t// out\n        /* \"#utility.yul\":9503:9933   */\n    tag_108:\n        /* \"#utility.yul\":9646:9650   */\n      0x00\n        /* \"#utility.yul\":9684:9686   */\n      0x60\n        /* \"#utility.yul\":9673:9682   */\n      dup3\n        /* \"#utility.yul\":9669:9687   */\n      add\n        /* \"#utility.yul\":9661:9687   */\n      swap1\n      pop\n        /* \"#utility.yul\":9697:9768   */\n      tag_416\n        /* \"#utility.yul\":9765:9766   */\n      0x00\n        /* \"#utility.yul\":9754:9763   */\n      dup4\n        /* \"#utility.yul\":9750:9767   */\n      add\n        /* \"#utility.yul\":9741:9747   */\n      dup7\n        /* \"#utility.yul\":9697:9768   */\n      tag_249\n      jump\t// in\n    tag_416:\n        /* \"#utility.yul\":9778:9850   */\n      tag_417\n        /* \"#utility.yul\":9846:9848   */\n      0x20\n        /* \"#utility.yul\":9835:9844   */\n      dup4\n        /* \"#utility.yul\":9831:9849   */\n      add\n        /* \"#utility.yul\":9822:9828   */\n      dup6\n        /* \"#utility.yul\":9778:9850   */\n      tag_255\n      jump\t// in\n    tag_417:\n        /* \"#utility.yul\":9860:9926   */\n      tag_418\n        /* \"#utility.yul\":9922:9924   */\n      0x40\n        /* \"#utility.yul\":9911:9920   */\n      dup4\n        /* \"#utility.yul\":9907:9925   */\n      add\n        /* \"#utility.yul\":9898:9904   */\n      dup5\n        /* \"#utility.yul\":9860:9926   */\n      tag_261\n      jump\t// in\n    tag_418:\n        /* \"#utility.yul\":9503:9933   */\n      swap5\n      swap4\n      pop\n      pop\n      pop\n      pop\n      jump\t// out\n        /* \"#utility.yul\":9939:10714   */\n    tag_121:\n        /* \"#utility.yul\":10172:10176   */\n      0x00\n        /* \"#utility.yul\":10210:10213   */\n      0xc0\n        /* \"#utility.yul\":10199:10208   */\n      dup3\n        /* \"#utility.yul\":10195:10214   */\n      add\n        /* \"#utility.yul\":10187:10214   */\n      swap1\n      pop\n        /* \"#utility.yul\":10224:10295   */\n      tag_420\n        /* \"#utility.yul\":10292:10293   */\n      0x00\n        /* \"#utility.yul\":10281:10290   */\n      dup4\n        /* \"#utility.yul\":10277:10294   */\n      add\n        /* \"#utility.yul\":10268:10274   */\n      dup10\n        /* \"#utility.yul\":10224:10295   */\n      tag_249\n      jump\t// in\n    tag_420:\n        /* \"#utility.yul\":10305:10377   */\n      tag_421\n        /* \"#utility.yul\":10373:10375   */\n      0x20\n        /* \"#utility.yul\":10362:10371   */\n      dup4\n        /* \"#utility.yul\":10358:10376   */\n      add\n        /* \"#utility.yul\":10349:10355   */\n      dup9\n        /* \"#utility.yul\":10305:10377   */\n      tag_250\n      jump\t// in\n    tag_421:\n        /* \"#utility.yul\":10387:10459   */\n      tag_422\n        /* \"#utility.yul\":10455:10457   */\n      0x40\n        /* \"#utility.yul\":10444:10453   */\n      dup4\n        /* \"#utility.yul\":10440:10458   */\n      add\n        /* \"#utility.yul\":10431:10437   */\n      dup8\n        /* \"#utility.yul\":10387:10459   */\n      tag_255\n      jump\t// in\n    tag_422:\n        /* \"#utility.yul\":10469:10541   */\n      tag_423\n        /* \"#utility.yul\":10537:10539   */\n      0x60\n        /* \"#utility.yul\":10526:10535   */\n      dup4\n        /* \"#utility.yul\":10522:10540   */\n      add\n        /* \"#utility.yul\":10513:10519   */\n      dup7\n        /* \"#utility.yul\":10469:10541   */\n      tag_250\n      jump\t// in\n    tag_423:\n        /* \"#utility.yul\":10551:10624   */\n      tag_424\n        /* \"#utility.yul\":10619:10622   */\n      0x80\n        /* \"#utility.yul\":10608:10617   */\n      dup4\n        /* \"#utility.yul\":10604:10623   */\n      add\n        /* \"#utility.yul\":10595:10601   */\n      dup6\n        /* \"#utility.yul\":10551:10624   */\n      tag_255\n      jump\t// in\n    tag_424:\n        /* \"#utility.yul\":10634:10707   */\n      tag_425\n        /* \"#utility.yul\":10702:10705   */\n      0xa0\n        /* \"#utility.yul\":10691:10700   */\n      dup4\n        /* \"#utility.yul\":10687:10706   */\n      add\n        /* \"#utility.yul\":10678:10684   */\n      dup5\n        /* \"#utility.yul\":10634:10707   */\n      tag_249\n      jump\t// in\n    tag_425:\n        /* \"#utility.yul\":9939:10714   */\n      swap8\n      swap7\n      pop\n      pop\n      pop\n      pop\n      pop\n      pop\n      pop\n      jump\t// out\n        /* \"#utility.yul\":10720:10888   */\n    tag_262:\n        /* \"#utility.yul\":10860:10880   */\n      0x436f6d6d697420706861736520656e6465640000000000000000000000000000\n        /* \"#utility.yul\":10856:10857   */\n      0x00\n        /* \"#utility.yul\":10848:10854   */\n      dup3\n        /* \"#utility.yul\":10844:10858   */\n      add\n        /* \"#utility.yul\":10837:10881   */\n      mstore\n        /* \"#utility.yul\":10720:10888   */\n      pop\n      jump\t// out\n        /* \"#utility.yul\":10894:11260   */\n    tag_263:\n        /* \"#utility.yul\":11036:11039   */\n      0x00\n        /* \"#utility.yul\":11057:11124   */\n      tag_428\n        /* \"#utility.yul\":11121:11123   */\n      0x12\n        /* \"#utility.yul\":11116:11119   */\n      dup4\n        /* \"#utility.yul\":11057:11124   */\n      tag_233\n      jump\t// in\n    tag_428:\n        /* \"#utility.yul\":11050:11124   */\n      swap2\n      pop\n        /* \"#utility.yul\":11133:11226   */\n      tag_429\n        /* \"#utility.yul\":11222:11225   */\n      dup3\n        /* \"#utility.yul\":11133:11226   */\n      tag_262\n      jump\t// in\n    tag_429:\n        /* \"#utility.yul\":11251:11253   */\n      0x20\n        /* \"#utility.yul\":11246:11249   */\n      dup3\n        /* \"#utility.yul\":11242:11254   */\n      add\n        /* \"#utility.yul\":11235:11254   */\n      swap1\n      pop\n        /* \"#utility.yul\":10894:11260   */\n      swap2\n      swap1\n      pop\n      jump\t// out\n        /* \"#utility.yul\":11266:11685   */\n    tag_125:\n        /* \"#utility.yul\":11432:11436   */\n      0x00\n        /* \"#utility.yul\":11470:11472   */\n      0x20\n        /* \"#utility.yul\":11459:11468   */\n      dup3\n        /* \"#utility.yul\":11455:11473   */\n      add\n        /* \"#utility.yul\":11447:11473   */\n      swap1\n      pop\n        /* \"#utility.yul\":11519:11528   */\n      dup2\n        /* \"#utility.yul\":11513:11517   */\n      dup2\n        /* \"#utility.yul\":11509:11529   */\n      sub\n        /* \"#utility.yul\":11505:11506   */\n      0x00\n        /* \"#utility.yul\":11494:11503   */\n      dup4\n        /* \"#utility.yul\":11490:11507   */\n      add\n        /* \"#utility.yul\":11483:11530   */\n      mstore\n        /* \"#utility.yul\":11547:11678   */\n      tag_431\n        /* \"#utility.yul\":11673:11677   */\n      dup2\n        /* \"#utility.yul\":11547:11678   */\n      tag_263\n      jump\t// in\n    tag_431:\n        /* \"#utility.yul\":11539:11678   */\n      swap1\n      pop\n        /* \"#utility.yul\":11266:11685   */\n      swap2\n      swap1\n      pop\n      jump\t// out\n        /* \"#utility.yul\":11691:11858   */\n    tag_264:\n        /* \"#utility.yul\":11831:11850   */\n      0x5369676e61747572652065787069726564000000000000000000000000000000\n        /* \"#utility.yul\":11827:11828   */\n      0x00\n        /* \"#utility.yul\":11819:11825   */\n      dup3\n        /* \"#utility.yul\":11815:11829   */\n      add\n        /* \"#utility.yul\":11808:11851   */\n      mstore\n        /* \"#utility.yul\":11691:11858   */\n      pop\n      jump\t// out\n        /* \"#utility.yul\":11864:12230   */\n    tag_265:\n        /* \"#utility.yul\":12006:12009   */\n      0x00\n        /* \"#utility.yul\":12027:12094   */\n      tag_434\n        /* \"#utility.yul\":12091:12093   */\n      0x11\n        /* \"#utility.yul\":12086:12089   */\n      dup4\n        /* \"#utility.yul\":12027:12094   */\n      tag_233\n      jump\t// in\n    tag_434:\n        /* \"#utility.yul\":12020:12094   */\n      swap2\n      pop\n        /* \"#utility.yul\":12103:12196   */\n      tag_435\n        /* \"#utility.yul\":12192:12195   */\n      dup3\n        /* \"#utility.yul\":12103:12196   */\n      tag_264\n      jump\t// in\n    tag_435:\n        /* \"#utility.yul\":12221:12223   */\n      0x20\n        /* \"#utility.yul\":12216:12219   */\n      dup3\n        /* \"#utility.yul\":12212:12224   */\n      add\n        /* \"#utility.yul\":12205:12224   */\n      swap1\n      pop\n        /* \"#utility.yul\":11864:12230   */\n      swap2\n      swap1\n      pop\n      jump\t// out\n        /* \"#utility.yul\":12236:12655   */\n    tag_128:\n        /* \"#utility.yul\":12402:12406   */\n      0x00\n        /* \"#utility.yul\":12440:12442   */\n      0x20\n        /* \"#utility.yul\":12429:12438   */\n      dup3\n        /* \"#utility.yul\":12425:12443   */\n      add\n        /* \"#utility.yul\":12417:12443   */\n      swap1\n      pop\n        /* \"#utility.yul\":12489:12498   */\n      dup2\n        /* \"#utility.yul\":12483:12487   */\n      dup2\n        /* \"#utility.yul\":12479:12499   */\n      sub\n        /* \"#utility.yul\":12475:12476   */\n      0x00\n        /* \"#utility.yul\":12464:12473   */\n      dup4\n        /* \"#utility.yul\":12460:12477   */\n      add\n        /* \"#utility.yul\":12453:12500   */\n      mstore\n        /* \"#utility.yul\":12517:12648   */\n      tag_437\n        /* \"#utility.yul\":12643:12647   */\n      dup2\n        /* \"#utility.yul\":12517:12648   */\n      tag_265\n      jump\t// in\n    tag_437:\n        /* \"#utility.yul\":12509:12648   */\n      swap1\n      pop\n        /* \"#utility.yul\":12236:12655   */\n      swap2\n      swap1\n      pop\n      jump\t// out\n        /* \"#utility.yul\":12661:12825   */\n    tag_266:\n        /* \"#utility.yul\":12801:12817   */\n      0x496e76616c696420626964646572000000000000000000000000000000000000\n        /* \"#utility.yul\":12797:12798   */\n      0x00\n        /* \"#utility.yul\":12789:12795   */\n      dup3\n        /* \"#utility.yul\":12785:12799   */\n      add\n        /* \"#utility.yul\":12778:12818   */\n      mstore\n        /* \"#utility.yul\":12661:12825   */\n      pop\n      jump\t// out\n        /* \"#utility.yul\":12831:13197   */\n    tag_267:\n        /* \"#utility.yul\":12973:12976   */\n      0x00\n        /* \"#utility.yul\":12994:13061   */\n      tag_440\n        /* \"#utility.yul\":13058:13060   */\n      0x0e\n        /* \"#utility.yul\":13053:13056   */\n      dup4\n        /* \"#utility.yul\":12994:13061   */\n      tag_233\n      jump\t// in\n    tag_440:\n        /* \"#utility.yul\":12987:13061   */\n      swap2\n      pop\n        /* \"#utility.yul\":13070:13163   */\n      tag_441\n        /* \"#utility.yul\":13159:13162   */\n      dup3\n        /* \"#utility.yul\":13070:13163   */\n      tag_266\n      jump\t// in\n    tag_441:\n        /* \"#utility.yul\":13188:13190   */\n      0x20\n        /* \"#utility.yul\":13183:13186   */\n      dup3\n        /* \"#utility.yul\":13179:13191   */\n      add\n        /* \"#utility.yul\":13172:13191   */\n      swap1\n      pop\n        /* \"#utility.yul\":12831:13197   */\n      swap2\n      swap1\n      pop\n      jump\t// out\n        /* \"#utility.yul\":13203:13622   */\n    tag_131:\n        /* \"#utility.yul\":13369:13373   */\n      0x00\n        /* \"#utility.yul\":13407:13409   */\n      0x20\n        /* \"#utility.yul\":13396:13405   */\n      dup3\n        /* \"#utility.yul\":13392:13410   */\n      add\n        /* \"#utility.yul\":13384:13410   */\n      swap1\n      pop\n        /* \"#utility.yul\":13456:13465   */\n      dup2\n        /* \"#utility.yul\":13450:13454   */\n      dup2\n        /* \"#utility.yul\":13446:13466   */\n      sub\n        /* \"#utility.yul\":13442:13443   */\n      0x00\n        /* \"#utility.yul\":13431:13440   */\n      dup4\n        /* \"#utility.yul\":13427:13444   */\n      add\n        /* \"#utility.yul\":13420:13467   */\n      mstore\n        /* \"#utility.yul\":13484:13615   */\n      tag_443\n        /* \"#utility.yul\":13610:13614   */\n      dup2\n        /* \"#utility.yul\":13484:13615   */\n      tag_267\n      jump\t// in\n    tag_443:\n        /* \"#utility.yul\":13476:13615   */\n      swap1\n      pop\n        /* \"#utility.yul\":13203:13622   */\n      swap2\n      swap1\n      pop\n      jump\t// out\n        /* \"#utility.yul\":13628:13794   */\n    tag_268:\n        /* \"#utility.yul\":13768:13786   */\n      0x456d70747920636f6d6d69746d656e7400000000000000000000000000000000\n        /* \"#utility.yul\":13764:13765   */\n      0x00\n        /* \"#utility.yul\":13756:13762   */\n      dup3\n        /* \"#utility.yul\":13752:13766   */\n      add\n        /* \"#utility.yul\":13745:13787   */\n      mstore\n        /* \"#utility.yul\":13628:13794   */\n      pop\n      jump\t// out\n        /* \"#utility.yul\":13800:14166   */\n    tag_269:\n        /* \"#utility.yul\":13942:13945   */\n      0x00\n        /* \"#utility.yul\":13963:14030   */\n      tag_446\n        /* \"#utility.yul\":14027:14029   */\n      0x10\n        /* \"#utility.yul\":14022:14025   */\n      dup4\n        /* \"#utility.yul\":13963:14030   */\n      tag_233\n      jump\t// in\n    tag_446:\n        /* \"#utility.yul\":13956:14030   */\n      swap2\n      pop\n        /* \"#utility.yul\":14039:14132   */\n      tag_447\n        /* \"#utility.yul\":14128:14131   */\n      dup3\n        /* \"#utility.yul\":14039:14132   */\n      tag_268\n      jump\t// in\n    tag_447:\n        /* \"#utility.yul\":14157:14159   */\n      0x20\n        /* \"#utility.yul\":14152:14155   */\n      dup3\n        /* \"#utility.yul\":14148:14160   */\n      add\n        /* \"#utility.yul\":14141:14160   */\n      swap1\n      pop\n        /* \"#utility.yul\":13800:14166   */\n      swap2\n      swap1\n      pop\n      jump\t// out\n        /* \"#utility.yul\":14172:14591   */\n    tag_134:\n        /* \"#utility.yul\":14338:14342   */\n      0x00\n        /* \"#utility.yul\":14376:14378   */\n      0x20\n        /* \"#utility.yul\":14365:14374   */\n      dup3\n        /* \"#utility.yul\":14361:14379   */\n      add\n        /* \"#utility.yul\":14353:14379   */\n      swap1\n      pop\n        /* \"#utility.yul\":14425:14434   */\n      dup2\n        /* \"#utility.yul\":14419:14423   */\n      dup2\n        /* \"#utility.yul\":14415:14435   */\n      sub\n        /* \"#utility.yul\":14411:14412   */\n      0x00\n        /* \"#utility.yul\":14400:14409   */\n      dup4\n        /* \"#utility.yul\":14396:14413   */\n      add\n        /* \"#utility.yul\":14389:14436   */\n      mstore\n        /* \"#utility.yul\":14453:14584   */\n      tag_449\n        /* \"#utility.yul\":14579:14583   */\n      dup2\n        /* \"#utility.yul\":14453:14584   */\n      tag_269\n      jump\t// in\n    tag_449:\n        /* \"#utility.yul\":14445:14584   */\n      swap1\n      pop\n        /* \"#utility.yul\":14172:14591   */\n      swap2\n      swap1\n      pop\n      jump\t// out\n        /* \"#utility.yul\":14597:14760   */\n    tag_270:\n        /* \"#utility.yul\":14737:14752   */\n      0x496e76616c6964206e6f6e636500000000000000000000000000000000000000\n        /* \"#utility.yul\":14733:14734   */\n      0x00\n        /* \"#utility.yul\":14725:14731   */\n      dup3\n        /* \"#utility.yul\":14721:14735   */\n      add\n        /* \"#utility.yul\":14714:14753   */\n      mstore\n        /* \"#utility.yul\":14597:14760   */\n      pop\n      jump\t// out\n        /* \"#utility.yul\":14766:15132   */\n    tag_271:\n        /* \"#utility.yul\":14908:14911   */\n      0x00\n        /* \"#utility.yul\":14929:14996   */\n      tag_452\n        /* \"#utility.yul\":14993:14995   */\n      0x0d\n        /* \"#utility.yul\":14988:14991   */\n      dup4\n        /* \"#utility.yul\":14929:14996   */\n      tag_233\n      jump\t// in\n    tag_452:\n        /* \"#utility.yul\":14922:14996   */\n      swap2\n      pop\n        /* \"#utility.yul\":15005:15098   */\n      tag_453\n        /* \"#utility.yul\":15094:15097   */\n      dup3\n        /* \"#utility.yul\":15005:15098   */\n      tag_270\n      jump\t// in\n    tag_453:\n        /* \"#utility.yul\":15123:15125   */\n      0x20\n        /* \"#utility.yul\":15118:15121   */\n      dup3\n        /* \"#utility.yul\":15114:15126   */\n      add\n        /* \"#utility.yul\":15107:15126   */\n      swap1\n      pop\n        /* \"#utility.yul\":14766:15132   */\n      swap2\n      swap1\n      pop\n      jump\t// out\n        /* \"#utility.yul\":15138:15557   */\n    tag_137:\n        /* \"#utility.yul\":15304:15308   */\n      0x00\n        /* \"#utility.yul\":15342:15344   */\n      0x20\n        /* \"#utility.yul\":15331:15340   */\n      dup3\n        /* \"#utility.yul\":15327:15345   */\n      add\n        /* \"#utility.yul\":15319:15345   */\n      swap1\n      pop\n        /* \"#utility.yul\":15391:15400   */\n      dup2\n        /* \"#utility.yul\":15385:15389   */\n      dup2\n        /* \"#utility.yul\":15381:15401   */\n      sub\n        /* \"#utility.yul\":15377:15378   */\n      0x00\n        /* \"#utility.yul\":15366:15375   */\n      dup4\n        /* \"#utility.yul\":15362:15379   */\n      add\n        /* \"#utility.yul\":15355:15402   */\n      mstore\n        /* \"#utility.yul\":15419:15550   */\n      tag_455\n        /* \"#utility.yul\":15545:15549   */\n      dup2\n        /* \"#utility.yul\":15419:15550   */\n      tag_271\n      jump\t// in\n    tag_455:\n        /* \"#utility.yul\":15411:15550   */\n      swap1\n      pop\n        /* \"#utility.yul\":15138:15557   */\n      swap2\n      swap1\n      pop\n      jump\t// out\n        /* \"#utility.yul\":15563:15730   */\n    tag_272:\n        /* \"#utility.yul\":15703:15722   */\n      0x496e76616c6964207369676e6174757265000000000000000000000000000000\n        /* \"#utility.yul\":15699:15700   */\n      0x00\n        /* \"#utility.yul\":15691:15697   */\n      dup3\n        /* \"#utility.yul\":15687:15701   */\n      add\n        /* \"#utility.yul\":15680:15723   */\n      mstore\n        /* \"#utility.yul\":15563:15730   */\n      pop\n      jump\t// out\n        /* \"#utility.yul\":15736:16102   */\n    tag_273:\n        /* \"#utility.yul\":15878:15881   */\n      0x00\n        /* \"#utility.yul\":15899:15966   */\n      tag_458\n        /* \"#utility.yul\":15963:15965   */\n      0x11\n        /* \"#utility.yul\":15958:15961   */\n      dup4\n        /* \"#utility.yul\":15899:15966   */\n      tag_233\n      jump\t// in\n    tag_458:\n        /* \"#utility.yul\":15892:15966   */\n      swap2\n      pop\n        /* \"#utility.yul\":15975:16068   */\n      tag_459\n        /* \"#utility.yul\":16064:16067   */\n      dup3\n        /* \"#utility.yul\":15975:16068   */\n      tag_272\n      jump\t// in\n    tag_459:\n        /* \"#utility.yul\":16093:16095   */\n      0x20\n        /* \"#utility.yul\":16088:16091   */\n      dup3\n        /* \"#utility.yul\":16084:16096   */\n      add\n        /* \"#utility.yul\":16077:16096   */\n      swap1\n      pop\n        /* \"#utility.yul\":15736:16102   */\n      swap2\n      swap1\n      pop\n      jump\t// out\n        /* \"#utility.yul\":16108:16527   */\n    tag_143:\n        /* \"#utility.yul\":16274:16278   */\n      0x00\n        /* \"#utility.yul\":16312:16314   */\n      0x20\n        /* \"#utility.yul\":16301:16310   */\n      dup3\n        /* \"#utility.yul\":16297:16315   */\n      add\n        /* \"#utility.yul\":16289:16315   */\n      swap1\n      pop\n        /* \"#utility.yul\":16361:16370   */\n      dup2\n        /* \"#utility.yul\":16355:16359   */\n      dup2\n        /* \"#utility.yul\":16351:16371   */\n      sub\n        /* \"#utility.yul\":16347:16348   */\n      0x00\n        /* \"#utility.yul\":16336:16345   */\n      dup4\n        /* \"#utility.yul\":16332:16349   */\n      add\n        /* \"#utility.yul\":16325:16372   */\n      mstore\n        /* \"#utility.yul\":16389:16520   */\n      tag_461\n        /* \"#utility.yul\":16515:16519   */\n      dup2\n        /* \"#utility.yul\":16389:16520   */\n      tag_273\n      jump\t// in\n    tag_461:\n        /* \"#utility.yul\":16381:16520   */\n      swap1\n      pop\n        /* \"#utility.yul\":16108:16527   */\n      swap2\n      swap1\n      pop\n      jump\t// out\n        /* \"#utility.yul\":16533:16713   */\n    tag_274:\n        /* \"#utility.yul\":16581:16658   */\n      0x4e487b7100000000000000000000000000000000000000000000000000000000\n        /* \"#utility.yul\":16578:16579   */\n      0x00\n        /* \"#utility.yul\":16571:16659   */\n      mstore\n        /* \"#utility.yul\":16678:16682   */\n      0x11\n        /* \"#utility.yul\":16675:16676   */\n      0x04\n        /* \"#utility.yul\":16668:16683   */\n      mstore\n        /* \"#utility.yul\":16702:16706   */\n      0x24\n        /* \"#utility.yul\":16699:16700   */\n      0x00\n        /* \"#utility.yul\":16692:16707   */\n      revert\n        /* \"#utility.yul\":16719:16910   */\n    tag_145:\n        /* \"#utility.yul\":16759:16762   */\n      0x00\n        /* \"#utility.yul\":16778:16798   */\n      tag_464\n        /* \"#utility.yul\":16796:16797   */\n      dup3\n        /* \"#utility.yul\":16778:16798   */\n      tag_243\n      jump\t// in\n    tag_464:\n        /* \"#utility.yul\":16773:16798   */\n      swap2\n      pop\n        /* \"#utility.yul\":16812:16832   */\n      tag_465\n        /* \"#utility.yul\":16830:16831   */\n      dup4\n        /* \"#utility.yul\":16812:16832   */\n      tag_243\n      jump\t// in\n    tag_465:\n        /* \"#utility.yul\":16807:16832   */\n      swap3\n      pop\n        /* \"#utility.yul\":16855:16856   */\n      dup3\n        /* \"#utility.yul\":16852:16853   */\n      dup3\n        /* \"#utility.yul\":16848:16857   */\n      add\n        /* \"#utility.yul\":16841:16857   */\n      swap1\n      pop\n        /* \"#utility.yul\":16876:16879   */\n      dup1\n        /* \"#utility.yul\":16873:16874   */\n      dup3\n        /* \"#utility.yul\":16870:16880   */\n      gt\n        /* \"#utility.yul\":16867:16903   */\n      iszero\n      tag_466\n      jumpi\n        /* \"#utility.yul\":16883:16901   */\n      tag_467\n      tag_274\n      jump\t// in\n    tag_467:\n        /* \"#utility.yul\":16867:16903   */\n    tag_466:\n        /* \"#utility.yul\":16719:16910   */\n      swap3\n      swap2\n      pop\n      pop\n      jump\t// out\n        /* \"#utility.yul\":16916:17913   */\n    tag_149:\n        /* \"#utility.yul\":17205:17209   */\n      0x00\n        /* \"#utility.yul\":17243:17246   */\n      0x0100\n        /* \"#utility.yul\":17232:17241   */\n      dup3\n        /* \"#utility.yul\":17228:17247   */\n      add\n        /* \"#utility.yul\":17220:17247   */\n      swap1\n      pop\n        /* \"#utility.yul\":17257:17328   */\n      tag_469\n        /* \"#utility.yul\":17325:17326   */\n      0x00\n        /* \"#utility.yul\":17314:17323   */\n      dup4\n        /* \"#utility.yul\":17310:17327   */\n      add\n        /* \"#utility.yul\":17301:17307   */\n      dup12\n        /* \"#utility.yul\":17257:17328   */\n      tag_249\n      jump\t// in\n    tag_469:\n        /* \"#utility.yul\":17338:17410   */\n      tag_470\n        /* \"#utility.yul\":17406:17408   */\n      0x20\n        /* \"#utility.yul\":17395:17404   */\n      dup4\n        /* \"#utility.yul\":17391:17409   */\n      add\n        /* \"#utility.yul\":17382:17388   */\n      dup11\n        /* \"#utility.yul\":17338:17410   */\n      tag_249\n      jump\t// in\n    tag_470:\n        /* \"#utility.yul\":17420:17492   */\n      tag_471\n        /* \"#utility.yul\":17488:17490   */\n      0x40\n        /* \"#utility.yul\":17477:17486   */\n      dup4\n        /* \"#utility.yul\":17473:17491   */\n      add\n        /* \"#utility.yul\":17464:17470   */\n      dup10\n        /* \"#utility.yul\":17420:17492   */\n      tag_250\n      jump\t// in\n    tag_471:\n        /* \"#utility.yul\":17502:17574   */\n      tag_472\n        /* \"#utility.yul\":17570:17572   */\n      0x60\n        /* \"#utility.yul\":17559:17568   */\n      dup4\n        /* \"#utility.yul\":17555:17573   */\n      add\n        /* \"#utility.yul\":17546:17552   */\n      dup9\n        /* \"#utility.yul\":17502:17574   */\n      tag_249\n      jump\t// in\n    tag_472:\n        /* \"#utility.yul\":17584:17657   */\n      tag_473\n        /* \"#utility.yul\":17652:17655   */\n      0x80\n        /* \"#utility.yul\":17641:17650   */\n      dup4\n        /* \"#utility.yul\":17637:17656   */\n      add\n        /* \"#utility.yul\":17628:17634   */\n      dup8\n        /* \"#utility.yul\":17584:17657   */\n      tag_255\n      jump\t// in\n    tag_473:\n        /* \"#utility.yul\":17667:17740   */\n      tag_474\n        /* \"#utility.yul\":17735:17738   */\n      0xa0\n        /* \"#utility.yul\":17724:17733   */\n      dup4\n        /* \"#utility.yul\":17720:17739   */\n      add\n        /* \"#utility.yul\":17711:17717   */\n      dup7\n        /* \"#utility.yul\":17667:17740   */\n      tag_255\n      jump\t// in\n    tag_474:\n        /* \"#utility.yul\":17750:17823   */\n      tag_475\n        /* \"#utility.yul\":17818:17821   */\n      0xc0\n        /* \"#utility.yul\":17807:17816   */\n      dup4\n        /* \"#utility.yul\":17803:17822   */\n      add\n        /* \"#utility.yul\":17794:17800   */\n      dup6\n        /* \"#utility.yul\":17750:17823   */\n      tag_250\n      jump\t// in\n    tag_475:\n        /* \"#utility.yul\":17833:17906   */\n      tag_476\n        /* \"#utility.yul\":17901:17904   */\n      0xe0\n        /* \"#utility.yul\":17890:17899   */\n      dup4\n        /* \"#utility.yul\":17886:17905   */\n      add\n        /* \"#utility.yul\":17877:17883   */\n      dup5\n        /* \"#utility.yul\":17833:17906   */\n      tag_255\n      jump\t// in\n    tag_476:\n        /* \"#utility.yul\":16916:17913   */\n      swap10\n      swap9\n      pop\n      pop\n      pop\n      pop\n      pop\n      pop\n      pop\n      pop\n      pop\n      jump\t// out\n        /* \"#utility.yul\":17919:18083   */\n    tag_275:\n        /* \"#utility.yul\":18059:18075   */\n      0x5265656e7472616e742063616c6c000000000000000000000000000000000000\n        /* \"#utility.yul\":18055:18056   */\n      0x00\n        /* \"#utility.yul\":18047:18053   */\n      dup3\n        /* \"#utility.yul\":18043:18057   */\n      add\n        /* \"#utility.yul\":18036:18076   */\n      mstore\n        /* \"#utility.yul\":17919:18083   */\n      pop\n      jump\t// out\n        /* \"#utility.yul\":18089:18455   */\n    tag_276:\n        /* \"#utility.yul\":18231:18234   */\n      0x00\n        /* \"#utility.yul\":18252:18319   */\n      tag_479\n        /* \"#utility.yul\":18316:18318   */\n      0x0e\n        /* \"#utility.yul\":18311:18314   */\n      dup4\n        /* \"#utility.yul\":18252:18319   */\n      tag_233\n      jump\t// in\n    tag_479:\n        /* \"#utility.yul\":18245:18319   */\n      swap2\n      pop\n        /* \"#utility.yul\":18328:18421   */\n      tag_480\n        /* \"#utility.yul\":18417:18420   */\n      dup3\n        /* \"#utility.yul\":18328:18421   */\n      tag_275\n      jump\t// in\n    tag_480:\n        /* \"#utility.yul\":18446:18448   */\n      0x20\n        /* \"#utility.yul\":18441:18444   */\n      dup3\n        /* \"#utility.yul\":18437:18449   */\n      add\n        /* \"#utility.yul\":18430:18449   */\n      swap1\n      pop\n        /* \"#utility.yul\":18089:18455   */\n      swap2\n      swap1\n      pop\n      jump\t// out\n        /* \"#utility.yul\":18461:18880   */\n    tag_153:\n        /* \"#utility.yul\":18627:18631   */\n      0x00\n        /* \"#utility.yul\":18665:18667   */\n      0x20\n        /* \"#utility.yul\":18654:18663   */\n      dup3\n        /* \"#utility.yul\":18650:18668   */\n      add\n        /* \"#utility.yul\":18642:18668   */\n      swap1\n      pop\n        /* \"#utility.yul\":18714:18723   */\n      dup2\n        /* \"#utility.yul\":18708:18712   */\n      dup2\n        /* \"#utility.yul\":18704:18724   */\n      sub\n        /* \"#utility.yul\":18700:18701   */\n      0x00\n        /* \"#utility.yul\":18689:18698   */\n      dup4\n        /* \"#utility.yul\":18685:18702   */\n      add\n        /* \"#utility.yul\":18678:18725   */\n      mstore\n        /* \"#utility.yul\":18742:18873   */\n      tag_482\n        /* \"#utility.yul\":18868:18872   */\n      dup2\n        /* \"#utility.yul\":18742:18873   */\n      tag_276\n      jump\t// in\n    tag_482:\n        /* \"#utility.yul\":18734:18873   */\n      swap1\n      pop\n        /* \"#utility.yul\":18461:18880   */\n      swap2\n      swap1\n      pop\n      jump\t// out\n        /* \"#utility.yul\":18886:19055   */\n    tag_277:\n        /* \"#utility.yul\":19026:19047   */\n      0x4e6f7468696e6720746f20776974686472617700000000000000000000000000\n        /* \"#utility.yul\":19022:19023   */\n      0x00\n        /* \"#utility.yul\":19014:19020   */\n      dup3\n        /* \"#utility.yul\":19010:19024   */\n      add\n        /* \"#utility.yul\":19003:19048   */\n      mstore\n        /* \"#utility.yul\":18886:19055   */\n      pop\n      jump\t// out\n        /* \"#utility.yul\":19061:19427   */\n    tag_278:\n        /* \"#utility.yul\":19203:19206   */\n      0x00\n        /* \"#utility.yul\":19224:19291   */\n      tag_485\n        /* \"#utility.yul\":19288:19290   */\n      0x13\n        /* \"#utility.yul\":19283:19286   */\n      dup4\n        /* \"#utility.yul\":19224:19291   */\n      tag_233\n      jump\t// in\n    tag_485:\n        /* \"#utility.yul\":19217:19291   */\n      swap2\n      pop\n        /* \"#utility.yul\":19300:19393   */\n      tag_486\n        /* \"#utility.yul\":19389:19392   */\n      dup3\n        /* \"#utility.yul\":19300:19393   */\n      tag_277\n      jump\t// in\n    tag_486:\n        /* \"#utility.yul\":19418:19420   */\n      0x20\n        /* \"#utility.yul\":19413:19416   */\n      dup3\n        /* \"#utility.yul\":19409:19421   */\n      add\n        /* \"#utility.yul\":19402:19421   */\n      swap1\n      pop\n        /* \"#utility.yul\":19061:19427   */\n      swap2\n      swap1\n      pop\n      jump\t// out\n        /* \"#utility.yul\":19433:19852   */\n    tag_156:\n        /* \"#utility.yul\":19599:19603   */\n      0x00\n        /* \"#utility.yul\":19637:19639   */\n      0x20\n        /* \"#utility.yul\":19626:19635   */\n      dup3\n        /* \"#utility.yul\":19622:19640   */\n      add\n        /* \"#utility.yul\":19614:19640   */\n      swap1\n      pop\n        /* \"#utility.yul\":19686:19695   */\n      dup2\n        /* \"#utility.yul\":19680:19684   */\n      dup2\n        /* \"#utility.yul\":19676:19696   */\n      sub\n        /* \"#utility.yul\":19672:19673   */\n      0x00\n        /* \"#utility.yul\":19661:19670   */\n      dup4\n        /* \"#utility.yul\":19657:19674   */\n      add\n        /* \"#utility.yul\":19650:19697   */\n      mstore\n        /* \"#utility.yul\":19714:19845   */\n      tag_488\n        /* \"#utility.yul\":19840:19844   */\n      dup2\n        /* \"#utility.yul\":19714:19845   */\n      tag_278\n      jump\t// in\n    tag_488:\n        /* \"#utility.yul\":19706:19845   */\n      swap1\n      pop\n        /* \"#utility.yul\":19433:19852   */\n      swap2\n      swap1\n      pop\n      jump\t// out\n        /* \"#utility.yul\":19858:20005   */\n    tag_279:\n        /* \"#utility.yul\":19959:19970   */\n      0x00\n        /* \"#utility.yul\":19996:19999   */\n      dup2\n        /* \"#utility.yul\":19981:19999   */\n      swap1\n      pop\n        /* \"#utility.yul\":19858:20005   */\n      swap3\n      swap2\n      pop\n      pop\n      jump\t// out\n        /* \"#utility.yul\":20011:20125   */\n    tag_280:\n      pop\n      jump\t// out\n        /* \"#utility.yul\":20131:20529   */\n    tag_281:\n        /* \"#utility.yul\":20290:20293   */\n      0x00\n        /* \"#utility.yul\":20311:20394   */\n      tag_492\n        /* \"#utility.yul\":20392:20393   */\n      0x00\n        /* \"#utility.yul\":20387:20390   */\n      dup4\n        /* \"#utility.yul\":20311:20394   */\n      tag_279\n      jump\t// in\n    tag_492:\n        /* \"#utility.yul\":20304:20394   */\n      swap2\n      pop\n        /* \"#utility.yul\":20403:20496   */\n      tag_493\n        /* \"#utility.yul\":20492:20495   */\n      dup3\n        /* \"#utility.yul\":20403:20496   */\n      tag_280\n      jump\t// in\n    tag_493:\n        /* \"#utility.yul\":20521:20522   */\n      0x00\n        /* \"#utility.yul\":20516:20519   */\n      dup3\n        /* \"#utility.yul\":20512:20523   */\n      add\n        /* \"#utility.yul\":20505:20523   */\n      swap1\n      pop\n        /* \"#utility.yul\":20131:20529   */\n      swap2\n      swap1\n      pop\n      jump\t// out\n        /* \"#utility.yul\":20535:20914   */\n    tag_158:\n        /* \"#utility.yul\":20719:20722   */\n      0x00\n        /* \"#utility.yul\":20741:20888   */\n      tag_495\n        /* \"#utility.yul\":20884:20887   */\n      dup3\n        /* \"#utility.yul\":20741:20888   */\n      tag_281\n      jump\t// in\n    tag_495:\n        /* \"#utility.yul\":20734:20888   */\n      swap2\n      pop\n        /* \"#utility.yul\":20905:20908   */\n      dup2\n        /* \"#utility.yul\":20898:20908   */\n      swap1\n      pop\n        /* \"#utility.yul\":20535:20914   */\n      swap2\n      swap1\n      pop\n      jump\t// out\n        /* \"#utility.yul\":20920:21089   */\n    tag_282:\n        /* \"#utility.yul\":21060:21081   */\n      0x455448207472616e73666572206661696c656400000000000000000000000000\n        /* \"#utility.yul\":21056:21057   */\n      0x00\n        /* \"#utility.yul\":21048:21054   */\n      dup3\n        /* \"#utility.yul\":21044:21058   */\n      add\n        /* \"#utility.yul\":21037:21082   */\n      mstore\n        /* \"#utility.yul\":20920:21089   */\n      pop\n      jump\t// out\n        /* \"#utility.yul\":21095:21461   */\n    tag_283:\n        /* \"#utility.yul\":21237:21240   */\n      0x00\n        /* \"#utility.yul\":21258:21325   */\n      tag_498\n        /* \"#utility.yul\":21322:21324   */\n      0x13\n        /* \"#utility.yul\":21317:21320   */\n      dup4\n        /* \"#utility.yul\":21258:21325   */\n      tag_233\n      jump\t// in\n    tag_498:\n        /* \"#utility.yul\":21251:21325   */\n      swap2\n      pop\n        /* \"#utility.yul\":21334:21427   */\n      tag_499\n        /* \"#utility.yul\":21423:21426   */\n      dup3\n        /* \"#utility.yul\":21334:21427   */\n      tag_282\n      jump\t// in\n    tag_499:\n        /* \"#utility.yul\":21452:21454   */\n      0x20\n        /* \"#utility.yul\":21447:21450   */\n      dup3\n        /* \"#utility.yul\":21443:21455   */\n      add\n        /* \"#utility.yul\":21436:21455   */\n      swap1\n      pop\n        /* \"#utility.yul\":21095:21461   */\n      swap2\n      swap1\n      pop\n      jump\t// out\n        /* \"#utility.yul\":21467:21886   */\n    tag_164:\n        /* \"#utility.yul\":21633:21637   */\n      0x00\n        /* \"#utility.yul\":21671:21673   */\n      0x20\n        /* \"#utility.yul\":21660:21669   */\n      dup3\n        /* \"#utility.yul\":21656:21674   */\n      add\n        /* \"#utility.yul\":21648:21674   */\n      swap1\n      pop\n        /* \"#utility.yul\":21720:21729   */\n      dup2\n        /* \"#utility.yul\":21714:21718   */\n      dup2\n        /* \"#utility.yul\":21710:21730   */\n      sub\n        /* \"#utility.yul\":21706:21707   */\n      0x00\n        /* \"#utility.yul\":21695:21704   */\n      dup4\n        /* \"#utility.yul\":21691:21708   */\n      add\n        /* \"#utility.yul\":21684:21731   */\n      mstore\n        /* \"#utility.yul\":21748:21879   */\n      tag_501\n        /* \"#utility.yul\":21874:21878   */\n      dup2\n        /* \"#utility.yul\":21748:21879   */\n      tag_283\n      jump\t// in\n    tag_501:\n        /* \"#utility.yul\":21740:21879   */\n      swap1\n      pop\n        /* \"#utility.yul\":21467:21886   */\n      swap2\n      swap1\n      pop\n      jump\t// out\n        /* \"#utility.yul\":21892:22064   */\n    tag_284:\n        /* \"#utility.yul\":22032:22056   */\n      0x52657665616c207068617365206e6f7420656e64656400000000000000000000\n        /* \"#utility.yul\":22028:22029   */\n      0x00\n        /* \"#utility.yul\":22020:22026   */\n      dup3\n        /* \"#utility.yul\":22016:22030   */\n      add\n        /* \"#utility.yul\":22009:22057   */\n      mstore\n        /* \"#utility.yul\":21892:22064   */\n      pop\n      jump\t// out\n        /* \"#utility.yul\":22070:22436   */\n    tag_285:\n        /* \"#utility.yul\":22212:22215   */\n      0x00\n        /* \"#utility.yul\":22233:22300   */\n      tag_504\n        /* \"#utility.yul\":22297:22299   */\n      0x16\n        /* \"#utility.yul\":22292:22295   */\n      dup4\n        /* \"#utility.yul\":22233:22300   */\n      tag_233\n      jump\t// in\n    tag_504:\n        /* \"#utility.yul\":22226:22300   */\n      swap2\n      pop\n        /* \"#utility.yul\":22309:22402   */\n      tag_505\n        /* \"#utility.yul\":22398:22401   */\n      dup3\n        /* \"#utility.yul\":22309:22402   */\n      tag_284\n      jump\t// in\n    tag_505:\n        /* \"#utility.yul\":22427:22429   */\n      0x20\n        /* \"#utility.yul\":22422:22425   */\n      dup3\n        /* \"#utility.yul\":22418:22430   */\n      add\n        /* \"#utility.yul\":22411:22430   */\n      swap1\n      pop\n        /* \"#utility.yul\":22070:22436   */\n      swap2\n      swap1\n      pop\n      jump\t// out\n        /* \"#utility.yul\":22442:22861   */\n    tag_169:\n        /* \"#utility.yul\":22608:22612   */\n      0x00\n        /* \"#utility.yul\":22646:22648   */\n      0x20\n        /* \"#utility.yul\":22635:22644   */\n      dup3\n        /* \"#utility.yul\":22631:22649   */\n      add\n        /* \"#utility.yul\":22623:22649   */\n      swap1\n      pop\n        /* \"#utility.yul\":22695:22704   */\n      dup2\n        /* \"#utility.yul\":22689:22693   */\n      dup2\n        /* \"#utility.yul\":22685:22705   */\n      sub\n        /* \"#utility.yul\":22681:22682   */\n      0x00\n        /* \"#utility.yul\":22670:22679   */\n      dup4\n        /* \"#utility.yul\":22666:22683   */\n      add\n        /* \"#utility.yul\":22659:22706   */\n      mstore\n        /* \"#utility.yul\":22723:22854   */\n      tag_507\n        /* \"#utility.yul\":22849:22853   */\n      dup2\n        /* \"#utility.yul\":22723:22854   */\n      tag_285\n      jump\t// in\n    tag_507:\n        /* \"#utility.yul\":22715:22854   */\n      swap1\n      pop\n        /* \"#utility.yul\":22442:22861   */\n      swap2\n      swap1\n      pop\n      jump\t// out\n        /* \"#utility.yul\":22867:23034   */\n    tag_286:\n        /* \"#utility.yul\":23007:23026   */\n      0x416c72656164792066696e616c697a6564000000000000000000000000000000\n        /* \"#utility.yul\":23003:23004   */\n      0x00\n        /* \"#utility.yul\":22995:23001   */\n      dup3\n        /* \"#utility.yul\":22991:23005   */\n      add\n        /* \"#utility.yul\":22984:23027   */\n      mstore\n        /* \"#utility.yul\":22867:23034   */\n      pop\n      jump\t// out\n        /* \"#utility.yul\":23040:23406   */\n    tag_287:\n        /* \"#utility.yul\":23182:23185   */\n      0x00\n        /* \"#utility.yul\":23203:23270   */\n      tag_510\n        /* \"#utility.yul\":23267:23269   */\n      0x11\n        /* \"#utility.yul\":23262:23265   */\n      dup4\n        /* \"#utility.yul\":23203:23270   */\n      tag_233\n      jump\t// in\n    tag_510:\n        /* \"#utility.yul\":23196:23270   */\n      swap2\n      pop\n        /* \"#utility.yul\":23279:23372   */\n      tag_511\n        /* \"#utility.yul\":23368:23371   */\n      dup3\n        /* \"#utility.yul\":23279:23372   */\n      tag_286\n      jump\t// in\n    tag_511:\n        /* \"#utility.yul\":23397:23399   */\n      0x20\n        /* \"#utility.yul\":23392:23395   */\n      dup3\n        /* \"#utility.yul\":23388:23400   */\n      add\n        /* \"#utility.yul\":23381:23400   */\n      swap1\n      pop\n        /* \"#utility.yul\":23040:23406   */\n      swap2\n      swap1\n      pop\n      jump\t// out\n        /* \"#utility.yul\":23412:23831   */\n    tag_172:\n        /* \"#utility.yul\":23578:23582   */\n      0x00\n        /* \"#utility.yul\":23616:23618   */\n      0x20\n        /* \"#utility.yul\":23605:23614   */\n      dup3\n        /* \"#utility.yul\":23601:23619   */\n      add\n        /* \"#utility.yul\":23593:23619   */\n      swap1\n      pop\n        /* \"#utility.yul\":23665:23674   */\n      dup2\n        /* \"#utility.yul\":23659:23663   */\n      dup2\n        /* \"#utility.yul\":23655:23675   */\n      sub\n        /* \"#utility.yul\":23651:23652   */\n      0x00\n        /* \"#utility.yul\":23640:23649   */\n      dup4\n        /* \"#utility.yul\":23636:23653   */\n      add\n        /* \"#utility.yul\":23629:23676   */\n      mstore\n        /* \"#utility.yul\":23693:23824   */\n      tag_513\n        /* \"#utility.yul\":23819:23823   */\n      dup2\n        /* \"#utility.yul\":23693:23824   */\n      tag_287\n      jump\t// in\n    tag_513:\n        /* \"#utility.yul\":23685:23824   */\n      swap1\n      pop\n        /* \"#utility.yul\":23412:23831   */\n      swap2\n      swap1\n      pop\n      jump\t// out\n        /* \"#utility.yul\":23837:24011   */\n    tag_288:\n        /* \"#utility.yul\":23977:24003   */\n      0x52657665616c207068617365206e6f7420737461727465640000000000000000\n        /* \"#utility.yul\":23973:23974   */\n      0x00\n        /* \"#utility.yul\":23965:23971   */\n      dup3\n        /* \"#utility.yul\":23961:23975   */\n      add\n        /* \"#utility.yul\":23954:24004   */\n      mstore\n        /* \"#utility.yul\":23837:24011   */\n      pop\n      jump\t// out\n        /* \"#utility.yul\":24017:24383   */\n    tag_289:\n        /* \"#utility.yul\":24159:24162   */\n      0x00\n        /* \"#utility.yul\":24180:24247   */\n      tag_516\n        /* \"#utility.yul\":24244:24246   */\n      0x18\n        /* \"#utility.yul\":24239:24242   */\n      dup4\n        /* \"#utility.yul\":24180:24247   */\n      tag_233\n      jump\t// in\n    tag_516:\n        /* \"#utility.yul\":24173:24247   */\n      swap2\n      pop\n        /* \"#utility.yul\":24256:24349   */\n      tag_517\n        /* \"#utility.yul\":24345:24348   */\n      dup3\n        /* \"#utility.yul\":24256:24349   */\n      tag_288\n      jump\t// in\n    tag_517:\n        /* \"#utility.yul\":24374:24376   */\n      0x20\n        /* \"#utility.yul\":24369:24372   */\n      dup3\n        /* \"#utility.yul\":24365:24377   */\n      add\n        /* \"#utility.yul\":24358:24377   */\n      swap1\n      pop\n        /* \"#utility.yul\":24017:24383   */\n      swap2\n      swap1\n      pop\n      jump\t// out\n        /* \"#utility.yul\":24389:24808   */\n    tag_179:\n        /* \"#utility.yul\":24555:24559   */\n      0x00\n        /* \"#utility.yul\":24593:24595   */\n      0x20\n        /* \"#utility.yul\":24582:24591   */\n      dup3\n        /* \"#utility.yul\":24578:24596   */\n      add\n        /* \"#utility.yul\":24570:24596   */\n      swap1\n      pop\n        /* \"#utility.yul\":24642:24651   */\n      dup2\n        /* \"#utility.yul\":24636:24640   */\n      dup2\n        /* \"#utility.yul\":24632:24652   */\n      sub\n        /* \"#utility.yul\":24628:24629   */\n      0x00\n        /* \"#utility.yul\":24617:24626   */\n      dup4\n        /* \"#utility.yul\":24613:24630   */\n      add\n        /* \"#utility.yul\":24606:24653   */\n      mstore\n        /* \"#utility.yul\":24670:24801   */\n      tag_519\n        /* \"#utility.yul\":24796:24800   */\n      dup2\n        /* \"#utility.yul\":24670:24801   */\n      tag_289\n      jump\t// in\n    tag_519:\n        /* \"#utility.yul\":24662:24801   */\n      swap1\n      pop\n        /* \"#utility.yul\":24389:24808   */\n      swap2\n      swap1\n      pop\n      jump\t// out\n        /* \"#utility.yul\":24814:24982   */\n    tag_290:\n        /* \"#utility.yul\":24954:24974   */\n      0x52657665616c20706861736520656e6465640000000000000000000000000000\n        /* \"#utility.yul\":24950:24951   */\n      0x00\n        /* \"#utility.yul\":24942:24948   */\n      dup3\n        /* \"#utility.yul\":24938:24952   */\n      add\n        /* \"#utility.yul\":24931:24975   */\n      mstore\n        /* \"#utility.yul\":24814:24982   */\n      pop\n      jump\t// out\n        /* \"#utility.yul\":24988:25354   */\n    tag_291:\n        /* \"#utility.yul\":25130:25133   */\n      0x00\n        /* \"#utility.yul\":25151:25218   */\n      tag_522\n        /* \"#utility.yul\":25215:25217   */\n      0x12\n        /* \"#utility.yul\":25210:25213   */\n      dup4\n        /* \"#utility.yul\":25151:25218   */\n      tag_233\n      jump\t// in\n    tag_522:\n        /* \"#utility.yul\":25144:25218   */\n      swap2\n      pop\n        /* \"#utility.yul\":25227:25320   */\n      tag_523\n        /* \"#utility.yul\":25316:25319   */\n      dup3\n        /* \"#utility.yul\":25227:25320   */\n      tag_290\n      jump\t// in\n    tag_523:\n        /* \"#utility.yul\":25345:25347   */\n      0x20\n        /* \"#utility.yul\":25340:25343   */\n      dup3\n        /* \"#utility.yul\":25336:25348   */\n      add\n        /* \"#utility.yul\":25329:25348   */\n      swap1\n      pop\n        /* \"#utility.yul\":24988:25354   */\n      swap2\n      swap1\n      pop\n      jump\t// out\n        /* \"#utility.yul\":25360:25779   */\n    tag_182:\n        /* \"#utility.yul\":25526:25530   */\n      0x00\n        /* \"#utility.yul\":25564:25566   */\n      0x20\n        /* \"#utility.yul\":25553:25562   */\n      dup3\n        /* \"#utility.yul\":25549:25567   */\n      add\n        /* \"#utility.yul\":25541:25567   */\n      swap1\n      pop\n        /* \"#utility.yul\":25613:25622   */\n      dup2\n        /* \"#utility.yul\":25607:25611   */\n      dup2\n        /* \"#utility.yul\":25603:25623   */\n      sub\n        /* \"#utility.yul\":25599:25600   */\n      0x00\n        /* \"#utility.yul\":25588:25597   */\n      dup4\n        /* \"#utility.yul\":25584:25601   */\n      add\n        /* \"#utility.yul\":25577:25624   */\n      mstore\n        /* \"#utility.yul\":25641:25772   */\n      tag_525\n        /* \"#utility.yul\":25767:25771   */\n      dup2\n        /* \"#utility.yul\":25641:25772   */\n      tag_291\n      jump\t// in\n    tag_525:\n        /* \"#utility.yul\":25633:25772   */\n      swap1\n      pop\n        /* \"#utility.yul\":25360:25779   */\n      swap2\n      swap1\n      pop\n      jump\t// out\n        /* \"#utility.yul\":25785:25951   */\n    tag_292:\n        /* \"#utility.yul\":25925:25943   */\n      0x57726f6e672045544820616d6f756e7400000000000000000000000000000000\n        /* \"#utility.yul\":25921:25922   */\n      0x00\n        /* \"#utility.yul\":25913:25919   */\n      dup3\n        /* \"#utility.yul\":25909:25923   */\n      add\n        /* \"#utility.yul\":25902:25944   */\n      mstore\n        /* \"#utility.yul\":25785:25951   */\n      pop\n      jump\t// out\n        /* \"#utility.yul\":25957:26323   */\n    tag_293:\n        /* \"#utility.yul\":26099:26102   */\n      0x00\n        /* \"#utility.yul\":26120:26187   */\n      tag_528\n        /* \"#utility.yul\":26184:26186   */\n      0x10\n        /* \"#utility.yul\":26179:26182   */\n      dup4\n        /* \"#utility.yul\":26120:26187   */\n      tag_233\n      jump\t// in\n    tag_528:\n        /* \"#utility.yul\":26113:26187   */\n      swap2\n      pop\n        /* \"#utility.yul\":26196:26289   */\n      tag_529\n        /* \"#utility.yul\":26285:26288   */\n      dup3\n        /* \"#utility.yul\":26196:26289   */\n      tag_292\n      jump\t// in\n    tag_529:\n        /* \"#utility.yul\":26314:26316   */\n      0x20\n        /* \"#utility.yul\":26309:26312   */\n      dup3\n        /* \"#utility.yul\":26305:26317   */\n      add\n        /* \"#utility.yul\":26298:26317   */\n      swap1\n      pop\n        /* \"#utility.yul\":25957:26323   */\n      swap2\n      swap1\n      pop\n      jump\t// out\n        /* \"#utility.yul\":26329:26748   */\n    tag_185:\n        /* \"#utility.yul\":26495:26499   */\n      0x00\n        /* \"#utility.yul\":26533:26535   */\n      0x20\n        /* \"#utility.yul\":26522:26531   */\n      dup3\n        /* \"#utility.yul\":26518:26536   */\n      add\n        /* \"#utility.yul\":26510:26536   */\n      swap1\n      pop\n        /* \"#utility.yul\":26582:26591   */\n      dup2\n        /* \"#utility.yul\":26576:26580   */\n      dup2\n        /* \"#utility.yul\":26572:26592   */\n      sub\n        /* \"#utility.yul\":26568:26569   */\n      0x00\n        /* \"#utility.yul\":26557:26566   */\n      dup4\n        /* \"#utility.yul\":26553:26570   */\n      add\n        /* \"#utility.yul\":26546:26593   */\n      mstore\n        /* \"#utility.yul\":26610:26741   */\n      tag_531\n        /* \"#utility.yul\":26736:26740   */\n      dup2\n        /* \"#utility.yul\":26610:26741   */\n      tag_293\n      jump\t// in\n    tag_531:\n        /* \"#utility.yul\":26602:26741   */\n      swap1\n      pop\n        /* \"#utility.yul\":26329:26748   */\n      swap2\n      swap1\n      pop\n      jump\t// out\n        /* \"#utility.yul\":26754:26917   */\n    tag_294:\n        /* \"#utility.yul\":26894:26909   */\n      0x4e6f20636f6d6d69746d656e7400000000000000000000000000000000000000\n        /* \"#utility.yul\":26890:26891   */\n      0x00\n        /* \"#utility.yul\":26882:26888   */\n      dup3\n        /* \"#utility.yul\":26878:26892   */\n      add\n        /* \"#utility.yul\":26871:26910   */\n      mstore\n        /* \"#utility.yul\":26754:26917   */\n      pop\n      jump\t// out\n        /* \"#utility.yul\":26923:27289   */\n    tag_295:\n        /* \"#utility.yul\":27065:27068   */\n      0x00\n        /* \"#utility.yul\":27086:27153   */\n      tag_534\n        /* \"#utility.yul\":27150:27152   */\n      0x0d\n        /* \"#utility.yul\":27145:27148   */\n      dup4\n        /* \"#utility.yul\":27086:27153   */\n      tag_233\n      jump\t// in\n    tag_534:\n        /* \"#utility.yul\":27079:27153   */\n      swap2\n      pop\n        /* \"#utility.yul\":27162:27255   */\n      tag_535\n        /* \"#utility.yul\":27251:27254   */\n      dup3\n        /* \"#utility.yul\":27162:27255   */\n      tag_294\n      jump\t// in\n    tag_535:\n        /* \"#utility.yul\":27280:27282   */\n      0x20\n        /* \"#utility.yul\":27275:27278   */\n      dup3\n        /* \"#utility.yul\":27271:27283   */\n      add\n        /* \"#utility.yul\":27264:27283   */\n      swap1\n      pop\n        /* \"#utility.yul\":26923:27289   */\n      swap2\n      swap1\n      pop\n      jump\t// out\n        /* \"#utility.yul\":27295:27714   */\n    tag_188:\n        /* \"#utility.yul\":27461:27465   */\n      0x00\n        /* \"#utility.yul\":27499:27501   */\n      0x20\n        /* \"#utility.yul\":27488:27497   */\n      dup3\n        /* \"#utility.yul\":27484:27502   */\n      add\n        /* \"#utility.yul\":27476:27502   */\n      swap1\n      pop\n        /* \"#utility.yul\":27548:27557   */\n      dup2\n        /* \"#utility.yul\":27542:27546   */\n      dup2\n        /* \"#utility.yul\":27538:27558   */\n      sub\n        /* \"#utility.yul\":27534:27535   */\n      0x00\n        /* \"#utility.yul\":27523:27532   */\n      dup4\n        /* \"#utility.yul\":27519:27536   */\n      add\n        /* \"#utility.yul\":27512:27559   */\n      mstore\n        /* \"#utility.yul\":27576:27707   */\n      tag_537\n        /* \"#utility.yul\":27702:27706   */\n      dup2\n        /* \"#utility.yul\":27576:27707   */\n      tag_295\n      jump\t// in\n    tag_537:\n        /* \"#utility.yul\":27568:27707   */\n      swap1\n      pop\n        /* \"#utility.yul\":27295:27714   */\n      swap2\n      swap1\n      pop\n      jump\t// out\n        /* \"#utility.yul\":27720:27886   */\n    tag_296:\n        /* \"#utility.yul\":27860:27878   */\n      0x416c72656164792072657665616c656400000000000000000000000000000000\n        /* \"#utility.yul\":27856:27857   */\n      0x00\n        /* \"#utility.yul\":27848:27854   */\n      dup3\n        /* \"#utility.yul\":27844:27858   */\n      add\n        /* \"#utility.yul\":27837:27879   */\n      mstore\n        /* \"#utility.yul\":27720:27886   */\n      pop\n      jump\t// out\n        /* \"#utility.yul\":27892:28258   */\n    tag_297:\n        /* \"#utility.yul\":28034:28037   */\n      0x00\n        /* \"#utility.yul\":28055:28122   */\n      tag_540\n        /* \"#utility.yul\":28119:28121   */\n      0x10\n        /* \"#utility.yul\":28114:28117   */\n      dup4\n        /* \"#utility.yul\":28055:28122   */\n      tag_233\n      jump\t// in\n    tag_540:\n        /* \"#utility.yul\":28048:28122   */\n      swap2\n      pop\n        /* \"#utility.yul\":28131:28224   */\n      tag_541\n        /* \"#utility.yul\":28220:28223   */\n      dup3\n        /* \"#utility.yul\":28131:28224   */\n      tag_296\n      jump\t// in\n    tag_541:\n        /* \"#utility.yul\":28249:28251   */\n      0x20\n        /* \"#utility.yul\":28244:28247   */\n      dup3\n        /* \"#utility.yul\":28240:28252   */\n      add\n        /* \"#utility.yul\":28233:28252   */\n      swap1\n      pop\n        /* \"#utility.yul\":27892:28258   */\n      swap2\n      swap1\n      pop\n      jump\t// out\n        /* \"#utility.yul\":28264:28683   */\n    tag_191:\n        /* \"#utility.yul\":28430:28434   */\n      0x00\n        /* \"#utility.yul\":28468:28470   */\n      0x20\n        /* \"#utility.yul\":28457:28466   */\n      dup3\n        /* \"#utility.yul\":28453:28471   */\n      add\n        /* \"#utility.yul\":28445:28471   */\n      swap1\n      pop\n        /* \"#utility.yul\":28517:28526   */\n      dup2\n        /* \"#utility.yul\":28511:28515   */\n      dup2\n        /* \"#utility.yul\":28507:28527   */\n      sub\n        /* \"#utility.yul\":28503:28504   */\n      0x00\n        /* \"#utility.yul\":28492:28501   */\n      dup4\n        /* \"#utility.yul\":28488:28505   */\n      add\n        /* \"#utility.yul\":28481:28528   */\n      mstore\n        /* \"#utility.yul\":28545:28676   */\n      tag_543\n        /* \"#utility.yul\":28671:28675   */\n      dup2\n        /* \"#utility.yul\":28545:28676   */\n      tag_297\n      jump\t// in\n    tag_543:\n        /* \"#utility.yul\":28537:28676   */\n      swap1\n      pop\n        /* \"#utility.yul\":28264:28683   */\n      swap2\n      swap1\n      pop\n      jump\t// out\n        /* \"#utility.yul\":28689:28858   */\n    tag_298:\n        /* \"#utility.yul\":28829:28850   */\n      0x436f6d6d69746d656e74206d69736d6174636800000000000000000000000000\n        /* \"#utility.yul\":28825:28826   */\n      0x00\n        /* \"#utility.yul\":28817:28823   */\n      dup3\n        /* \"#utility.yul\":28813:28827   */\n      add\n        /* \"#utility.yul\":28806:28851   */\n      mstore\n        /* \"#utility.yul\":28689:28858   */\n      pop\n      jump\t// out\n        /* \"#utility.yul\":28864:29230   */\n    tag_299:\n        /* \"#utility.yul\":29006:29009   */\n      0x00\n        /* \"#utility.yul\":29027:29094   */\n      tag_546\n        /* \"#utility.yul\":29091:29093   */\n      0x13\n        /* \"#utility.yul\":29086:29089   */\n      dup4\n        /* \"#utility.yul\":29027:29094   */\n      tag_233\n      jump\t// in\n    tag_546:\n        /* \"#utility.yul\":29020:29094   */\n      swap2\n      pop\n        /* \"#utility.yul\":29103:29196   */\n      tag_547\n        /* \"#utility.yul\":29192:29195   */\n      dup3\n        /* \"#utility.yul\":29103:29196   */\n      tag_298\n      jump\t// in\n    tag_547:\n        /* \"#utility.yul\":29221:29223   */\n      0x20\n        /* \"#utility.yul\":29216:29219   */\n      dup3\n        /* \"#utility.yul\":29212:29224   */\n      add\n        /* \"#utility.yul\":29205:29224   */\n      swap1\n      pop\n        /* \"#utility.yul\":28864:29230   */\n      swap2\n      swap1\n      pop\n      jump\t// out\n        /* \"#utility.yul\":29236:29655   */\n    tag_195:\n        /* \"#utility.yul\":29402:29406   */\n      0x00\n        /* \"#utility.yul\":29440:29442   */\n      0x20\n        /* \"#utility.yul\":29429:29438   */\n      dup3\n        /* \"#utility.yul\":29425:29443   */\n      add\n        /* \"#utility.yul\":29417:29443   */\n      swap1\n      pop\n        /* \"#utility.yul\":29489:29498   */\n      dup2\n        /* \"#utility.yul\":29483:29487   */\n      dup2\n        /* \"#utility.yul\":29479:29499   */\n      sub\n        /* \"#utility.yul\":29475:29476   */\n      0x00\n        /* \"#utility.yul\":29464:29473   */\n      dup4\n        /* \"#utility.yul\":29460:29477   */\n      add\n        /* \"#utility.yul\":29453:29500   */\n      mstore\n        /* \"#utility.yul\":29517:29648   */\n      tag_549\n        /* \"#utility.yul\":29643:29647   */\n      dup2\n        /* \"#utility.yul\":29517:29648   */\n      tag_299\n      jump\t// in\n    tag_549:\n        /* \"#utility.yul\":29509:29648   */\n      swap1\n      pop\n        /* \"#utility.yul\":29236:29655   */\n      swap2\n      swap1\n      pop\n      jump\t// out\n        /* \"#utility.yul\":29661:29981   */\n    tag_202:\n        /* \"#utility.yul\":29776:29780   */\n      0x00\n        /* \"#utility.yul\":29814:29816   */\n      0x40\n        /* \"#utility.yul\":29803:29812   */\n      dup3\n        /* \"#utility.yul\":29799:29817   */\n      add\n        /* \"#utility.yul\":29791:29817   */\n      swap1\n      pop\n        /* \"#utility.yul\":29827:29898   */\n      tag_551\n        /* \"#utility.yul\":29895:29896   */\n      0x00\n        /* \"#utility.yul\":29884:29893   */\n      dup4\n        /* \"#utility.yul\":29880:29897   */\n      add\n        /* \"#utility.yul\":29871:29877   */\n      dup6\n        /* \"#utility.yul\":29827:29898   */\n      tag_255\n      jump\t// in\n    tag_551:\n        /* \"#utility.yul\":29908:29974   */\n      tag_552\n        /* \"#utility.yul\":29970:29972   */\n      0x20\n        /* \"#utility.yul\":29959:29968   */\n      dup4\n        /* \"#utility.yul\":29955:29973   */\n      add\n        /* \"#utility.yul\":29946:29952   */\n      dup5\n        /* \"#utility.yul\":29908:29974   */\n      tag_261\n      jump\t// in\n    tag_552:\n        /* \"#utility.yul\":29661:29981   */\n      swap4\n      swap3\n      pop\n      pop\n      pop\n      jump\t// out\n        /* \"#utility.yul\":29987:30135   */\n    tag_300:\n        /* \"#utility.yul\":30089:30100   */\n      0x00\n        /* \"#utility.yul\":30126:30129   */\n      dup2\n        /* \"#utility.yul\":30111:30129   */\n      swap1\n      pop\n        /* \"#utility.yul\":29987:30135   */\n      swap3\n      swap2\n      pop\n      pop\n      jump\t// out\n        /* \"#utility.yul\":30141:30355   */\n    tag_301:\n        /* \"#utility.yul\":30281:30347   */\n      0x19457468657265756d205369676e6564204d6573736167653a0a333200000000\n        /* \"#utility.yul\":30277:30278   */\n      0x00\n        /* \"#utility.yul\":30269:30275   */\n      dup3\n        /* \"#utility.yul\":30265:30279   */\n      add\n        /* \"#utility.yul\":30258:30348   */\n      mstore\n        /* \"#utility.yul\":30141:30355   */\n      pop\n      jump\t// out\n        /* \"#utility.yul\":30361:30763   */\n    tag_302:\n        /* \"#utility.yul\":30521:30524   */\n      0x00\n        /* \"#utility.yul\":30542:30627   */\n      tag_556\n        /* \"#utility.yul\":30624:30626   */\n      0x1c\n        /* \"#utility.yul\":30619:30622   */\n      dup4\n        /* \"#utility.yul\":30542:30627   */\n      tag_300\n      jump\t// in\n    tag_556:\n        /* \"#utility.yul\":30535:30627   */\n      swap2\n      pop\n        /* \"#utility.yul\":30636:30729   */\n      tag_557\n        /* \"#utility.yul\":30725:30728   */\n      dup3\n        /* \"#utility.yul\":30636:30729   */\n      tag_301\n      jump\t// in\n    tag_557:\n        /* \"#utility.yul\":30754:30756   */\n      0x1c\n        /* \"#utility.yul\":30749:30752   */\n      dup3\n        /* \"#utility.yul\":30745:30757   */\n      add\n        /* \"#utility.yul\":30738:30757   */\n      swap1\n      pop\n        /* \"#utility.yul\":30361:30763   */\n      swap2\n      swap1\n      pop\n      jump\t// out\n        /* \"#utility.yul\":30769:30848   */\n    tag_303:\n        /* \"#utility.yul\":30808:30815   */\n      0x00\n        /* \"#utility.yul\":30837:30842   */\n      dup2\n        /* \"#utility.yul\":30826:30842   */\n      swap1\n      pop\n        /* \"#utility.yul\":30769:30848   */\n      swap2\n      swap1\n      pop\n      jump\t// out\n        /* \"#utility.yul\":30854:31011   */\n    tag_304:\n        /* \"#utility.yul\":30959:31004   */\n      tag_560\n        /* \"#utility.yul\":30979:31003   */\n      tag_561\n        /* \"#utility.yul\":30997:31002   */\n      dup3\n        /* \"#utility.yul\":30979:31003   */\n      tag_246\n      jump\t// in\n    tag_561:\n        /* \"#utility.yul\":30959:31004   */\n      tag_303\n      jump\t// in\n    tag_560:\n        /* \"#utility.yul\":30954:30957   */\n      dup3\n        /* \"#utility.yul\":30947:31005   */\n      mstore\n        /* \"#utility.yul\":30854:31011   */\n      pop\n      pop\n      jump\t// out\n        /* \"#utility.yul\":31017:31539   */\n    tag_210:\n        /* \"#utility.yul\":31230:31233   */\n      0x00\n        /* \"#utility.yul\":31252:31400   */\n      tag_563\n        /* \"#utility.yul\":31396:31399   */\n      dup3\n        /* \"#utility.yul\":31252:31400   */\n      tag_302\n      jump\t// in\n    tag_563:\n        /* \"#utility.yul\":31245:31400   */\n      swap2\n      pop\n        /* \"#utility.yul\":31410:31485   */\n      tag_564\n        /* \"#utility.yul\":31481:31484   */\n      dup3\n        /* \"#utility.yul\":31472:31478   */\n      dup5\n        /* \"#utility.yul\":31410:31485   */\n      tag_304\n      jump\t// in\n    tag_564:\n        /* \"#utility.yul\":31510:31512   */\n      0x20\n        /* \"#utility.yul\":31505:31508   */\n      dup3\n        /* \"#utility.yul\":31501:31513   */\n      add\n        /* \"#utility.yul\":31494:31513   */\n      swap2\n      pop\n        /* \"#utility.yul\":31530:31533   */\n      dup2\n        /* \"#utility.yul\":31523:31533   */\n      swap1\n      pop\n        /* \"#utility.yul\":31017:31539   */\n      swap3\n      swap2\n      pop\n      pop\n      jump\t// out\n        /* \"#utility.yul\":31545:31721   */\n    tag_305:\n        /* \"#utility.yul\":31685:31713   */\n      0x5369676e6174757265206d757374206265203635206279746573000000000000\n        /* \"#utility.yul\":31681:31682   */\n      0x00\n        /* \"#utility.yul\":31673:31679   */\n      dup3\n        /* \"#utility.yul\":31669:31683   */\n      add\n        /* \"#utility.yul\":31662:31714   */\n      mstore\n        /* \"#utility.yul\":31545:31721   */\n      pop\n      jump\t// out\n        /* \"#utility.yul\":31727:32093   */\n    tag_306:\n        /* \"#utility.yul\":31869:31872   */\n      0x00\n        /* \"#utility.yul\":31890:31957   */\n      tag_567\n        /* \"#utility.yul\":31954:31956   */\n      0x1a\n        /* \"#utility.yul\":31949:31952   */\n      dup4\n        /* \"#utility.yul\":31890:31957   */\n      tag_233\n      jump\t// in\n    tag_567:\n        /* \"#utility.yul\":31883:31957   */\n      swap2\n      pop\n        /* \"#utility.yul\":31966:32059   */\n      tag_568\n        /* \"#utility.yul\":32055:32058   */\n      dup3\n        /* \"#utility.yul\":31966:32059   */\n      tag_305\n      jump\t// in\n    tag_568:\n        /* \"#utility.yul\":32084:32086   */\n      0x20\n        /* \"#utility.yul\":32079:32082   */\n      dup3\n        /* \"#utility.yul\":32075:32087   */\n      add\n        /* \"#utility.yul\":32068:32087   */\n      swap1\n      pop\n        /* \"#utility.yul\":31727:32093   */\n      swap2\n      swap1\n      pop\n      jump\t// out\n        /* \"#utility.yul\":32099:32518   */\n    tag_214:\n        /* \"#utility.yul\":32265:32269   */\n      0x00\n        /* \"#utility.yul\":32303:32305   */\n      0x20\n        /* \"#utility.yul\":32292:32301   */\n      dup3\n        /* \"#utility.yul\":32288:32306   */\n      add\n        /* \"#utility.yul\":32280:32306   */\n      swap1\n      pop\n        /* \"#utility.yul\":32352:32361   */\n      dup2\n        /* \"#utility.yul\":32346:32350   */\n      dup2\n        /* \"#utility.yul\":32342:32362   */\n      sub\n        /* \"#utility.yul\":32338:32339   */\n      0x00\n        /* \"#utility.yul\":32327:32336   */\n      dup4\n        /* \"#utility.yul\":32323:32340   */\n      add\n        /* \"#utility.yul\":32316:32363   */\n      mstore\n        /* \"#utility.yul\":32380:32511   */\n      tag_570\n        /* \"#utility.yul\":32506:32510   */\n      dup2\n        /* \"#utility.yul\":32380:32511   */\n      tag_306\n      jump\t// in\n    tag_570:\n        /* \"#utility.yul\":32372:32511   */\n      swap1\n      pop\n        /* \"#utility.yul\":32099:32518   */\n      swap2\n      swap1\n      pop\n      jump\t// out\n        /* \"#utility.yul\":32524:32610   */\n    tag_307:\n        /* \"#utility.yul\":32559:32566   */\n      0x00\n        /* \"#utility.yul\":32599:32603   */\n      0xff\n        /* \"#utility.yul\":32592:32597   */\n      dup3\n        /* \"#utility.yul\":32588:32604   */\n      and\n        /* \"#utility.yul\":32577:32604   */\n      swap1\n      pop\n        /* \"#utility.yul\":32524:32610   */\n      swap2\n      swap1\n      pop\n      jump\t// out\n        /* \"#utility.yul\":32616:32804   */\n    tag_217:\n        /* \"#utility.yul\":32654:32657   */\n      0x00\n        /* \"#utility.yul\":32673:32691   */\n      tag_573\n        /* \"#utility.yul\":32689:32690   */\n      dup3\n        /* \"#utility.yul\":32673:32691   */\n      tag_307\n      jump\t// in\n    tag_573:\n        /* \"#utility.yul\":32668:32691   */\n      swap2\n      pop\n        /* \"#utility.yul\":32705:32723   */\n      tag_574\n        /* \"#utility.yul\":32721:32722   */\n      dup4\n        /* \"#utility.yul\":32705:32723   */\n      tag_307\n      jump\t// in\n    tag_574:\n        /* \"#utility.yul\":32700:32723   */\n      swap3\n      pop\n        /* \"#utility.yul\":32746:32747   */\n      dup3\n        /* \"#utility.yul\":32743:32744   */\n      dup3\n        /* \"#utility.yul\":32739:32748   */\n      add\n        /* \"#utility.yul\":32732:32748   */\n      swap1\n      pop\n        /* \"#utility.yul\":32769:32773   */\n      0xff\n        /* \"#utility.yul\":32764:32767   */\n      dup2\n        /* \"#utility.yul\":32761:32774   */\n      gt\n        /* \"#utility.yul\":32758:32797   */\n      iszero\n      tag_575\n      jumpi\n        /* \"#utility.yul\":32777:32795   */\n      tag_576\n      tag_274\n      jump\t// in\n    tag_576:\n        /* \"#utility.yul\":32758:32797   */\n    tag_575:\n        /* \"#utility.yul\":32616:32804   */\n      swap3\n      swap2\n      pop\n      pop\n      jump\t// out\n        /* \"#utility.yul\":32810:32979   */\n    tag_308:\n        /* \"#utility.yul\":32950:32971   */\n      0x496e76616c6964207369676e6174757265207600000000000000000000000000\n        /* \"#utility.yul\":32946:32947   */\n      0x00\n        /* \"#utility.yul\":32938:32944   */\n      dup3\n        /* \"#utility.yul\":32934:32948   */\n      add\n        /* \"#utility.yul\":32927:32972   */\n      mstore\n        /* \"#utility.yul\":32810:32979   */\n      pop\n      jump\t// out\n        /* \"#utility.yul\":32985:33351   */\n    tag_309:\n        /* \"#utility.yul\":33127:33130   */\n      0x00\n        /* \"#utility.yul\":33148:33215   */\n      tag_579\n        /* \"#utility.yul\":33212:33214   */\n      0x13\n        /* \"#utility.yul\":33207:33210   */\n      dup4\n        /* \"#utility.yul\":33148:33215   */\n      tag_233\n      jump\t// in\n    tag_579:\n        /* \"#utility.yul\":33141:33215   */\n      swap2\n      pop\n        /* \"#utility.yul\":33224:33317   */\n      tag_580\n        /* \"#utility.yul\":33313:33316   */\n      dup3\n        /* \"#utility.yul\":33224:33317   */\n      tag_308\n      jump\t// in\n    tag_580:\n        /* \"#utility.yul\":33342:33344   */\n      0x20\n        /* \"#utility.yul\":33337:33340   */\n      dup3\n        /* \"#utility.yul\":33333:33345   */\n      add\n        /* \"#utility.yul\":33326:33345   */\n      swap1\n      pop\n        /* \"#utility.yul\":32985:33351   */\n      swap2\n      swap1\n      pop\n      jump\t// out\n        /* \"#utility.yul\":33357:33776   */\n    tag_221:\n        /* \"#utility.yul\":33523:33527   */\n      0x00\n        /* \"#utility.yul\":33561:33563   */\n      0x20\n        /* \"#utility.yul\":33550:33559   */\n      dup3\n        /* \"#utility.yul\":33546:33564   */\n      add\n        /* \"#utility.yul\":33538:33564   */\n      swap1\n      pop\n        /* \"#utility.yul\":33610:33619   */\n      dup2\n        /* \"#utility.yul\":33604:33608   */\n      dup2\n        /* \"#utility.yul\":33600:33620   */\n      sub\n        /* \"#utility.yul\":33596:33597   */\n      0x00\n        /* \"#utility.yul\":33585:33594   */\n      dup4\n        /* \"#utility.yul\":33581:33598   */\n      add\n        /* \"#utility.yul\":33574:33621   */\n      mstore\n        /* \"#utility.yul\":33638:33769   */\n      tag_582\n        /* \"#utility.yul\":33764:33768   */\n      dup2\n        /* \"#utility.yul\":33638:33769   */\n      tag_309\n      jump\t// in\n    tag_582:\n        /* \"#utility.yul\":33630:33769   */\n      swap1\n      pop\n        /* \"#utility.yul\":33357:33776   */\n      swap2\n      swap1\n      pop\n      jump\t// out\n        /* \"#utility.yul\":33782:33951   */\n    tag_310:\n        /* \"#utility.yul\":33922:33943   */\n      0x496e76616c6964207369676e6174757265207300000000000000000000000000\n        /* \"#utility.yul\":33918:33919   */\n      0x00\n        /* \"#utility.yul\":33910:33916   */\n      dup3\n        /* \"#utility.yul\":33906:33920   */\n      add\n        /* \"#utility.yul\":33899:33944   */\n      mstore\n        /* \"#utility.yul\":33782:33951   */\n      pop\n      jump\t// out\n        /* \"#utility.yul\":33957:34323   */\n    tag_311:\n        /* \"#utility.yul\":34099:34102   */\n      0x00\n        /* \"#utility.yul\":34120:34187   */\n      tag_585\n        /* \"#utility.yul\":34184:34186   */\n      0x13\n        /* \"#utility.yul\":34179:34182   */\n      dup4\n        /* \"#utility.yul\":34120:34187   */\n      tag_233\n      jump\t// in\n    tag_585:\n        /* \"#utility.yul\":34113:34187   */\n      swap2\n      pop\n        /* \"#utility.yul\":34196:34289   */\n      tag_586\n        /* \"#utility.yul\":34285:34288   */\n      dup3\n        /* \"#utility.yul\":34196:34289   */\n      tag_310\n      jump\t// in\n    tag_586:\n        /* \"#utility.yul\":34314:34316   */\n      0x20\n        /* \"#utility.yul\":34309:34312   */\n      dup3\n        /* \"#utility.yul\":34305:34317   */\n      add\n        /* \"#utility.yul\":34298:34317   */\n      swap1\n      pop\n        /* \"#utility.yul\":33957:34323   */\n      swap2\n      swap1\n      pop\n      jump\t// out\n        /* \"#utility.yul\":34329:34748   */\n    tag_225:\n        /* \"#utility.yul\":34495:34499   */\n      0x00\n        /* \"#utility.yul\":34533:34535   */\n      0x20\n        /* \"#utility.yul\":34522:34531   */\n      dup3\n        /* \"#utility.yul\":34518:34536   */\n      add\n        /* \"#utility.yul\":34510:34536   */\n      swap1\n      pop\n        /* \"#utility.yul\":34582:34591   */\n      dup2\n        /* \"#utility.yul\":34576:34580   */\n      dup2\n        /* \"#utility.yul\":34572:34592   */\n      sub\n        /* \"#utility.yul\":34568:34569   */\n      0x00\n        /* \"#utility.yul\":34557:34566   */\n      dup4\n        /* \"#utility.yul\":34553:34570   */\n      add\n        /* \"#utility.yul\":34546:34593   */\n      mstore\n        /* \"#utility.yul\":34610:34741   */\n      tag_588\n        /* \"#utility.yul\":34736:34740   */\n      dup2\n        /* \"#utility.yul\":34610:34741   */\n      tag_311\n      jump\t// in\n    tag_588:\n        /* \"#utility.yul\":34602:34741   */\n      swap1\n      pop\n        /* \"#utility.yul\":34329:34748   */\n      swap2\n      swap1\n      pop\n      jump\t// out\n        /* \"#utility.yul\":34754:34866   */\n    tag_312:\n        /* \"#utility.yul\":34837:34859   */\n      tag_590\n        /* \"#utility.yul\":34853:34858   */\n      dup2\n        /* \"#utility.yul\":34837:34859   */\n      tag_307\n      jump\t// in\n    tag_590:\n        /* \"#utility.yul\":34832:34835   */\n      dup3\n        /* \"#utility.yul\":34825:34860   */\n      mstore\n        /* \"#utility.yul\":34754:34866   */\n      pop\n      pop\n      jump\t// out\n        /* \"#utility.yul\":34872:35417   */\n    tag_227:\n        /* \"#utility.yul\":35045:35049   */\n      0x00\n        /* \"#utility.yul\":35083:35086   */\n      0x80\n        /* \"#utility.yul\":35072:35081   */\n      dup3\n        /* \"#utility.yul\":35068:35087   */\n      add\n        /* \"#utility.yul\":35060:35087   */\n      swap1\n      pop\n        /* \"#utility.yul\":35097:35168   */\n      tag_592\n        /* \"#utility.yul\":35165:35166   */\n      0x00\n        /* \"#utility.yul\":35154:35163   */\n      dup4\n        /* \"#utility.yul\":35150:35167   */\n      add\n        /* \"#utility.yul\":35141:35147   */\n      dup8\n        /* \"#utility.yul\":35097:35168   */\n      tag_249\n      jump\t// in\n    tag_592:\n        /* \"#utility.yul\":35178:35246   */\n      tag_593\n        /* \"#utility.yul\":35242:35244   */\n      0x20\n        /* \"#utility.yul\":35231:35240   */\n      dup4\n        /* \"#utility.yul\":35227:35245   */\n      add\n        /* \"#utility.yul\":35218:35224   */\n      dup7\n        /* \"#utility.yul\":35178:35246   */\n      tag_312\n      jump\t// in\n    tag_593:\n        /* \"#utility.yul\":35256:35328   */\n      tag_594\n        /* \"#utility.yul\":35324:35326   */\n      0x40\n        /* \"#utility.yul\":35313:35322   */\n      dup4\n        /* \"#utility.yul\":35309:35327   */\n      add\n        /* \"#utility.yul\":35300:35306   */\n      dup6\n        /* \"#utility.yul\":35256:35328   */\n      tag_249\n      jump\t// in\n    tag_594:\n        /* \"#utility.yul\":35338:35410   */\n      tag_595\n        /* \"#utility.yul\":35406:35408   */\n      0x60\n        /* \"#utility.yul\":35395:35404   */\n      dup4\n        /* \"#utility.yul\":35391:35409   */\n      add\n        /* \"#utility.yul\":35382:35388   */\n      dup5\n        /* \"#utility.yul\":35338:35410   */\n      tag_249\n      jump\t// in\n    tag_595:\n        /* \"#utility.yul\":34872:35417   */\n      swap6\n      swap5\n      pop\n      pop\n      pop\n      pop\n      pop\n      jump\t// out\n        /* \"#utility.yul\":35423:35598   */\n    tag_313:\n        /* \"#utility.yul\":35563:35590   */\n      0x5369676e6174757265207265636f76657279206661696c656400000000000000\n        /* \"#utility.yul\":35559:35560   */\n      0x00\n        /* \"#utility.yul\":35551:35557   */\n      dup3\n        /* \"#utility.yul\":35547:35561   */\n      add\n        /* \"#utility.yul\":35540:35591   */\n      mstore\n        /* \"#utility.yul\":35423:35598   */\n      pop\n      jump\t// out\n        /* \"#utility.yul\":35604:35970   */\n    tag_314:\n        /* \"#utility.yul\":35746:35749   */\n      0x00\n        /* \"#utility.yul\":35767:35834   */\n      tag_598\n        /* \"#utility.yul\":35831:35833   */\n      0x19\n        /* \"#utility.yul\":35826:35829   */\n      dup4\n        /* \"#utility.yul\":35767:35834   */\n      tag_233\n      jump\t// in\n    tag_598:\n        /* \"#utility.yul\":35760:35834   */\n      swap2\n      pop\n        /* \"#utility.yul\":35843:35936   */\n      tag_599\n        /* \"#utility.yul\":35932:35935   */\n      dup3\n        /* \"#utility.yul\":35843:35936   */\n      tag_313\n      jump\t// in\n    tag_599:\n        /* \"#utility.yul\":35961:35963   */\n      0x20\n        /* \"#utility.yul\":35956:35959   */\n      dup3\n        /* \"#utility.yul\":35952:35964   */\n      add\n        /* \"#utility.yul\":35945:35964   */\n      swap1\n      pop\n        /* \"#utility.yul\":35604:35970   */\n      swap2\n      swap1\n      pop\n      jump\t// out\n        /* \"#utility.yul\":35976:36395   */\n    tag_232:\n        /* \"#utility.yul\":36142:36146   */\n      0x00\n        /* \"#utility.yul\":36180:36182   */\n      0x20\n        /* \"#utility.yul\":36169:36178   */\n      dup3\n        /* \"#utility.yul\":36165:36183   */\n      add\n        /* \"#utility.yul\":36157:36183   */\n      swap1\n      pop\n        /* \"#utility.yul\":36229:36238   */\n      dup2\n        /* \"#utility.yul\":36223:36227   */\n      dup2\n        /* \"#utility.yul\":36219:36239   */\n      sub\n        /* \"#utility.yul\":36215:36216   */\n      0x00\n        /* \"#utility.yul\":36204:36213   */\n      dup4\n        /* \"#utility.yul\":36200:36217   */\n      add\n        /* \"#utility.yul\":36193:36240   */\n      mstore\n        /* \"#utility.yul\":36257:36388   */\n      tag_601\n        /* \"#utility.yul\":36383:36387   */\n      dup2\n        /* \"#utility.yul\":36257:36388   */\n      tag_314\n      jump\t// in\n    tag_601:\n        /* \"#utility.yul\":36249:36388   */\n      swap1\n      pop\n        /* \"#utility.yul\":35976:36395   */\n      swap2\n      swap1\n      pop\n      jump\t// out\n\n    auxdata: 0xa2646970667358221220c8c571c15d1b79d5b866c819d02b9974b71bde498d513275469a1b9cf1404e5364736f6c63430008220033\n}\n",
				"bytecode": {
					"linkReferences": {},
					"object": "610100604052348015610010575f5ffd5b50604051612aae380380612aae8339818101604052810190610032919061018c565b5f8211610074576040517f08c379a000000000000000000000000000000000000000000000000000000000815260040161006b90610224565b60405180910390fd5b5f81116100b6576040517f08c379a00000000000000000000000000000000000000000000000000000000081526004016100ad9061028c565b60405180910390fd5b3373ffffffffffffffffffffffffffffffffffffffff1660808173ffffffffffffffffffffffffffffffffffffffff168152505081426100f691906102d7565b60a081815250508060a05161010b91906102d7565b60c081815250503046334260a05160c05160405160200161013196959493929190610358565b6040516020818303038152906040528051906020012060e0818152505050506103b7565b5f5ffd5b5f819050919050565b61016b81610159565b8114610175575f5ffd5b50565b5f8151905061018681610162565b92915050565b5f5f604083850312156101a2576101a1610155565b5b5f6101af85828601610178565b92505060206101c085828601610178565b9150509250929050565b5f82825260208201905092915050565b7f436f6d6d6974206475726174696f6e206973207a65726f0000000000000000005f82015250565b5f61020e6017836101ca565b9150610219826101da565b602082019050919050565b5f6020820190508181035f83015261023b81610202565b9050919050565b7f52657665616c206475726174696f6e206973207a65726f0000000000000000005f82015250565b5f6102766017836101ca565b915061028182610242565b602082019050919050565b5f6020820190508181035f8301526102a38161026a565b9050919050565b7f4e487b71000000000000000000000000000000000000000000000000000000005f52601160045260245ffd5b5f6102e182610159565b91506102ec83610159565b9250828201905080821115610304576103036102aa565b5b92915050565b5f73ffffffffffffffffffffffffffffffffffffffff82169050919050565b5f6103338261030a565b9050919050565b61034381610329565b82525050565b61035281610159565b82525050565b5f60c08201905061036b5f83018961033a565b6103786020830188610349565b610385604083018761033a565b6103926060830186610349565b61039f6080830185610349565b6103ac60a0830184610349565b979650505050505050565b60805160a05160c05160e0516126856104295f395f81816104b201528181610530015261092301525f8181610be901528181610e0a015281816111fb015261128601525f818161055401528181610bc501528181610da7015261122101525f818161050c0152610cc501526126855ff3fe608060405260043610610117575f3560e01c80637ecebe001161009f578063d57bde7911610063578063d57bde79146103a5578063e8ba4047146103cf578063e8fcf723146103f9578063fb667b4814610437578063fe5ff4681461047357610157565b80637ecebe00146102c157806391f90157146102fd578063a6e6647714610327578063b1c9fe6e14610351578063b3f05b971461037b57610157565b80632ec4620f116100e65780632ec4620f146102135780633ccfd60b1461024f5780633eee4e27146102655780634bb278f31461028f57806362c5424a146102a557610157565b8063023f5bdf1461015b57806308551a531461019757806310782f8f146101c157806311928dbe146101eb57610157565b36610157576040517f08c379a000000000000000000000000000000000000000000000000000000000815260040161014e9061169f565b60405180910390fd5b5f5ffd5b348015610166575f5ffd5b50610181600480360381019061017c9190611785565b6104af565b60405161018e91906117e4565b60405180910390f35b3480156101a2575f5ffd5b506101ab61050a565b6040516101b8919061180c565b60405180910390f35b3480156101cc575f5ffd5b506101d561052e565b6040516101e291906117e4565b60405180910390f35b3480156101f6575f5ffd5b50610211600480360381019061020c9190611886565b610552565b005b34801561021e575f5ffd5b506102396004803603810190610234919061191c565b6108ff565b60405161024691906117e4565b60405180910390f35b34801561025a575f5ffd5b5061026361097f565b005b348015610270575f5ffd5b50610279610bc3565b604051610286919061198f565b60405180910390f35b34801561029a575f5ffd5b506102a3610be7565b005b6102bf60048036038101906102ba91906119a8565b610da5565b005b3480156102cc575f5ffd5b506102e760048036038101906102e291906119e6565b6111c0565b6040516102f4919061198f565b60405180910390f35b348015610308575f5ffd5b506103116111d5565b60405161031e919061180c565b60405180910390f35b348015610332575f5ffd5b5061033b6111f9565b604051610348919061198f565b60405180910390f35b34801561035c575f5ffd5b5061036561121d565b6040516103729190611a71565b60405180910390f35b348015610386575f5ffd5b5061038f611375565b60405161039c9190611aab565b60405180910390f35b3480156103b0575f5ffd5b506103b9611387565b6040516103c6919061198f565b60405180910390f35b3480156103da575f5ffd5b506103e361138d565b6040516103f091906117e4565b60405180910390f35b348015610404575f5ffd5b5061041f600480360381019061041a91906119e6565b6113b1565b60405161042e93929190611ac4565b60405180910390f35b348015610442575f5ffd5b5061045d6004803603810190610458919061191c565b6113e3565b60405161046a91906117e4565b60405180910390f35b34801561047e575f5ffd5b50610499600480360381019061049491906119e6565b611425565b6040516104a6919061198f565b60405180910390f35b5f7f000000000000000000000000000000000000000000000000000000000000000030468686866040516020016104eb96959493929190611af9565b6040516020818303038152906040528051906020012090509392505050565b7f000000000000000000000000000000000000000000000000000000000000000081565b7f000000000000000000000000000000000000000000000000000000000000000081565b7f000000000000000000000000000000000000000000000000000000000000000042106105b4576040517f08c379a00000000000000000000000000000000000000000000000000000000081526004016105ab90611ba2565b60405180910390fd5b824211156105f7576040517f08c379a00000000000000000000000000000000000000000000000000000000081526004016105ee90611c0a565b60405180910390fd5b5f73ffffffffffffffffffffffffffffffffffffffff168673ffffffffffffffffffffffffffffffffffffffff1603610665576040517f08c379a000000000000000000000000000000000000000000000000000000000815260040161065c90611c72565b60405180910390fd5b5f5f1b85036106a9576040517f08c379a00000000000000000000000000000000000000000000000000000000081526004016106a090611cda565b60405180910390fd5b60045f8773ffffffffffffffffffffffffffffffffffffffff1673ffffffffffffffffffffffffffffffffffffffff1681526020019081526020015f20548414610728576040517f08c379a000000000000000000000000000000000000000000000000000000000815260040161071f90611d42565b60405180910390fd5b5f610735878787876113e3565b90505f61074382858561143a565b90508773ffffffffffffffffffffffffffffffffffffffff168173ffffffffffffffffffffffffffffffffffffffff16146107b3576040517f08c379a00000000000000000000000000000000000000000000000000000000081526004016107aa90611daa565b60405180910390fd5b6001866107c09190611df5565b60045f8a73ffffffffffffffffffffffffffffffffffffffff1673ffffffffffffffffffffffffffffffffffffffff1681526020019081526020015f208190555060405180606001604052808881526020018781526020015f151581525060035f8a73ffffffffffffffffffffffffffffffffffffffff1673ffffffffffffffffffffffffffffffffffffffff1681526020019081526020015f205f820151815f0155602082015181600101556040820151816002015f6101000a81548160ff0219169083151502179055509050503373ffffffffffffffffffffffffffffffffffffffff16878973ffffffffffffffffffffffffffffffffffffffff167f17fbcc6e4e21b1297f78174a0e2733b509e285c1ef8414629e371f7a635f80f2896040516108ed919061198f565b60405180910390a45050505050505050565b5f7ff5f53de1e01e354974d8391cbdb53dd5f7827082d54e624f952bfd51a484aa077f000000000000000000000000000000000000000000000000000000000000000086868686304660405160200161095f989796959493929190611e28565b604051602081830303815290604052805190602001209050949350505050565b600260019054906101000a900460ff16156109cf576040517f08c379a00000000000000000000000000000000000000000000000000000000081526004016109c690611eee565b60405180910390fd5b5f60055f3373ffffffffffffffffffffffffffffffffffffffff1673ffffffffffffffffffffffffffffffffffffffff1681526020019081526020015f205490505f8111610a52576040517f08c379a0000000000000000000000000000000000000000000000000000000008152600401610a4990611f56565b60405180910390fd5b6001600260016101000a81548160ff0219169083151502179055505f60055f3373ffffffffffffffffffffffffffffffffffffffff1673ffffffffffffffffffffffffffffffffffffffff1681526020019081526020015f20819055505f3373ffffffffffffffffffffffffffffffffffffffff1682604051610ad490611fa1565b5f6040518083038185875af1925050503d805f8114610b0e576040519150601f19603f3d011682016040523d82523d5f602084013e610b13565b606091505b5050905080610b57576040517f08c379a0000000000000000000000000000000000000000000000000000000008152600401610b4e90611fff565b60405180910390fd5b5f600260016101000a81548160ff0219169083151502179055503373ffffffffffffffffffffffffffffffffffffffff167f7fcf532c15f0a6db0bd6d0e038bea71d30d808c7d98cb3bf7268a95bf5081b6583604051610bb7919061198f565b60405180910390a25050565b7f000000000000000000000000000000000000000000000000000000000000000081565b7f0000000000000000000000000000000000000000000000000000000000000000421015610c4a576040517f08c379a0000000000000000000000000000000000000000000000000000000008152600401610c4190612067565b60405180910390fd5b60025f9054906101000a900460ff1615610c99576040517f08c379a0000000000000000000000000000000000000000000000000000000008152600401610c90906120cf565b60405180910390fd5b600160025f6101000a81548160ff0219169083151502179055505f6001541115610d335760015460055f7f000000000000000000000000000000000000000000000000000000000000000073ffffffffffffffffffffffffffffffffffffffff1673ffffffffffffffffffffffffffffffffffffffff1681526020019081526020015f205f828254610d2b9190611df5565b925050819055505b5f5f9054906101000a900473ffffffffffffffffffffffffffffffffffffffff1673ffffffffffffffffffffffffffffffffffffffff167f357afab190ee87fe0ef1c717f2728d2904d9e415a069d99f4d9382873cb3279d600154604051610d9b919061198f565b60405180910390a2565b7f0000000000000000000000000000000000000000000000000000000000000000421015610e08576040517f08c379a0000000000000000000000000000000000000000000000000000000008152600401610dff90612137565b60405180910390fd5b7f00000000000000000000000000000000000000000000000000000000000000004210610e6a576040517f08c379a0000000000000000000000000000000000000000000000000000000008152600401610e619061219f565b60405180910390fd5b813414610eac576040517f08c379a0000000000000000000000000000000000000000000000000000000008152600401610ea390612207565b60405180910390fd5b5f60035f3373ffffffffffffffffffffffffffffffffffffffff1673ffffffffffffffffffffffffffffffffffffffff1681526020019081526020015f2090505f5f1b815f015403610f33576040517f08c379a0000000000000000000000000000000000000000000000000000000008152600401610f2a9061226f565b60405180910390fd5b806002015f9054906101000a900460ff1615610f84576040517f08c379a0000000000000000000000000000000000000000000000000000000008152600401610f7b906122d7565b60405180910390fd5b5f610f903385856104af565b9050815f01548114610fd7576040517f08c379a0000000000000000000000000000000000000000000000000000000008152600401610fce9061233f565b60405180910390fd5b6001826002015f6101000a81548160ff0219169083151502179055505f600154851190508015611115575f73ffffffffffffffffffffffffffffffffffffffff165f5f9054906101000a900473ffffffffffffffffffffffffffffffffffffffff1673ffffffffffffffffffffffffffffffffffffffff16146110ca5760015460055f5f5f9054906101000a900473ffffffffffffffffffffffffffffffffffffffff1673ffffffffffffffffffffffffffffffffffffffff1673ffffffffffffffffffffffffffffffffffffffff1681526020019081526020015f205f8282546110c29190611df5565b925050819055505b335f5f6101000a81548173ffffffffffffffffffffffffffffffffffffffff021916908373ffffffffffffffffffffffffffffffffffffffff16021790555084600181905550611169565b8460055f3373ffffffffffffffffffffffffffffffffffffffff1673ffffffffffffffffffffffffffffffffffffffff1681526020019081526020015f205f8282546111619190611df5565b925050819055505b3373ffffffffffffffffffffffffffffffffffffffff167f9c2d1dff1e244149eef8b49255674d40752acd825b23d4ad303807f98fe5953286836040516111b192919061235d565b60405180910390a25050505050565b6004602052805f5260405f205f915090505481565b5f5f9054906101000a900473ffffffffffffffffffffffffffffffffffffffff1681565b7f000000000000000000000000000000000000000000000000000000000000000081565b60607f0000000000000000000000000000000000000000000000000000000000000000421015611284576040518060400160405280600681526020017f434f4d4d495400000000000000000000000000000000000000000000000000008152509050611372565b7f00000000000000000000000000000000000000000000000000000000000000004210156112e9576040518060400160405280600681526020017f52455645414c00000000000000000000000000000000000000000000000000008152509050611372565b60025f9054906101000a900460ff16611339576040518060400160405280601181526020017f52454144595f544f5f46494e414c495a450000000000000000000000000000008152509050611372565b6040518060400160405280600981526020017f46494e414c495a4544000000000000000000000000000000000000000000000081525090505b90565b60025f9054906101000a900460ff1681565b60015481565b7ff5f53de1e01e354974d8391cbdb53dd5f7827082d54e624f952bfd51a484aa0781565b6003602052805f5260405f205f91509050805f015490806001015490806002015f9054906101000a900460ff16905083565b5f5f6113f1868686866108ff565b90508060405160200161140491906123f8565b60405160208183030381529060405280519060200120915050949350505050565b6005602052805f5260405f205f915090505481565b5f60418383905014611481576040517f08c379a000000000000000000000000000000000000000000000000000000000815260040161147890612467565b60405180910390fd5b5f5f5f853592506020860135915060408601355f1a9050601b8160ff1610156114b457601b816114b19190612491565b90505b601b8160ff1614806114c95750601c8160ff16145b611508576040517f08c379a00000000000000000000000000000000000000000000000000000000081526004016114ff9061250f565b60405180910390fd5b5f825f1c11801561153b57507f7fffffffffffffffffffffffffffffff5d576e7357a4501ddfe92f46681b20a0825f1c11155b61157a576040517f08c379a000000000000000000000000000000000000000000000000000000000815260040161157190612577565b60405180910390fd5b5f6001888386866040515f815260200160405260405161159d94939291906125a4565b6020604051602081039080840390855afa1580156115bd573d5f5f3e3d5ffd5b5050506020604051035190505f73ffffffffffffffffffffffffffffffffffffffff168173ffffffffffffffffffffffffffffffffffffffff1603611637576040517f08c379a000000000000000000000000000000000000000000000000000000000815260040161162e90612631565b60405180910390fd5b809450505050509392505050565b5f82825260208201905092915050565b7f5573652072657665616c426964000000000000000000000000000000000000005f82015250565b5f611689600d83611645565b915061169482611655565b602082019050919050565b5f6020820190508181035f8301526116b68161167d565b9050919050565b5f5ffd5b5f5ffd5b5f73ffffffffffffffffffffffffffffffffffffffff82169050919050565b5f6116ee826116c5565b9050919050565b6116fe816116e4565b8114611708575f5ffd5b50565b5f81359050611719816116f5565b92915050565b5f819050919050565b6117318161171f565b811461173b575f5ffd5b50565b5f8135905061174c81611728565b92915050565b5f819050919050565b61176481611752565b811461176e575f5ffd5b50565b5f8135905061177f8161175b565b92915050565b5f5f5f6060848603121561179c5761179b6116bd565b5b5f6117a98682870161170b565b93505060206117ba8682870161173e565b92505060406117cb86828701611771565b9150509250925092565b6117de81611752565b82525050565b5f6020820190506117f75f8301846117d5565b92915050565b611806816116e4565b82525050565b5f60208201905061181f5f8301846117fd565b92915050565b5f5ffd5b5f5ffd5b5f5ffd5b5f5f83601f84011261184657611845611825565b5b8235905067ffffffffffffffff81111561186357611862611829565b5b60208301915083600182028301111561187f5761187e61182d565b5b9250929050565b5f5f5f5f5f5f60a087890312156118a05761189f6116bd565b5b5f6118ad89828a0161170b565b96505060206118be89828a01611771565b95505060406118cf89828a0161173e565b94505060606118e089828a0161173e565b935050608087013567ffffffffffffffff811115611901576119006116c1565b5b61190d89828a01611831565b92509250509295509295509295565b5f5f5f5f60808587031215611934576119336116bd565b5b5f6119418782880161170b565b945050602061195287828801611771565b93505060406119638782880161173e565b92505060606119748782880161173e565b91505092959194509250565b6119898161171f565b82525050565b5f6020820190506119a25f830184611980565b92915050565b5f5f604083850312156119be576119bd6116bd565b5b5f6119cb8582860161173e565b92505060206119dc85828601611771565b9150509250929050565b5f602082840312156119fb576119fa6116bd565b5b5f611a088482850161170b565b91505092915050565b5f81519050919050565b8281835e5f83830152505050565b5f601f19601f8301169050919050565b5f611a4382611a11565b611a4d8185611645565b9350611a5d818560208601611a1b565b611a6681611a29565b840191505092915050565b5f6020820190508181035f830152611a898184611a39565b905092915050565b5f8115159050919050565b611aa581611a91565b82525050565b5f602082019050611abe5f830184611a9c565b92915050565b5f606082019050611ad75f8301866117d5565b611ae46020830185611980565b611af16040830184611a9c565b949350505050565b5f60c082019050611b0c5f8301896117d5565b611b1960208301886117fd565b611b266040830187611980565b611b3360608301866117fd565b611b406080830185611980565b611b4d60a08301846117d5565b979650505050505050565b7f436f6d6d697420706861736520656e64656400000000000000000000000000005f82015250565b5f611b8c601283611645565b9150611b9782611b58565b602082019050919050565b5f6020820190508181035f830152611bb981611b80565b9050919050565b7f5369676e617475726520657870697265640000000000000000000000000000005f82015250565b5f611bf4601183611645565b9150611bff82611bc0565b602082019050919050565b5f6020820190508181035f830152611c2181611be8565b9050919050565b7f496e76616c6964206269646465720000000000000000000000000000000000005f82015250565b5f611c5c600e83611645565b9150611c6782611c28565b602082019050919050565b5f6020820190508181035f830152611c8981611c50565b9050919050565b7f456d70747920636f6d6d69746d656e74000000000000000000000000000000005f82015250565b5f611cc4601083611645565b9150611ccf82611c90565b602082019050919050565b5f6020820190508181035f830152611cf181611cb8565b9050919050565b7f496e76616c6964206e6f6e6365000000000000000000000000000000000000005f82015250565b5f611d2c600d83611645565b9150611d3782611cf8565b602082019050919050565b5f6020820190508181035f830152611d5981611d20565b9050919050565b7f496e76616c6964207369676e61747572650000000000000000000000000000005f82015250565b5f611d94601183611645565b9150611d9f82611d60565b602082019050919050565b5f6020820190508181035f830152611dc181611d88565b9050919050565b7f4e487b71000000000000000000000000000000000000000000000000000000005f52601160045260245ffd5b5f611dff8261171f565b9150611e0a8361171f565b9250828201905080821115611e2257611e21611dc8565b5b92915050565b5f61010082019050611e3c5f83018b6117d5565b611e49602083018a6117d5565b611e5660408301896117fd565b611e6360608301886117d5565b611e706080830187611980565b611e7d60a0830186611980565b611e8a60c08301856117fd565b611e9760e0830184611980565b9998505050505050505050565b7f5265656e7472616e742063616c6c0000000000000000000000000000000000005f82015250565b5f611ed8600e83611645565b9150611ee382611ea4565b602082019050919050565b5f6020820190508181035f830152611f0581611ecc565b9050919050565b7f4e6f7468696e6720746f207769746864726177000000000000000000000000005f82015250565b5f611f40601383611645565b9150611f4b82611f0c565b602082019050919050565b5f6020820190508181035f830152611f6d81611f34565b9050919050565b5f81905092915050565b50565b5f611f8c5f83611f74565b9150611f9782611f7e565b5f82019050919050565b5f611fab82611f81565b9150819050919050565b7f455448207472616e73666572206661696c6564000000000000000000000000005f82015250565b5f611fe9601383611645565b9150611ff482611fb5565b602082019050919050565b5f6020820190508181035f83015261201681611fdd565b9050919050565b7f52657665616c207068617365206e6f7420656e646564000000000000000000005f82015250565b5f612051601683611645565b915061205c8261201d565b602082019050919050565b5f6020820190508181035f83015261207e81612045565b9050919050565b7f416c72656164792066696e616c697a65640000000000000000000000000000005f82015250565b5f6120b9601183611645565b91506120c482612085565b602082019050919050565b5f6020820190508181035f8301526120e6816120ad565b9050919050565b7f52657665616c207068617365206e6f74207374617274656400000000000000005f82015250565b5f612121601883611645565b915061212c826120ed565b602082019050919050565b5f6020820190508181035f83015261214e81612115565b9050919050565b7f52657665616c20706861736520656e64656400000000000000000000000000005f82015250565b5f612189601283611645565b915061219482612155565b602082019050919050565b5f6020820190508181035f8301526121b68161217d565b9050919050565b7f57726f6e672045544820616d6f756e74000000000000000000000000000000005f82015250565b5f6121f1601083611645565b91506121fc826121bd565b602082019050919050565b5f6020820190508181035f83015261221e816121e5565b9050919050565b7f4e6f20636f6d6d69746d656e74000000000000000000000000000000000000005f82015250565b5f612259600d83611645565b915061226482612225565b602082019050919050565b5f6020820190508181035f8301526122868161224d565b9050919050565b7f416c72656164792072657665616c6564000000000000000000000000000000005f82015250565b5f6122c1601083611645565b91506122cc8261228d565b602082019050919050565b5f6020820190508181035f8301526122ee816122b5565b9050919050565b7f436f6d6d69746d656e74206d69736d61746368000000000000000000000000005f82015250565b5f612329601383611645565b9150612334826122f5565b602082019050919050565b5f6020820190508181035f8301526123568161231d565b9050919050565b5f6040820190506123705f830185611980565b61237d6020830184611a9c565b9392505050565b5f81905092915050565b7f19457468657265756d205369676e6564204d6573736167653a0a3332000000005f82015250565b5f6123c2601c83612384565b91506123cd8261238e565b601c82019050919050565b5f819050919050565b6123f26123ed82611752565b6123d8565b82525050565b5f612402826123b6565b915061240e82846123e1565b60208201915081905092915050565b7f5369676e6174757265206d7573742062652036352062797465730000000000005f82015250565b5f612451601a83611645565b915061245c8261241d565b602082019050919050565b5f6020820190508181035f83015261247e81612445565b9050919050565b5f60ff82169050919050565b5f61249b82612485565b91506124a683612485565b9250828201905060ff8111156124bf576124be611dc8565b5b92915050565b7f496e76616c6964207369676e61747572652076000000000000000000000000005f82015250565b5f6124f9601383611645565b9150612504826124c5565b602082019050919050565b5f6020820190508181035f830152612526816124ed565b9050919050565b7f496e76616c6964207369676e61747572652073000000000000000000000000005f82015250565b5f612561601383611645565b915061256c8261252d565b602082019050919050565b5f6020820190508181035f83015261258e81612555565b9050919050565b61259e81612485565b82525050565b5f6080820190506125b75f8301876117d5565b6125c46020830186612595565b6125d160408301856117d5565b6125de60608301846117d5565b95945050505050565b7f5369676e6174757265207265636f76657279206661696c6564000000000000005f82015250565b5f61261b601983611645565b9150612626826125e7565b602082019050919050565b5f6020820190508181035f8301526126488161260f565b905091905056fea2646970667358221220c8c571c15d1b79d5b866c819d02b9974b71bde498d513275469a1b9cf1404e5364736f6c63430008220033",
					"opcodes": "PUSH2 0x100 PUSH1 0x40 MSTORE CALLVALUE DUP1 ISZERO PUSH2 0x10 JUMPI PUSH0 PUSH0 REVERT JUMPDEST POP PUSH1 0x40 MLOAD PUSH2 0x2AAE CODESIZE SUB DUP1 PUSH2 0x2AAE DUP4 CODECOPY DUP2 DUP2 ADD PUSH1 0x40 MSTORE DUP2 ADD SWAP1 PUSH2 0x32 SWAP2 SWAP1 PUSH2 0x18C JUMP JUMPDEST PUSH0 DUP3 GT PUSH2 0x74 JUMPI PUSH1 0x40 MLOAD PUSH32 0x8C379A000000000000000000000000000000000000000000000000000000000 DUP2 MSTORE PUSH1 0x4 ADD PUSH2 0x6B SWAP1 PUSH2 0x224 JUMP JUMPDEST PUSH1 0x40 MLOAD DUP1 SWAP2 SUB SWAP1 REVERT JUMPDEST PUSH0 DUP2 GT PUSH2 0xB6 JUMPI PUSH1 0x40 MLOAD PUSH32 0x8C379A000000000000000000000000000000000000000000000000000000000 DUP2 MSTORE PUSH1 0x4 ADD PUSH2 0xAD SWAP1 PUSH2 0x28C JUMP JUMPDEST PUSH1 0x40 MLOAD DUP1 SWAP2 SUB SWAP1 REVERT JUMPDEST CALLER PUSH20 0xFFFFFFFFFFFFFFFFFFFFFFFFFFFFFFFFFFFFFFFF AND PUSH1 0x80 DUP2 PUSH20 0xFFFFFFFFFFFFFFFFFFFFFFFFFFFFFFFFFFFFFFFF AND DUP2 MSTORE POP POP DUP2 TIMESTAMP PUSH2 0xF6 SWAP2 SWAP1 PUSH2 0x2D7 JUMP JUMPDEST PUSH1 0xA0 DUP2 DUP2 MSTORE POP POP DUP1 PUSH1 0xA0 MLOAD PUSH2 0x10B SWAP2 SWAP1 PUSH2 0x2D7 JUMP JUMPDEST PUSH1 0xC0 DUP2 DUP2 MSTORE POP POP ADDRESS CHAINID CALLER TIMESTAMP PUSH1 0xA0 MLOAD PUSH1 0xC0 MLOAD PUSH1 0x40 MLOAD PUSH1 0x20 ADD PUSH2 0x131 SWAP7 SWAP6 SWAP5 SWAP4 SWAP3 SWAP2 SWAP1 PUSH2 0x358 JUMP JUMPDEST PUSH1 0x40 MLOAD PUSH1 0x20 DUP2 DUP4 SUB SUB DUP2 MSTORE SWAP1 PUSH1 0x40 MSTORE DUP1 MLOAD SWAP1 PUSH1 0x20 ADD KECCAK256 PUSH1 0xE0 DUP2 DUP2 MSTORE POP POP POP POP PUSH2 0x3B7 JUMP JUMPDEST PUSH0 PUSH0 REVERT JUMPDEST PUSH0 DUP2 SWAP1 POP SWAP2 SWAP1 POP JUMP JUMPDEST PUSH2 0x16B DUP2 PUSH2 0x159 JUMP JUMPDEST DUP2 EQ PUSH2 0x175 JUMPI PUSH0 PUSH0 REVERT JUMPDEST POP JUMP JUMPDEST PUSH0 DUP2 MLOAD SWAP1 POP PUSH2 0x186 DUP2 PUSH2 0x162 JUMP JUMPDEST SWAP3 SWAP2 POP POP JUMP JUMPDEST PUSH0 PUSH0 PUSH1 0x40 DUP4 DUP6 SUB SLT ISZERO PUSH2 0x1A2 JUMPI PUSH2 0x1A1 PUSH2 0x155 JUMP JUMPDEST JUMPDEST PUSH0 PUSH2 0x1AF DUP6 DUP3 DUP7 ADD PUSH2 0x178 JUMP JUMPDEST SWAP3 POP POP PUSH1 0x20 PUSH2 0x1C0 DUP6 DUP3 DUP7 ADD PUSH2 0x178 JUMP JUMPDEST SWAP2 POP POP SWAP3 POP SWAP3 SWAP1 POP JUMP JUMPDEST PUSH0 DUP3 DUP3 MSTORE PUSH1 0x20 DUP3 ADD SWAP1 POP SWAP3 SWAP2 POP POP JUMP JUMPDEST PUSH32 0x436F6D6D6974206475726174696F6E206973207A65726F000000000000000000 PUSH0 DUP3 ADD MSTORE POP JUMP JUMPDEST PUSH0 PUSH2 0x20E PUSH1 0x17 DUP4 PUSH2 0x1CA JUMP JUMPDEST SWAP2 POP PUSH2 0x219 DUP3 PUSH2 0x1DA JUMP JUMPDEST PUSH1 0x20 DUP3 ADD SWAP1 POP SWAP2 SWAP1 POP JUMP JUMPDEST PUSH0 PUSH1 0x20 DUP3 ADD SWAP1 POP DUP2 DUP2 SUB PUSH0 DUP4 ADD MSTORE PUSH2 0x23B DUP2 PUSH2 0x202 JUMP JUMPDEST SWAP1 POP SWAP2 SWAP1 POP JUMP JUMPDEST PUSH32 0x52657665616C206475726174696F6E206973207A65726F000000000000000000 PUSH0 DUP3 ADD MSTORE POP JUMP JUMPDEST PUSH0 PUSH2 0x276 PUSH1 0x17 DUP4 PUSH2 0x1CA JUMP JUMPDEST SWAP2 POP PUSH2 0x281 DUP3 PUSH2 0x242 JUMP JUMPDEST PUSH1 0x20 DUP3 ADD SWAP1 POP SWAP2 SWAP1 POP JUMP JUMPDEST PUSH0 PUSH1 0x20 DUP3 ADD SWAP1 POP DUP2 DUP2 SUB PUSH0 DUP4 ADD MSTORE PUSH2 0x2A3 DUP2 PUSH2 0x26A JUMP JUMPDEST SWAP1 POP SWAP2 SWAP1 POP JUMP JUMPDEST PUSH32 0x4E487B7100000000000000000000000000000000000000000000000000000000 PUSH0 MSTORE PUSH1 0x11 PUSH1 0x4 MSTORE PUSH1 0x24 PUSH0 REVERT JUMPDEST PUSH0 PUSH2 0x2E1 DUP3 PUSH2 0x159 JUMP JUMPDEST SWAP2 POP PUSH2 0x2EC DUP4 PUSH2 0x159 JUMP JUMPDEST SWAP3 POP DUP3 DUP3 ADD SWAP1 POP DUP1 DUP3 GT ISZERO PUSH2 0x304 JUMPI PUSH2 0x303 PUSH2 0x2AA JUMP JUMPDEST JUMPDEST SWAP3 SWAP2 POP POP JUMP JUMPDEST PUSH0 PUSH20 0xFFFFFFFFFFFFFFFFFFFFFFFFFFFFFFFFFFFFFFFF DUP3 AND SWAP1 POP SWAP2 SWAP1 POP JUMP JUMPDEST PUSH0 PUSH2 0x333 DUP3 PUSH2 0x30A JUMP JUMPDEST SWAP1 POP SWAP2 SWAP1 POP JUMP JUMPDEST PUSH2 0x343 DUP2 PUSH2 0x329 JUMP JUMPDEST DUP3 MSTORE POP POP JUMP JUMPDEST PUSH2 0x352 DUP2 PUSH2 0x159 JUMP JUMPDEST DUP3 MSTORE POP POP JUMP JUMPDEST PUSH0 PUSH1 0xC0 DUP3 ADD SWAP1 POP PUSH2 0x36B PUSH0 DUP4 ADD DUP10 PUSH2 0x33A JUMP JUMPDEST PUSH2 0x378 PUSH1 0x20 DUP4 ADD DUP9 PUSH2 0x349 JUMP JUMPDEST PUSH2 0x385 PUSH1 0x40 DUP4 ADD DUP8 PUSH2 0x33A JUMP JUMPDEST PUSH2 0x392 PUSH1 0x60 DUP4 ADD DUP7 PUSH2 0x349 JUMP JUMPDEST PUSH2 0x39F PUSH1 0x80 DUP4 ADD DUP6 PUSH2 0x349 JUMP JUMPDEST PUSH2 0x3AC PUSH1 0xA0 DUP4 ADD DUP5 PUSH2 0x349 JUMP JUMPDEST SWAP8 SWAP7 POP POP POP POP POP POP POP JUMP JUMPDEST PUSH1 0x80 MLOAD PUSH1 0xA0 MLOAD PUSH1 0xC0 MLOAD PUSH1 0xE0 MLOAD PUSH2 0x2685 PUSH2 0x429 PUSH0 CODECOPY PUSH0 DUP2 DUP2 PUSH2 0x4B2 ADD MSTORE DUP2 DUP2 PUSH2 0x530 ADD MSTORE PUSH2 0x923 ADD MSTORE PUSH0 DUP2 DUP2 PUSH2 0xBE9 ADD MSTORE DUP2 DUP2 PUSH2 0xE0A ADD MSTORE DUP2 DUP2 PUSH2 0x11FB ADD MSTORE PUSH2 0x1286 ADD MSTORE PUSH0 DUP2 DUP2 PUSH2 0x554 ADD MSTORE DUP2 DUP2 PUSH2 0xBC5 ADD MSTORE DUP2 DUP2 PUSH2 0xDA7 ADD MSTORE PUSH2 0x1221 ADD MSTORE PUSH0 DUP2 DUP2 PUSH2 0x50C ADD MSTORE PUSH2 0xCC5 ADD MSTORE PUSH2 0x2685 PUSH0 RETURN INVALID PUSH1 0x80 PUSH1 0x40 MSTORE PUSH1 0x4 CALLDATASIZE LT PUSH2 0x117 JUMPI PUSH0 CALLDATALOAD PUSH1 0xE0 SHR DUP1 PUSH4 0x7ECEBE00 GT PUSH2 0x9F JUMPI DUP1 PUSH4 0xD57BDE79 GT PUSH2 0x63 JUMPI DUP1 PUSH4 0xD57BDE79 EQ PUSH2 0x3A5 JUMPI DUP1 PUSH4 0xE8BA4047 EQ PUSH2 0x3CF JUMPI DUP1 PUSH4 0xE8FCF723 EQ PUSH2 0x3F9 JUMPI DUP1 PUSH4 0xFB667B48 EQ PUSH2 0x437 JUMPI DUP1 PUSH4 0xFE5FF468 EQ PUSH2 0x473 JUMPI PUSH2 0x157 JUMP JUMPDEST DUP1 PUSH4 0x7ECEBE00 EQ PUSH2 0x2C1 JUMPI DUP1 PUSH4 0x91F90157 EQ PUSH2 0x2FD JUMPI DUP1 PUSH4 0xA6E66477 EQ PUSH2 0x327 JUMPI DUP1 PUSH4 0xB1C9FE6E EQ PUSH2 0x351 JUMPI DUP1 PUSH4 0xB3F05B97 EQ PUSH2 0x37B JUMPI PUSH2 0x157 JUMP JUMPDEST DUP1 PUSH4 0x2EC4620F GT PUSH2 0xE6 JUMPI DUP1 PUSH4 0x2EC4620F EQ PUSH2 0x213 JUMPI DUP1 PUSH4 0x3CCFD60B EQ PUSH2 0x24F JUMPI DUP1 PUSH4 0x3EEE4E27 EQ PUSH2 0x265 JUMPI DUP1 PUSH4 0x4BB278F3 EQ PUSH2 0x28F JUMPI DUP1 PUSH4 0x62C5424A EQ PUSH2 0x2A5 JUMPI PUSH2 0x157 JUMP JUMPDEST DUP1 PUSH4 0x23F5BDF EQ PUSH2 0x15B JUMPI DUP1 PUSH4 0x8551A53 EQ PUSH2 0x197 JUMPI DUP1 PUSH4 0x10782F8F EQ PUSH2 0x1C1 JUMPI DUP1 PUSH4 0x11928DBE EQ PUSH2 0x1EB JUMPI PUSH2 0x157 JUMP JUMPDEST CALLDATASIZE PUSH2 0x157 JUMPI PUSH1 0x40 MLOAD PUSH32 0x8C379A000000000000000000000000000000000000000000000000000000000 DUP2 MSTORE PUSH1 0x4 ADD PUSH2 0x14E SWAP1 PUSH2 0x169F JUMP JUMPDEST PUSH1 0x40 MLOAD DUP1 SWAP2 SUB SWAP1 REVERT JUMPDEST PUSH0 PUSH0 REVERT JUMPDEST CALLVALUE DUP1 ISZERO PUSH2 0x166 JUMPI PUSH0 PUSH0 REVERT JUMPDEST POP PUSH2 0x181 PUSH1 0x4 DUP1 CALLDATASIZE SUB DUP2 ADD SWAP1 PUSH2 0x17C SWAP2 SWAP1 PUSH2 0x1785 JUMP JUMPDEST PUSH2 0x4AF JUMP JUMPDEST PUSH1 0x40 MLOAD PUSH2 0x18E SWAP2 SWAP1 PUSH2 0x17E4 JUMP JUMPDEST PUSH1 0x40 MLOAD DUP1 SWAP2 SUB SWAP1 RETURN JUMPDEST CALLVALUE DUP1 ISZERO PUSH2 0x1A2 JUMPI PUSH0 PUSH0 REVERT JUMPDEST POP PUSH2 0x1AB PUSH2 0x50A JUMP JUMPDEST PUSH1 0x40 MLOAD PUSH2 0x1B8 SWAP2 SWAP1 PUSH2 0x180C JUMP JUMPDEST PUSH1 0x40 MLOAD DUP1 SWAP2 SUB SWAP1 RETURN JUMPDEST CALLVALUE DUP1 ISZERO PUSH2 0x1CC JUMPI PUSH0 PUSH0 REVERT JUMPDEST POP PUSH2 0x1D5 PUSH2 0x52E JUMP JUMPDEST PUSH1 0x40 MLOAD PUSH2 0x1E2 SWAP2 SWAP1 PUSH2 0x17E4 JUMP JUMPDEST PUSH1 0x40 MLOAD DUP1 SWAP2 SUB SWAP1 RETURN JUMPDEST CALLVALUE DUP1 ISZERO PUSH2 0x1F6 JUMPI PUSH0 PUSH0 REVERT JUMPDEST POP PUSH2 0x211 PUSH1 0x4 DUP1 CALLDATASIZE SUB DUP2 ADD SWAP1 PUSH2 0x20C SWAP2 SWAP1 PUSH2 0x1886 JUMP JUMPDEST PUSH2 0x552 JUMP JUMPDEST STOP JUMPDEST CALLVALUE DUP1 ISZERO PUSH2 0x21E JUMPI PUSH0 PUSH0 REVERT JUMPDEST POP PUSH2 0x239 PUSH1 0x4 DUP1 CALLDATASIZE SUB DUP2 ADD SWAP1 PUSH2 0x234 SWAP2 SWAP1 PUSH2 0x191C JUMP JUMPDEST PUSH2 0x8FF JUMP JUMPDEST PUSH1 0x40 MLOAD PUSH2 0x246 SWAP2 SWAP1 PUSH2 0x17E4 JUMP JUMPDEST PUSH1 0x40 MLOAD DUP1 SWAP2 SUB SWAP1 RETURN JUMPDEST CALLVALUE DUP1 ISZERO PUSH2 0x25A JUMPI PUSH0 PUSH0 REVERT JUMPDEST POP PUSH2 0x263 PUSH2 0x97F JUMP JUMPDEST STOP JUMPDEST CALLVALUE DUP1 ISZERO PUSH2 0x270 JUMPI PUSH0 PUSH0 REVERT JUMPDEST POP PUSH2 0x279 PUSH2 0xBC3 JUMP JUMPDEST PUSH1 0x40 MLOAD PUSH2 0x286 SWAP2 SWAP1 PUSH2 0x198F JUMP JUMPDEST PUSH1 0x40 MLOAD DUP1 SWAP2 SUB SWAP1 RETURN JUMPDEST CALLVALUE DUP1 ISZERO PUSH2 0x29A JUMPI PUSH0 PUSH0 REVERT JUMPDEST POP PUSH2 0x2A3 PUSH2 0xBE7 JUMP JUMPDEST STOP JUMPDEST PUSH2 0x2BF PUSH1 0x4 DUP1 CALLDATASIZE SUB DUP2 ADD SWAP1 PUSH2 0x2BA SWAP2 SWAP1 PUSH2 0x19A8 JUMP JUMPDEST PUSH2 0xDA5 JUMP JUMPDEST STOP JUMPDEST CALLVALUE DUP1 ISZERO PUSH2 0x2CC JUMPI PUSH0 PUSH0 REVERT JUMPDEST POP PUSH2 0x2E7 PUSH1 0x4 DUP1 CALLDATASIZE SUB DUP2 ADD SWAP1 PUSH2 0x2E2 SWAP2 SWAP1 PUSH2 0x19E6 JUMP JUMPDEST PUSH2 0x11C0 JUMP JUMPDEST PUSH1 0x40 MLOAD PUSH2 0x2F4 SWAP2 SWAP1 PUSH2 0x198F JUMP JUMPDEST PUSH1 0x40 MLOAD DUP1 SWAP2 SUB SWAP1 RETURN JUMPDEST CALLVALUE DUP1 ISZERO PUSH2 0x308 JUMPI PUSH0 PUSH0 REVERT JUMPDEST POP PUSH2 0x311 PUSH2 0x11D5 JUMP JUMPDEST PUSH1 0x40 MLOAD PUSH2 0x31E SWAP2 SWAP1 PUSH2 0x180C JUMP JUMPDEST PUSH1 0x40 MLOAD DUP1 SWAP2 SUB SWAP1 RETURN JUMPDEST CALLVALUE DUP1 ISZERO PUSH2 0x332 JUMPI PUSH0 PUSH0 REVERT JUMPDEST POP PUSH2 0x33B PUSH2 0x11F9 JUMP JUMPDEST PUSH1 0x40 MLOAD PUSH2 0x348 SWAP2 SWAP1 PUSH2 0x198F JUMP JUMPDEST PUSH1 0x40 MLOAD DUP1 SWAP2 SUB SWAP1 RETURN JUMPDEST CALLVALUE DUP1 ISZERO PUSH2 0x35C JUMPI PUSH0 PUSH0 REVERT JUMPDEST POP PUSH2 0x365 PUSH2 0x121D JUMP JUMPDEST PUSH1 0x40 MLOAD PUSH2 0x372 SWAP2 SWAP1 PUSH2 0x1A71 JUMP JUMPDEST PUSH1 0x40 MLOAD DUP1 SWAP2 SUB SWAP1 RETURN JUMPDEST CALLVALUE DUP1 ISZERO PUSH2 0x386 JUMPI PUSH0 PUSH0 REVERT JUMPDEST POP PUSH2 0x38F PUSH2 0x1375 JUMP JUMPDEST PUSH1 0x40 MLOAD PUSH2 0x39C SWAP2 SWAP1 PUSH2 0x1AAB JUMP JUMPDEST PUSH1 0x40 MLOAD DUP1 SWAP2 SUB SWAP1 RETURN JUMPDEST CALLVALUE DUP1 ISZERO PUSH2 0x3B0 JUMPI PUSH0 PUSH0 REVERT JUMPDEST POP PUSH2 0x3B9 PUSH2 0x1387 JUMP JUMPDEST PUSH1 0x40 MLOAD PUSH2 0x3C6 SWAP2 SWAP1 PUSH2 0x198F JUMP JUMPDEST PUSH1 0x40 MLOAD DUP1 SWAP2 SUB SWAP1 RETURN JUMPDEST CALLVALUE DUP1 ISZERO PUSH2 0x3DA JUMPI PUSH0 PUSH0 REVERT JUMPDEST POP PUSH2 0x3E3 PUSH2 0x138D JUMP JUMPDEST PUSH1 0x40 MLOAD PUSH2 0x3F0 SWAP2 SWAP1 PUSH2 0x17E4 JUMP JUMPDEST PUSH1 0x40 MLOAD DUP1 SWAP2 SUB SWAP1 RETURN JUMPDEST CALLVALUE DUP1 ISZERO PUSH2 0x404 JUMPI PUSH0 PUSH0 REVERT JUMPDEST POP PUSH2 0x41F PUSH1 0x4 DUP1 CALLDATASIZE SUB DUP2 ADD SWAP1 PUSH2 0x41A SWAP2 SWAP1 PUSH2 0x19E6 JUMP JUMPDEST PUSH2 0x13B1 JUMP JUMPDEST PUSH1 0x40 MLOAD PUSH2 0x42E SWAP4 SWAP3 SWAP2 SWAP1 PUSH2 0x1AC4 JUMP JUMPDEST PUSH1 0x40 MLOAD DUP1 SWAP2 SUB SWAP1 RETURN JUMPDEST CALLVALUE DUP1 ISZERO PUSH2 0x442 JUMPI PUSH0 PUSH0 REVERT JUMPDEST POP PUSH2 0x45D PUSH1 0x4 DUP1 CALLDATASIZE SUB DUP2 ADD SWAP1 PUSH2 0x458 SWAP2 SWAP1 PUSH2 0x191C JUMP JUMPDEST PUSH2 0x13E3 JUMP JUMPDEST PUSH1 0x40 MLOAD PUSH2 0x46A SWAP2 SWAP1 PUSH2 0x17E4 JUMP JUMPDEST PUSH1 0x40 MLOAD DUP1 SWAP2 SUB SWAP1 RETURN JUMPDEST CALLVALUE DUP1 ISZERO PUSH2 0x47E JUMPI PUSH0 PUSH0 REVERT JUMPDEST POP PUSH2 0x499 PUSH1 0x4 DUP1 CALLDATASIZE SUB DUP2 ADD SWAP1 PUSH2 0x494 SWAP2 SWAP1 PUSH2 0x19E6 JUMP JUMPDEST PUSH2 0x1425 JUMP JUMPDEST PUSH1 0x40 MLOAD PUSH2 0x4A6 SWAP2 SWAP1 PUSH2 0x198F JUMP JUMPDEST PUSH1 0x40 MLOAD DUP1 SWAP2 SUB SWAP1 RETURN JUMPDEST PUSH0 PUSH32 0x0 ADDRESS CHAINID DUP7 DUP7 DUP7 PUSH1 0x40 MLOAD PUSH1 0x20 ADD PUSH2 0x4EB SWAP7 SWAP6 SWAP5 SWAP4 SWAP3 SWAP2 SWAP1 PUSH2 0x1AF9 JUMP JUMPDEST PUSH1 0x40 MLOAD PUSH1 0x20 DUP2 DUP4 SUB SUB DUP2 MSTORE SWAP1 PUSH1 0x40 MSTORE DUP1 MLOAD SWAP1 PUSH1 0x20 ADD KECCAK256 SWAP1 POP SWAP4 SWAP3 POP POP POP JUMP JUMPDEST PUSH32 0x0 DUP2 JUMP JUMPDEST PUSH32 0x0 DUP2 JUMP JUMPDEST PUSH32 0x0 TIMESTAMP LT PUSH2 0x5B4 JUMPI PUSH1 0x40 MLOAD PUSH32 0x8C379A000000000000000000000000000000000000000000000000000000000 DUP2 MSTORE PUSH1 0x4 ADD PUSH2 0x5AB SWAP1 PUSH2 0x1BA2 JUMP JUMPDEST PUSH1 0x40 MLOAD DUP1 SWAP2 SUB SWAP1 REVERT JUMPDEST DUP3 TIMESTAMP GT ISZERO PUSH2 0x5F7 JUMPI PUSH1 0x40 MLOAD PUSH32 0x8C379A000000000000000000000000000000000000000000000000000000000 DUP2 MSTORE PUSH1 0x4 ADD PUSH2 0x5EE SWAP1 PUSH2 0x1C0A JUMP JUMPDEST PUSH1 0x40 MLOAD DUP1 SWAP2 SUB SWAP1 REVERT JUMPDEST PUSH0 PUSH20 0xFFFFFFFFFFFFFFFFFFFFFFFFFFFFFFFFFFFFFFFF AND DUP7 PUSH20 0xFFFFFFFFFFFFFFFFFFFFFFFFFFFFFFFFFFFFFFFF AND SUB PUSH2 0x665 JUMPI PUSH1 0x40 MLOAD PUSH32 0x8C379A000000000000000000000000000000000000000000000000000000000 DUP2 MSTORE PUSH1 0x4 ADD PUSH2 0x65C SWAP1 PUSH2 0x1C72 JUMP JUMPDEST PUSH1 0x40 MLOAD DUP1 SWAP2 SUB SWAP1 REVERT JUMPDEST PUSH0 PUSH0 SHL DUP6 SUB PUSH2 0x6A9 JUMPI PUSH1 0x40 MLOAD PUSH32 0x8C379A000000000000000000000000000000000000000000000000000000000 DUP2 MSTORE PUSH1 0x4 ADD PUSH2 0x6A0 SWAP1 PUSH2 0x1CDA JUMP JUMPDEST PUSH1 0x40 MLOAD DUP1 SWAP2 SUB SWAP1 REVERT JUMPDEST PUSH1 0x4 PUSH0 DUP8 PUSH20 0xFFFFFFFFFFFFFFFFFFFFFFFFFFFFFFFFFFFFFFFF AND PUSH20 0xFFFFFFFFFFFFFFFFFFFFFFFFFFFFFFFFFFFFFFFF AND DUP2 MSTORE PUSH1 0x20 ADD SWAP1 DUP2 MSTORE PUSH1 0x20 ADD PUSH0 KECCAK256 SLOAD DUP5 EQ PUSH2 0x728 JUMPI PUSH1 0x40 MLOAD PUSH32 0x8C379A000000000000000000000000000000000000000000000000000000000 DUP2 MSTORE PUSH1 0x4 ADD PUSH2 0x71F SWAP1 PUSH2 0x1D42 JUMP JUMPDEST PUSH1 0x40 MLOAD DUP1 SWAP2 SUB SWAP1 REVERT JUMPDEST PUSH0 PUSH2 0x735 DUP8 DUP8 DUP8 DUP8 PUSH2 0x13E3 JUMP JUMPDEST SWAP1 POP PUSH0 PUSH2 0x743 DUP3 DUP6 DUP6 PUSH2 0x143A JUMP JUMPDEST SWAP1 POP DUP8 PUSH20 0xFFFFFFFFFFFFFFFFFFFFFFFFFFFFFFFFFFFFFFFF AND DUP2 PUSH20 0xFFFFFFFFFFFFFFFFFFFFFFFFFFFFFFFFFFFFFFFF AND EQ PUSH2 0x7B3 JUMPI PUSH1 0x40 MLOAD PUSH32 0x8C379A000000000000000000000000000000000000000000000000000000000 DUP2 MSTORE PUSH1 0x4 ADD PUSH2 0x7AA SWAP1 PUSH2 0x1DAA JUMP JUMPDEST PUSH1 0x40 MLOAD DUP1 SWAP2 SUB SWAP1 REVERT JUMPDEST PUSH1 0x1 DUP7 PUSH2 0x7C0 SWAP2 SWAP1 PUSH2 0x1DF5 JUMP JUMPDEST PUSH1 0x4 PUSH0 DUP11 PUSH20 0xFFFFFFFFFFFFFFFFFFFFFFFFFFFFFFFFFFFFFFFF AND PUSH20 0xFFFFFFFFFFFFFFFFFFFFFFFFFFFFFFFFFFFFFFFF AND DUP2 MSTORE PUSH1 0x20 ADD SWAP1 DUP2 MSTORE PUSH1 0x20 ADD PUSH0 KECCAK256 DUP2 SWAP1 SSTORE POP PUSH1 0x40 MLOAD DUP1 PUSH1 0x60 ADD PUSH1 0x40 MSTORE DUP1 DUP9 DUP2 MSTORE PUSH1 0x20 ADD DUP8 DUP2 MSTORE PUSH1 0x20 ADD PUSH0 ISZERO ISZERO DUP2 MSTORE POP PUSH1 0x3 PUSH0 DUP11 PUSH20 0xFFFFFFFFFFFFFFFFFFFFFFFFFFFFFFFFFFFFFFFF AND PUSH20 0xFFFFFFFFFFFFFFFFFFFFFFFFFFFFFFFFFFFFFFFF AND DUP2 MSTORE PUSH1 0x20 ADD SWAP1 DUP2 MSTORE PUSH1 0x20 ADD PUSH0 KECCAK256 PUSH0 DUP3 ADD MLOAD DUP2 PUSH0 ADD SSTORE PUSH1 0x20 DUP3 ADD MLOAD DUP2 PUSH1 0x1 ADD SSTORE PUSH1 0x40 DUP3 ADD MLOAD DUP2 PUSH1 0x2 ADD PUSH0 PUSH2 0x100 EXP DUP2 SLOAD DUP2 PUSH1 0xFF MUL NOT AND SWAP1 DUP4 ISZERO ISZERO MUL OR SWAP1 SSTORE POP SWAP1 POP POP CALLER PUSH20 0xFFFFFFFFFFFFFFFFFFFFFFFFFFFFFFFFFFFFFFFF AND DUP8 DUP10 PUSH20 0xFFFFFFFFFFFFFFFFFFFFFFFFFFFFFFFFFFFFFFFF AND PUSH32 0x17FBCC6E4E21B1297F78174A0E2733B509E285C1EF8414629E371F7A635F80F2 DUP10 PUSH1 0x40 MLOAD PUSH2 0x8ED SWAP2 SWAP1 PUSH2 0x198F JUMP JUMPDEST PUSH1 0x40 MLOAD DUP1 SWAP2 SUB SWAP1 LOG4 POP POP POP POP POP POP POP POP JUMP JUMPDEST PUSH0 PUSH32 0xF5F53DE1E01E354974D8391CBDB53DD5F7827082D54E624F952BFD51A484AA07 PUSH32 0x0 DUP7 DUP7 DUP7 DUP7 ADDRESS CHAINID PUSH1 0x40 MLOAD PUSH1 0x20 ADD PUSH2 0x95F SWAP9 SWAP8 SWAP7 SWAP6 SWAP5 SWAP4 SWAP3 SWAP2 SWAP1 PUSH2 0x1E28 JUMP JUMPDEST PUSH1 0x40 MLOAD PUSH1 0x20 DUP2 DUP4 SUB SUB DUP2 MSTORE SWAP1 PUSH1 0x40 MSTORE DUP1 MLOAD SWAP1 PUSH1 0x20 ADD KECCAK256 SWAP1 POP SWAP5 SWAP4 POP POP POP POP JUMP JUMPDEST PUSH1 0x2 PUSH1 0x1 SWAP1 SLOAD SWAP1 PUSH2 0x100 EXP SWAP1 DIV PUSH1 0xFF AND ISZERO PUSH2 0x9CF JUMPI PUSH1 0x40 MLOAD PUSH32 0x8C379A000000000000000000000000000000000000000000000000000000000 DUP2 MSTORE PUSH1 0x4 ADD PUSH2 0x9C6 SWAP1 PUSH2 0x1EEE JUMP JUMPDEST PUSH1 0x40 MLOAD DUP1 SWAP2 SUB SWAP1 REVERT JUMPDEST PUSH0 PUSH1 0x5 PUSH0 CALLER PUSH20 0xFFFFFFFFFFFFFFFFFFFFFFFFFFFFFFFFFFFFFFFF AND PUSH20 0xFFFFFFFFFFFFFFFFFFFFFFFFFFFFFFFFFFFFFFFF AND DUP2 MSTORE PUSH1 0x20 ADD SWAP1 DUP2 MSTORE PUSH1 0x20 ADD PUSH0 KECCAK256 SLOAD SWAP1 POP PUSH0 DUP2 GT PUSH2 0xA52 JUMPI PUSH1 0x40 MLOAD PUSH32 0x8C379A000000000000000000000000000000000000000000000000000000000 DUP2 MSTORE PUSH1 0x4 ADD PUSH2 0xA49 SWAP1 PUSH2 0x1F56 JUMP JUMPDEST PUSH1 0x40 MLOAD DUP1 SWAP2 SUB SWAP1 REVERT JUMPDEST PUSH1 0x1 PUSH1 0x2 PUSH1 0x1 PUSH2 0x100 EXP DUP2 SLOAD DUP2 PUSH1 0xFF MUL NOT AND SWAP1 DUP4 ISZERO ISZERO MUL OR SWAP1 SSTORE POP PUSH0 PUSH1 0x5 PUSH0 CALLER PUSH20 0xFFFFFFFFFFFFFFFFFFFFFFFFFFFFFFFFFFFFFFFF AND PUSH20 0xFFFFFFFFFFFFFFFFFFFFFFFFFFFFFFFFFFFFFFFF AND DUP2 MSTORE PUSH1 0x20 ADD SWAP1 DUP2 MSTORE PUSH1 0x20 ADD PUSH0 KECCAK256 DUP2 SWAP1 SSTORE POP PUSH0 CALLER PUSH20 0xFFFFFFFFFFFFFFFFFFFFFFFFFFFFFFFFFFFFFFFF AND DUP3 PUSH1 0x40 MLOAD PUSH2 0xAD4 SWAP1 PUSH2 0x1FA1 JUMP JUMPDEST PUSH0 PUSH1 0x40 MLOAD DUP1 DUP4 SUB DUP2 DUP6 DUP8 GAS CALL SWAP3 POP POP POP RETURNDATASIZE DUP1 PUSH0 DUP2 EQ PUSH2 0xB0E JUMPI PUSH1 0x40 MLOAD SWAP2 POP PUSH1 0x1F NOT PUSH1 0x3F RETURNDATASIZE ADD AND DUP3 ADD PUSH1 0x40 MSTORE RETURNDATASIZE DUP3 MSTORE RETURNDATASIZE PUSH0 PUSH1 0x20 DUP5 ADD RETURNDATACOPY PUSH2 0xB13 JUMP JUMPDEST PUSH1 0x60 SWAP2 POP JUMPDEST POP POP SWAP1 POP DUP1 PUSH2 0xB57 JUMPI PUSH1 0x40 MLOAD PUSH32 0x8C379A000000000000000000000000000000000000000000000000000000000 DUP2 MSTORE PUSH1 0x4 ADD PUSH2 0xB4E SWAP1 PUSH2 0x1FFF JUMP JUMPDEST PUSH1 0x40 MLOAD DUP1 SWAP2 SUB SWAP1 REVERT JUMPDEST PUSH0 PUSH1 0x2 PUSH1 0x1 PUSH2 0x100 EXP DUP2 SLOAD DUP2 PUSH1 0xFF MUL NOT AND SWAP1 DUP4 ISZERO ISZERO MUL OR SWAP1 SSTORE POP CALLER PUSH20 0xFFFFFFFFFFFFFFFFFFFFFFFFFFFFFFFFFFFFFFFF AND PUSH32 0x7FCF532C15F0A6DB0BD6D0E038BEA71D30D808C7D98CB3BF7268A95BF5081B65 DUP4 PUSH1 0x40 MLOAD PUSH2 0xBB7 SWAP2 SWAP1 PUSH2 0x198F JUMP JUMPDEST PUSH1 0x40 MLOAD DUP1 SWAP2 SUB SWAP1 LOG2 POP POP JUMP JUMPDEST PUSH32 0x0 DUP2 JUMP JUMPDEST PUSH32 0x0 TIMESTAMP LT ISZERO PUSH2 0xC4A JUMPI PUSH1 0x40 MLOAD PUSH32 0x8C379A000000000000000000000000000000000000000000000000000000000 DUP2 MSTORE PUSH1 0x4 ADD PUSH2 0xC41 SWAP1 PUSH2 0x2067 JUMP JUMPDEST PUSH1 0x40 MLOAD DUP1 SWAP2 SUB SWAP1 REVERT JUMPDEST PUSH1 0x2 PUSH0 SWAP1 SLOAD SWAP1 PUSH2 0x100 EXP SWAP1 DIV PUSH1 0xFF AND ISZERO PUSH2 0xC99 JUMPI PUSH1 0x40 MLOAD PUSH32 0x8C379A000000000000000000000000000000000000000000000000000000000 DUP2 MSTORE PUSH1 0x4 ADD PUSH2 0xC90 SWAP1 PUSH2 0x20CF JUMP JUMPDEST PUSH1 0x40 MLOAD DUP1 SWAP2 SUB SWAP1 REVERT JUMPDEST PUSH1 0x1 PUSH1 0x2 PUSH0 PUSH2 0x100 EXP DUP2 SLOAD DUP2 PUSH1 0xFF MUL NOT AND SWAP1 DUP4 ISZERO ISZERO MUL OR SWAP1 SSTORE POP PUSH0 PUSH1 0x1 SLOAD GT ISZERO PUSH2 0xD33 JUMPI PUSH1 0x1 SLOAD PUSH1 0x5 PUSH0 PUSH32 0x0 PUSH20 0xFFFFFFFFFFFFFFFFFFFFFFFFFFFFFFFFFFFFFFFF AND PUSH20 0xFFFFFFFFFFFFFFFFFFFFFFFFFFFFFFFFFFFFFFFF AND DUP2 MSTORE PUSH1 0x20 ADD SWAP1 DUP2 MSTORE PUSH1 0x20 ADD PUSH0 KECCAK256 PUSH0 DUP3 DUP3 SLOAD PUSH2 0xD2B SWAP2 SWAP1 PUSH2 0x1DF5 JUMP JUMPDEST SWAP3 POP POP DUP2 SWAP1 SSTORE POP JUMPDEST PUSH0 PUSH0 SWAP1 SLOAD SWAP1 PUSH2 0x100 EXP SWAP1 DIV PUSH20 0xFFFFFFFFFFFFFFFFFFFFFFFFFFFFFFFFFFFFFFFF AND PUSH20 0xFFFFFFFFFFFFFFFFFFFFFFFFFFFFFFFFFFFFFFFF AND PUSH32 0x357AFAB190EE87FE0EF1C717F2728D2904D9E415A069D99F4D9382873CB3279D PUSH1 0x1 SLOAD PUSH1 0x40 MLOAD PUSH2 0xD9B SWAP2 SWAP1 PUSH2 0x198F JUMP JUMPDEST PUSH1 0x40 MLOAD DUP1 SWAP2 SUB SWAP1 LOG2 JUMP JUMPDEST PUSH32 0x0 TIMESTAMP LT ISZERO PUSH2 0xE08 JUMPI PUSH1 0x40 MLOAD PUSH32 0x8C379A000000000000000000000000000000000000000000000000000000000 DUP2 MSTORE PUSH1 0x4 ADD PUSH2 0xDFF SWAP1 PUSH2 0x2137 JUMP JUMPDEST PUSH1 0x40 MLOAD DUP1 SWAP2 SUB SWAP1 REVERT JUMPDEST PUSH32 0x0 TIMESTAMP LT PUSH2 0xE6A JUMPI PUSH1 0x40 MLOAD PUSH32 0x8C379A000000000000000000000000000000000000000000000000000000000 DUP2 MSTORE PUSH1 0x4 ADD PUSH2 0xE61 SWAP1 PUSH2 0x219F JUMP JUMPDEST PUSH1 0x40 MLOAD DUP1 SWAP2 SUB SWAP1 REVERT JUMPDEST DUP2 CALLVALUE EQ PUSH2 0xEAC JUMPI PUSH1 0x40 MLOAD PUSH32 0x8C379A000000000000000000000000000000000000000000000000000000000 DUP2 MSTORE PUSH1 0x4 ADD PUSH2 0xEA3 SWAP1 PUSH2 0x2207 JUMP JUMPDEST PUSH1 0x40 MLOAD DUP1 SWAP2 SUB SWAP1 REVERT JUMPDEST PUSH0 PUSH1 0x3 PUSH0 CALLER PUSH20 0xFFFFFFFFFFFFFFFFFFFFFFFFFFFFFFFFFFFFFFFF AND PUSH20 0xFFFFFFFFFFFFFFFFFFFFFFFFFFFFFFFFFFFFFFFF AND DUP2 MSTORE PUSH1 0x20 ADD SWAP1 DUP2 MSTORE PUSH1 0x20 ADD PUSH0 KECCAK256 SWAP1 POP PUSH0 PUSH0 SHL DUP2 PUSH0 ADD SLOAD SUB PUSH2 0xF33 JUMPI PUSH1 0x40 MLOAD PUSH32 0x8C379A000000000000000000000000000000000000000000000000000000000 DUP2 MSTORE PUSH1 0x4 ADD PUSH2 0xF2A SWAP1 PUSH2 0x226F JUMP JUMPDEST PUSH1 0x40 MLOAD DUP1 SWAP2 SUB SWAP1 REVERT JUMPDEST DUP1 PUSH1 0x2 ADD PUSH0 SWAP1 SLOAD SWAP1 PUSH2 0x100 EXP SWAP1 DIV PUSH1 0xFF AND ISZERO PUSH2 0xF84 JUMPI PUSH1 0x40 MLOAD PUSH32 0x8C379A000000000000000000000000000000000000000000000000000000000 DUP2 MSTORE PUSH1 0x4 ADD PUSH2 0xF7B SWAP1 PUSH2 0x22D7 JUMP JUMPDEST PUSH1 0x40 MLOAD DUP1 SWAP2 SUB SWAP1 REVERT JUMPDEST PUSH0 PUSH2 0xF90 CALLER DUP6 DUP6 PUSH2 0x4AF JUMP JUMPDEST SWAP1 POP DUP2 PUSH0 ADD SLOAD DUP2 EQ PUSH2 0xFD7 JUMPI PUSH1 0x40 MLOAD PUSH32 0x8C379A000000000000000000000000000000000000000000000000000000000 DUP2 MSTORE PUSH1 0x4 ADD PUSH2 0xFCE SWAP1 PUSH2 0x233F JUMP JUMPDEST PUSH1 0x40 MLOAD DUP1 SWAP2 SUB SWAP1 REVERT JUMPDEST PUSH1 0x1 DUP3 PUSH1 0x2 ADD PUSH0 PUSH2 0x100 EXP DUP2 SLOAD DUP2 PUSH1 0xFF MUL NOT AND SWAP1 DUP4 ISZERO ISZERO MUL OR SWAP1 SSTORE POP PUSH0 PUSH1 0x1 SLOAD DUP6 GT SWAP1 POP DUP1 ISZERO PUSH2 0x1115 JUMPI PUSH0 PUSH20 0xFFFFFFFFFFFFFFFFFFFFFFFFFFFFFFFFFFFFFFFF AND PUSH0 PUSH0 SWAP1 SLOAD SWAP1 PUSH2 0x100 EXP SWAP1 DIV PUSH20 0xFFFFFFFFFFFFFFFFFFFFFFFFFFFFFFFFFFFFFFFF AND PUSH20 0xFFFFFFFFFFFFFFFFFFFFFFFFFFFFFFFFFFFFFFFF AND EQ PUSH2 0x10CA JUMPI PUSH1 0x1 SLOAD PUSH1 0x5 PUSH0 PUSH0 PUSH0 SWAP1 SLOAD SWAP1 PUSH2 0x100 EXP SWAP1 DIV PUSH20 0xFFFFFFFFFFFFFFFFFFFFFFFFFFFFFFFFFFFFFFFF AND PUSH20 0xFFFFFFFFFFFFFFFFFFFFFFFFFFFFFFFFFFFFFFFF AND PUSH20 0xFFFFFFFFFFFFFFFFFFFFFFFFFFFFFFFFFFFFFFFF AND DUP2 MSTORE PUSH1 0x20 ADD SWAP1 DUP2 MSTORE PUSH1 0x20 ADD PUSH0 KECCAK256 PUSH0 DUP3 DUP3 SLOAD PUSH2 0x10C2 SWAP2 SWAP1 PUSH2 0x1DF5 JUMP JUMPDEST SWAP3 POP POP DUP2 SWAP1 SSTORE POP JUMPDEST CALLER PUSH0 PUSH0 PUSH2 0x100 EXP DUP2 SLOAD DUP2 PUSH20 0xFFFFFFFFFFFFFFFFFFFFFFFFFFFFFFFFFFFFFFFF MUL NOT AND SWAP1 DUP4 PUSH20 0xFFFFFFFFFFFFFFFFFFFFFFFFFFFFFFFFFFFFFFFF AND MUL OR SWAP1 SSTORE POP DUP5 PUSH1 0x1 DUP2 SWAP1 SSTORE POP PUSH2 0x1169 JUMP JUMPDEST DUP5 PUSH1 0x5 PUSH0 CALLER PUSH20 0xFFFFFFFFFFFFFFFFFFFFFFFFFFFFFFFFFFFFFFFF AND PUSH20 0xFFFFFFFFFFFFFFFFFFFFFFFFFFFFFFFFFFFFFFFF AND DUP2 MSTORE PUSH1 0x20 ADD SWAP1 DUP2 MSTORE PUSH1 0x20 ADD PUSH0 KECCAK256 PUSH0 DUP3 DUP3 SLOAD PUSH2 0x1161 SWAP2 SWAP1 PUSH2 0x1DF5 JUMP JUMPDEST SWAP3 POP POP DUP2 SWAP1 SSTORE POP JUMPDEST CALLER PUSH20 0xFFFFFFFFFFFFFFFFFFFFFFFFFFFFFFFFFFFFFFFF AND PUSH32 0x9C2D1DFF1E244149EEF8B49255674D40752ACD825B23D4AD303807F98FE59532 DUP7 DUP4 PUSH1 0x40 MLOAD PUSH2 0x11B1 SWAP3 SWAP2 SWAP1 PUSH2 0x235D JUMP JUMPDEST PUSH1 0x40 MLOAD DUP1 SWAP2 SUB SWAP1 LOG2 POP POP POP POP POP JUMP JUMPDEST PUSH1 0x4 PUSH1 0x20 MSTORE DUP1 PUSH0 MSTORE PUSH1 0x40 PUSH0 KECCAK256 PUSH0 SWAP2 POP SWAP1 POP SLOAD DUP2 JUMP JUMPDEST PUSH0 PUSH0 SWAP1 SLOAD SWAP1 PUSH2 0x100 EXP SWAP1 DIV PUSH20 0xFFFFFFFFFFFFFFFFFFFFFFFFFFFFFFFFFFFFFFFF AND DUP2 JUMP JUMPDEST PUSH32 0x0 DUP2 JUMP JUMPDEST PUSH1 0x60 PUSH32 0x0 TIMESTAMP LT ISZERO PUSH2 0x1284 JUMPI PUSH1 0x40 MLOAD DUP1 PUSH1 0x40 ADD PUSH1 0x40 MSTORE DUP1 PUSH1 0x6 DUP2 MSTORE PUSH1 0x20 ADD PUSH32 0x434F4D4D49540000000000000000000000000000000000000000000000000000 DUP2 MSTORE POP SWAP1 POP PUSH2 0x1372 JUMP JUMPDEST PUSH32 0x0 TIMESTAMP LT ISZERO PUSH2 0x12E9 JUMPI PUSH1 0x40 MLOAD DUP1 PUSH1 0x40 ADD PUSH1 0x40 MSTORE DUP1 PUSH1 0x6 DUP2 MSTORE PUSH1 0x20 ADD PUSH32 0x52455645414C0000000000000000000000000000000000000000000000000000 DUP2 MSTORE POP SWAP1 POP PUSH2 0x1372 JUMP JUMPDEST PUSH1 0x2 PUSH0 SWAP1 SLOAD SWAP1 PUSH2 0x100 EXP SWAP1 DIV PUSH1 0xFF AND PUSH2 0x1339 JUMPI PUSH1 0x40 MLOAD DUP1 PUSH1 0x40 ADD PUSH1 0x40 MSTORE DUP1 PUSH1 0x11 DUP2 MSTORE PUSH1 0x20 ADD PUSH32 0x52454144595F544F5F46494E414C495A45000000000000000000000000000000 DUP2 MSTORE POP SWAP1 POP PUSH2 0x1372 JUMP JUMPDEST PUSH1 0x40 MLOAD DUP1 PUSH1 0x40 ADD PUSH1 0x40 MSTORE DUP1 PUSH1 0x9 DUP2 MSTORE PUSH1 0x20 ADD PUSH32 0x46494E414C495A45440000000000000000000000000000000000000000000000 DUP2 MSTORE POP SWAP1 POP JUMPDEST SWAP1 JUMP JUMPDEST PUSH1 0x2 PUSH0 SWAP1 SLOAD SWAP1 PUSH2 0x100 EXP SWAP1 DIV PUSH1 0xFF AND DUP2 JUMP JUMPDEST PUSH1 0x1 SLOAD DUP2 JUMP JUMPDEST PUSH32 0xF5F53DE1E01E354974D8391CBDB53DD5F7827082D54E624F952BFD51A484AA07 DUP2 JUMP JUMPDEST PUSH1 0x3 PUSH1 0x20 MSTORE DUP1 PUSH0 MSTORE PUSH1 0x40 PUSH0 KECCAK256 PUSH0 SWAP2 POP SWAP1 POP DUP1 PUSH0 ADD SLOAD SWAP1 DUP1 PUSH1 0x1 ADD SLOAD SWAP1 DUP1 PUSH1 0x2 ADD PUSH0 SWAP1 SLOAD SWAP1 PUSH2 0x100 EXP SWAP1 DIV PUSH1 0xFF AND SWAP1 POP DUP4 JUMP JUMPDEST PUSH0 PUSH0 PUSH2 0x13F1 DUP7 DUP7 DUP7 DUP7 PUSH2 0x8FF JUMP JUMPDEST SWAP1 POP DUP1 PUSH1 0x40 MLOAD PUSH1 0x20 ADD PUSH2 0x1404 SWAP2 SWAP1 PUSH2 0x23F8 JUMP JUMPDEST PUSH1 0x40 MLOAD PUSH1 0x20 DUP2 DUP4 SUB SUB DUP2 MSTORE SWAP1 PUSH1 0x40 MSTORE DUP1 MLOAD SWAP1 PUSH1 0x20 ADD KECCAK256 SWAP2 POP POP SWAP5 SWAP4 POP POP POP POP JUMP JUMPDEST PUSH1 0x5 PUSH1 0x20 MSTORE DUP1 PUSH0 MSTORE PUSH1 0x40 PUSH0 KECCAK256 PUSH0 SWAP2 POP SWAP1 POP SLOAD DUP2 JUMP JUMPDEST PUSH0 PUSH1 0x41 DUP4 DUP4 SWAP1 POP EQ PUSH2 0x1481 JUMPI PUSH1 0x40 MLOAD PUSH32 0x8C379A000000000000000000000000000000000000000000000000000000000 DUP2 MSTORE PUSH1 0x4 ADD PUSH2 0x1478 SWAP1 PUSH2 0x2467 JUMP JUMPDEST PUSH1 0x40 MLOAD DUP1 SWAP2 SUB SWAP1 REVERT JUMPDEST PUSH0 PUSH0 PUSH0 DUP6 CALLDATALOAD SWAP3 POP PUSH1 0x20 DUP7 ADD CALLDATALOAD SWAP2 POP PUSH1 0x40 DUP7 ADD CALLDATALOAD PUSH0 BYTE SWAP1 POP PUSH1 0x1B DUP2 PUSH1 0xFF AND LT ISZERO PUSH2 0x14B4 JUMPI PUSH1 0x1B DUP2 PUSH2 0x14B1 SWAP2 SWAP1 PUSH2 0x2491 JUMP JUMPDEST SWAP1 POP JUMPDEST PUSH1 0x1B DUP2 PUSH1 0xFF AND EQ DUP1 PUSH2 0x14C9 JUMPI POP PUSH1 0x1C DUP2 PUSH1 0xFF AND EQ JUMPDEST PUSH2 0x1508 JUMPI PUSH1 0x40 MLOAD PUSH32 0x8C379A000000000000000000000000000000000000000000000000000000000 DUP2 MSTORE PUSH1 0x4 ADD PUSH2 0x14FF SWAP1 PUSH2 0x250F JUMP JUMPDEST PUSH1 0x40 MLOAD DUP1 SWAP2 SUB SWAP1 REVERT JUMPDEST PUSH0 DUP3 PUSH0 SHR GT DUP1 ISZERO PUSH2 0x153B JUMPI POP PUSH32 0x7FFFFFFFFFFFFFFFFFFFFFFFFFFFFFFF5D576E7357A4501DDFE92F46681B20A0 DUP3 PUSH0 SHR GT ISZERO JUMPDEST PUSH2 0x157A JUMPI PUSH1 0x40 MLOAD PUSH32 0x8C379A000000000000000000000000000000000000000000000000000000000 DUP2 MSTORE PUSH1 0x4 ADD PUSH2 0x1571 SWAP1 PUSH2 0x2577 JUMP JUMPDEST PUSH1 0x40 MLOAD DUP1 SWAP2 SUB SWAP1 REVERT JUMPDEST PUSH0 PUSH1 0x1 DUP9 DUP4 DUP7 DUP7 PUSH1 0x40 MLOAD PUSH0 DUP2 MSTORE PUSH1 0x20 ADD PUSH1 0x40 MSTORE PUSH1 0x40 MLOAD PUSH2 0x159D SWAP5 SWAP4 SWAP3 SWAP2 SWAP1 PUSH2 0x25A4 JUMP JUMPDEST PUSH1 0x20 PUSH1 0x40 MLOAD PUSH1 0x20 DUP2 SUB SWAP1 DUP1 DUP5 SUB SWAP1 DUP6 GAS STATICCALL ISZERO DUP1 ISZERO PUSH2 0x15BD JUMPI RETURNDATASIZE PUSH0 PUSH0 RETURNDATACOPY RETURNDATASIZE PUSH0 REVERT JUMPDEST POP POP POP PUSH1 0x20 PUSH1 0x40 MLOAD SUB MLOAD SWAP1 POP PUSH0 PUSH20 0xFFFFFFFFFFFFFFFFFFFFFFFFFFFFFFFFFFFFFFFF AND DUP2 PUSH20 0xFFFFFFFFFFFFFFFFFFFFFFFFFFFFFFFFFFFFFFFF AND SUB PUSH2 0x1637 JUMPI PUSH1 0x40 MLOAD PUSH32 0x8C379A000000000000000000000000000000000000000000000000000000000 DUP2 MSTORE PUSH1 0x4 ADD PUSH2 0x162E SWAP1 PUSH2 0x2631 JUMP JUMPDEST PUSH1 0x40 MLOAD DUP1 SWAP2 SUB SWAP1 REVERT JUMPDEST DUP1 SWAP5 POP POP POP POP POP SWAP4 SWAP3 POP POP POP JUMP JUMPDEST PUSH0 DUP3 DUP3 MSTORE PUSH1 0x20 DUP3 ADD SWAP1 POP SWAP3 SWAP2 POP POP JUMP JUMPDEST PUSH32 0x5573652072657665616C42696400000000000000000000000000000000000000 PUSH0 DUP3 ADD MSTORE POP JUMP JUMPDEST PUSH0 PUSH2 0x1689 PUSH1 0xD DUP4 PUSH2 0x1645 JUMP JUMPDEST SWAP2 POP PUSH2 0x1694 DUP3 PUSH2 0x1655 JUMP JUMPDEST PUSH1 0x20 DUP3 ADD SWAP1 POP SWAP2 SWAP1 POP JUMP JUMPDEST PUSH0 PUSH1 0x20 DUP3 ADD SWAP1 POP DUP2 DUP2 SUB PUSH0 DUP4 ADD MSTORE PUSH2 0x16B6 DUP2 PUSH2 0x167D JUMP JUMPDEST SWAP1 POP SWAP2 SWAP1 POP JUMP JUMPDEST PUSH0 PUSH0 REVERT JUMPDEST PUSH0 PUSH0 REVERT JUMPDEST PUSH0 PUSH20 0xFFFFFFFFFFFFFFFFFFFFFFFFFFFFFFFFFFFFFFFF DUP3 AND SWAP1 POP SWAP2 SWAP1 POP JUMP JUMPDEST PUSH0 PUSH2 0x16EE DUP3 PUSH2 0x16C5 JUMP JUMPDEST SWAP1 POP SWAP2 SWAP1 POP JUMP JUMPDEST PUSH2 0x16FE DUP2 PUSH2 0x16E4 JUMP JUMPDEST DUP2 EQ PUSH2 0x1708 JUMPI PUSH0 PUSH0 REVERT JUMPDEST POP JUMP JUMPDEST PUSH0 DUP2 CALLDATALOAD SWAP1 POP PUSH2 0x1719 DUP2 PUSH2 0x16F5 JUMP JUMPDEST SWAP3 SWAP2 POP POP JUMP JUMPDEST PUSH0 DUP2 SWAP1 POP SWAP2 SWAP1 POP JUMP JUMPDEST PUSH2 0x1731 DUP2 PUSH2 0x171F JUMP JUMPDEST DUP2 EQ PUSH2 0x173B JUMPI PUSH0 PUSH0 REVERT JUMPDEST POP JUMP JUMPDEST PUSH0 DUP2 CALLDATALOAD SWAP1 POP PUSH2 0x174C DUP2 PUSH2 0x1728 JUMP JUMPDEST SWAP3 SWAP2 POP POP JUMP JUMPDEST PUSH0 DUP2 SWAP1 POP SWAP2 SWAP1 POP JUMP JUMPDEST PUSH2 0x1764 DUP2 PUSH2 0x1752 JUMP JUMPDEST DUP2 EQ PUSH2 0x176E JUMPI PUSH0 PUSH0 REVERT JUMPDEST POP JUMP JUMPDEST PUSH0 DUP2 CALLDATALOAD SWAP1 POP PUSH2 0x177F DUP2 PUSH2 0x175B JUMP JUMPDEST SWAP3 SWAP2 POP POP JUMP JUMPDEST PUSH0 PUSH0 PUSH0 PUSH1 0x60 DUP5 DUP7 SUB SLT ISZERO PUSH2 0x179C JUMPI PUSH2 0x179B PUSH2 0x16BD JUMP JUMPDEST JUMPDEST PUSH0 PUSH2 0x17A9 DUP7 DUP3 DUP8 ADD PUSH2 0x170B JUMP JUMPDEST SWAP4 POP POP PUSH1 0x20 PUSH2 0x17BA DUP7 DUP3 DUP8 ADD PUSH2 0x173E JUMP JUMPDEST SWAP3 POP POP PUSH1 0x40 PUSH2 0x17CB DUP7 DUP3 DUP8 ADD PUSH2 0x1771 JUMP JUMPDEST SWAP2 POP POP SWAP3 POP SWAP3 POP SWAP3 JUMP JUMPDEST PUSH2 0x17DE DUP2 PUSH2 0x1752 JUMP JUMPDEST DUP3 MSTORE POP POP JUMP JUMPDEST PUSH0 PUSH1 0x20 DUP3 ADD SWAP1 POP PUSH2 0x17F7 PUSH0 DUP4 ADD DUP5 PUSH2 0x17D5 JUMP JUMPDEST SWAP3 SWAP2 POP POP JUMP JUMPDEST PUSH2 0x1806 DUP2 PUSH2 0x16E4 JUMP JUMPDEST DUP3 MSTORE POP POP JUMP JUMPDEST PUSH0 PUSH1 0x20 DUP3 ADD SWAP1 POP PUSH2 0x181F PUSH0 DUP4 ADD DUP5 PUSH2 0x17FD JUMP JUMPDEST SWAP3 SWAP2 POP POP JUMP JUMPDEST PUSH0 PUSH0 REVERT JUMPDEST PUSH0 PUSH0 REVERT JUMPDEST PUSH0 PUSH0 REVERT JUMPDEST PUSH0 PUSH0 DUP4 PUSH1 0x1F DUP5 ADD SLT PUSH2 0x1846 JUMPI PUSH2 0x1845 PUSH2 0x1825 JUMP JUMPDEST JUMPDEST DUP3 CALLDATALOAD SWAP1 POP PUSH8 0xFFFFFFFFFFFFFFFF DUP2 GT ISZERO PUSH2 0x1863 JUMPI PUSH2 0x1862 PUSH2 0x1829 JUMP JUMPDEST JUMPDEST PUSH1 0x20 DUP4 ADD SWAP2 POP DUP4 PUSH1 0x1 DUP3 MUL DUP4 ADD GT ISZERO PUSH2 0x187F JUMPI PUSH2 0x187E PUSH2 0x182D JUMP JUMPDEST JUMPDEST SWAP3 POP SWAP3 SWAP1 POP JUMP JUMPDEST PUSH0 PUSH0 PUSH0 PUSH0 PUSH0 PUSH0 PUSH1 0xA0 DUP8 DUP10 SUB SLT ISZERO PUSH2 0x18A0 JUMPI PUSH2 0x189F PUSH2 0x16BD JUMP JUMPDEST JUMPDEST PUSH0 PUSH2 0x18AD DUP10 DUP3 DUP11 ADD PUSH2 0x170B JUMP JUMPDEST SWAP7 POP POP PUSH1 0x20 PUSH2 0x18BE DUP10 DUP3 DUP11 ADD PUSH2 0x1771 JUMP JUMPDEST SWAP6 POP POP PUSH1 0x40 PUSH2 0x18CF DUP10 DUP3 DUP11 ADD PUSH2 0x173E JUMP JUMPDEST SWAP5 POP POP PUSH1 0x60 PUSH2 0x18E0 DUP10 DUP3 DUP11 ADD PUSH2 0x173E JUMP JUMPDEST SWAP4 POP POP PUSH1 0x80 DUP8 ADD CALLDATALOAD PUSH8 0xFFFFFFFFFFFFFFFF DUP2 GT ISZERO PUSH2 0x1901 JUMPI PUSH2 0x1900 PUSH2 0x16C1 JUMP JUMPDEST JUMPDEST PUSH2 0x190D DUP10 DUP3 DUP11 ADD PUSH2 0x1831 JUMP JUMPDEST SWAP3 POP SWAP3 POP POP SWAP3 SWAP6 POP SWAP3 SWAP6 POP SWAP3 SWAP6 JUMP JUMPDEST PUSH0 PUSH0 PUSH0 PUSH0 PUSH1 0x80 DUP6 DUP8 SUB SLT ISZERO PUSH2 0x1934 JUMPI PUSH2 0x1933 PUSH2 0x16BD JUMP JUMPDEST JUMPDEST PUSH0 PUSH2 0x1941 DUP8 DUP3 DUP9 ADD PUSH2 0x170B JUMP JUMPDEST SWAP5 POP POP PUSH1 0x20 PUSH2 0x1952 DUP8 DUP3 DUP9 ADD PUSH2 0x1771 JUMP JUMPDEST SWAP4 POP POP PUSH1 0x40 PUSH2 0x1963 DUP8 DUP3 DUP9 ADD PUSH2 0x173E JUMP JUMPDEST SWAP3 POP POP PUSH1 0x60 PUSH2 0x1974 DUP8 DUP3 DUP9 ADD PUSH2 0x173E JUMP JUMPDEST SWAP2 POP POP SWAP3 SWAP6 SWAP2 SWAP5 POP SWAP3 POP JUMP JUMPDEST PUSH2 0x1989 DUP2 PUSH2 0x171F JUMP JUMPDEST DUP3 MSTORE POP POP JUMP JUMPDEST PUSH0 PUSH1 0x20 DUP3 ADD SWAP1 POP PUSH2 0x19A2 PUSH0 DUP4 ADD DUP5 PUSH2 0x1980 JUMP JUMPDEST SWAP3 SWAP2 POP POP JUMP JUMPDEST PUSH0 PUSH0 PUSH1 0x40 DUP4 DUP6 SUB SLT ISZERO PUSH2 0x19BE JUMPI PUSH2 0x19BD PUSH2 0x16BD JUMP JUMPDEST JUMPDEST PUSH0 PUSH2 0x19CB DUP6 DUP3 DUP7 ADD PUSH2 0x173E JUMP JUMPDEST SWAP3 POP POP PUSH1 0x20 PUSH2 0x19DC DUP6 DUP3 DUP7 ADD PUSH2 0x1771 JUMP JUMPDEST SWAP2 POP POP SWAP3 POP SWAP3 SWAP1 POP JUMP JUMPDEST PUSH0 PUSH1 0x20 DUP3 DUP5 SUB SLT ISZERO PUSH2 0x19FB JUMPI PUSH2 0x19FA PUSH2 0x16BD JUMP JUMPDEST JUMPDEST PUSH0 PUSH2 0x1A08 DUP5 DUP3 DUP6 ADD PUSH2 0x170B JUMP JUMPDEST SWAP2 POP POP SWAP3 SWAP2 POP POP JUMP JUMPDEST PUSH0 DUP2 MLOAD SWAP1 POP SWAP2 SWAP1 POP JUMP JUMPDEST DUP3 DUP2 DUP4 MCOPY PUSH0 DUP4 DUP4 ADD MSTORE POP POP POP JUMP JUMPDEST PUSH0 PUSH1 0x1F NOT PUSH1 0x1F DUP4 ADD AND SWAP1 POP SWAP2 SWAP1 POP JUMP JUMPDEST PUSH0 PUSH2 0x1A43 DUP3 PUSH2 0x1A11 JUMP JUMPDEST PUSH2 0x1A4D DUP2 DUP6 PUSH2 0x1645 JUMP JUMPDEST SWAP4 POP PUSH2 0x1A5D DUP2 DUP6 PUSH1 0x20 DUP7 ADD PUSH2 0x1A1B JUMP JUMPDEST PUSH2 0x1A66 DUP2 PUSH2 0x1A29 JUMP JUMPDEST DUP5 ADD SWAP2 POP POP SWAP3 SWAP2 POP POP JUMP JUMPDEST PUSH0 PUSH1 0x20 DUP3 ADD SWAP1 POP DUP2 DUP2 SUB PUSH0 DUP4 ADD MSTORE PUSH2 0x1A89 DUP2 DUP5 PUSH2 0x1A39 JUMP JUMPDEST SWAP1 POP SWAP3 SWAP2 POP POP JUMP JUMPDEST PUSH0 DUP2 ISZERO ISZERO SWAP1 POP SWAP2 SWAP1 POP JUMP JUMPDEST PUSH2 0x1AA5 DUP2 PUSH2 0x1A91 JUMP JUMPDEST DUP3 MSTORE POP POP JUMP JUMPDEST PUSH0 PUSH1 0x20 DUP3 ADD SWAP1 POP PUSH2 0x1ABE PUSH0 DUP4 ADD DUP5 PUSH2 0x1A9C JUMP JUMPDEST SWAP3 SWAP2 POP POP JUMP JUMPDEST PUSH0 PUSH1 0x60 DUP3 ADD SWAP1 POP PUSH2 0x1AD7 PUSH0 DUP4 ADD DUP7 PUSH2 0x17D5 JUMP JUMPDEST PUSH2 0x1AE4 PUSH1 0x20 DUP4 ADD DUP6 PUSH2 0x1980 JUMP JUMPDEST PUSH2 0x1AF1 PUSH1 0x40 DUP4 ADD DUP5 PUSH2 0x1A9C JUMP JUMPDEST SWAP5 SWAP4 POP POP POP POP JUMP JUMPDEST PUSH0 PUSH1 0xC0 DUP3 ADD SWAP1 POP PUSH2 0x1B0C PUSH0 DUP4 ADD DUP10 PUSH2 0x17D5 JUMP JUMPDEST PUSH2 0x1B19 PUSH1 0x20 DUP4 ADD DUP9 PUSH2 0x17FD JUMP JUMPDEST PUSH2 0x1B26 PUSH1 0x40 DUP4 ADD DUP8 PUSH2 0x1980 JUMP JUMPDEST PUSH2 0x1B33 PUSH1 0x60 DUP4 ADD DUP7 PUSH2 0x17FD JUMP JUMPDEST PUSH2 0x1B40 PUSH1 0x80 DUP4 ADD DUP6 PUSH2 0x1980 JUMP JUMPDEST PUSH2 0x1B4D PUSH1 0xA0 DUP4 ADD DUP5 PUSH2 0x17D5 JUMP JUMPDEST SWAP8 SWAP7 POP POP POP POP POP POP POP JUMP JUMPDEST PUSH32 0x436F6D6D697420706861736520656E6465640000000000000000000000000000 PUSH0 DUP3 ADD MSTORE POP JUMP JUMPDEST PUSH0 PUSH2 0x1B8C PUSH1 0x12 DUP4 PUSH2 0x1645 JUMP JUMPDEST SWAP2 POP PUSH2 0x1B97 DUP3 PUSH2 0x1B58 JUMP JUMPDEST PUSH1 0x20 DUP3 ADD SWAP1 POP SWAP2 SWAP1 POP JUMP JUMPDEST PUSH0 PUSH1 0x20 DUP3 ADD SWAP1 POP DUP2 DUP2 SUB PUSH0 DUP4 ADD MSTORE PUSH2 0x1BB9 DUP2 PUSH2 0x1B80 JUMP JUMPDEST SWAP1 POP SWAP2 SWAP1 POP JUMP JUMPDEST PUSH32 0x5369676E61747572652065787069726564000000000000000000000000000000 PUSH0 DUP3 ADD MSTORE POP JUMP JUMPDEST PUSH0 PUSH2 0x1BF4 PUSH1 0x11 DUP4 PUSH2 0x1645 JUMP JUMPDEST SWAP2 POP PUSH2 0x1BFF DUP3 PUSH2 0x1BC0 JUMP JUMPDEST PUSH1 0x20 DUP3 ADD SWAP1 POP SWAP2 SWAP1 POP JUMP JUMPDEST PUSH0 PUSH1 0x20 DUP3 ADD SWAP1 POP DUP2 DUP2 SUB PUSH0 DUP4 ADD MSTORE PUSH2 0x1C21 DUP2 PUSH2 0x1BE8 JUMP JUMPDEST SWAP1 POP SWAP2 SWAP1 POP JUMP JUMPDEST PUSH32 0x496E76616C696420626964646572000000000000000000000000000000000000 PUSH0 DUP3 ADD MSTORE POP JUMP JUMPDEST PUSH0 PUSH2 0x1C5C PUSH1 0xE DUP4 PUSH2 0x1645 JUMP JUMPDEST SWAP2 POP PUSH2 0x1C67 DUP3 PUSH2 0x1C28 JUMP JUMPDEST PUSH1 0x20 DUP3 ADD SWAP1 POP SWAP2 SWAP1 POP JUMP JUMPDEST PUSH0 PUSH1 0x20 DUP3 ADD SWAP1 POP DUP2 DUP2 SUB PUSH0 DUP4 ADD MSTORE PUSH2 0x1C89 DUP2 PUSH2 0x1C50 JUMP JUMPDEST SWAP1 POP SWAP2 SWAP1 POP JUMP JUMPDEST PUSH32 0x456D70747920636F6D6D69746D656E7400000000000000000000000000000000 PUSH0 DUP3 ADD MSTORE POP JUMP JUMPDEST PUSH0 PUSH2 0x1CC4 PUSH1 0x10 DUP4 PUSH2 0x1645 JUMP JUMPDEST SWAP2 POP PUSH2 0x1CCF DUP3 PUSH2 0x1C90 JUMP JUMPDEST PUSH1 0x20 DUP3 ADD SWAP1 POP SWAP2 SWAP1 POP JUMP JUMPDEST PUSH0 PUSH1 0x20 DUP3 ADD SWAP1 POP DUP2 DUP2 SUB PUSH0 DUP4 ADD MSTORE PUSH2 0x1CF1 DUP2 PUSH2 0x1CB8 JUMP JUMPDEST SWAP1 POP SWAP2 SWAP1 POP JUMP JUMPDEST PUSH32 0x496E76616C6964206E6F6E636500000000000000000000000000000000000000 PUSH0 DUP3 ADD MSTORE POP JUMP JUMPDEST PUSH0 PUSH2 0x1D2C PUSH1 0xD DUP4 PUSH2 0x1645 JUMP JUMPDEST SWAP2 POP PUSH2 0x1D37 DUP3 PUSH2 0x1CF8 JUMP JUMPDEST PUSH1 0x20 DUP3 ADD SWAP1 POP SWAP2 SWAP1 POP JUMP JUMPDEST PUSH0 PUSH1 0x20 DUP3 ADD SWAP1 POP DUP2 DUP2 SUB PUSH0 DUP4 ADD MSTORE PUSH2 0x1D59 DUP2 PUSH2 0x1D20 JUMP JUMPDEST SWAP1 POP SWAP2 SWAP1 POP JUMP JUMPDEST PUSH32 0x496E76616C6964207369676E6174757265000000000000000000000000000000 PUSH0 DUP3 ADD MSTORE POP JUMP JUMPDEST PUSH0 PUSH2 0x1D94 PUSH1 0x11 DUP4 PUSH2 0x1645 JUMP JUMPDEST SWAP2 POP PUSH2 0x1D9F DUP3 PUSH2 0x1D60 JUMP JUMPDEST PUSH1 0x20 DUP3 ADD SWAP1 POP SWAP2 SWAP1 POP JUMP JUMPDEST PUSH0 PUSH1 0x20 DUP3 ADD SWAP1 POP DUP2 DUP2 SUB PUSH0 DUP4 ADD MSTORE PUSH2 0x1DC1 DUP2 PUSH2 0x1D88 JUMP JUMPDEST SWAP1 POP SWAP2 SWAP1 POP JUMP JUMPDEST PUSH32 0x4E487B7100000000000000000000000000000000000000000000000000000000 PUSH0 MSTORE PUSH1 0x11 PUSH1 0x4 MSTORE PUSH1 0x24 PUSH0 REVERT JUMPDEST PUSH0 PUSH2 0x1DFF DUP3 PUSH2 0x171F JUMP JUMPDEST SWAP2 POP PUSH2 0x1E0A DUP4 PUSH2 0x171F JUMP JUMPDEST SWAP3 POP DUP3 DUP3 ADD SWAP1 POP DUP1 DUP3 GT ISZERO PUSH2 0x1E22 JUMPI PUSH2 0x1E21 PUSH2 0x1DC8 JUMP JUMPDEST JUMPDEST SWAP3 SWAP2 POP POP JUMP JUMPDEST PUSH0 PUSH2 0x100 DUP3 ADD SWAP1 POP PUSH2 0x1E3C PUSH0 DUP4 ADD DUP12 PUSH2 0x17D5 JUMP JUMPDEST PUSH2 0x1E49 PUSH1 0x20 DUP4 ADD DUP11 PUSH2 0x17D5 JUMP JUMPDEST PUSH2 0x1E56 PUSH1 0x40 DUP4 ADD DUP10 PUSH2 0x17FD JUMP JUMPDEST PUSH2 0x1E63 PUSH1 0x60 DUP4 ADD DUP9 PUSH2 0x17D5 JUMP JUMPDEST PUSH2 0x1E70 PUSH1 0x80 DUP4 ADD DUP8 PUSH2 0x1980 JUMP JUMPDEST PUSH2 0x1E7D PUSH1 0xA0 DUP4 ADD DUP7 PUSH2 0x1980 JUMP JUMPDEST PUSH2 0x1E8A PUSH1 0xC0 DUP4 ADD DUP6 PUSH2 0x17FD JUMP JUMPDEST PUSH2 0x1E97 PUSH1 0xE0 DUP4 ADD DUP5 PUSH2 0x1980 JUMP JUMPDEST SWAP10 SWAP9 POP POP POP POP POP POP POP POP POP JUMP JUMPDEST PUSH32 0x5265656E7472616E742063616C6C000000000000000000000000000000000000 PUSH0 DUP3 ADD MSTORE POP JUMP JUMPDEST PUSH0 PUSH2 0x1ED8 PUSH1 0xE DUP4 PUSH2 0x1645 JUMP JUMPDEST SWAP2 POP PUSH2 0x1EE3 DUP3 PUSH2 0x1EA4 JUMP JUMPDEST PUSH1 0x20 DUP3 ADD SWAP1 POP SWAP2 SWAP1 POP JUMP JUMPDEST PUSH0 PUSH1 0x20 DUP3 ADD SWAP1 POP DUP2 DUP2 SUB PUSH0 DUP4 ADD MSTORE PUSH2 0x1F05 DUP2 PUSH2 0x1ECC JUMP JUMPDEST SWAP1 POP SWAP2 SWAP1 POP JUMP JUMPDEST PUSH32 0x4E6F7468696E6720746F20776974686472617700000000000000000000000000 PUSH0 DUP3 ADD MSTORE POP JUMP JUMPDEST PUSH0 PUSH2 0x1F40 PUSH1 0x13 DUP4 PUSH2 0x1645 JUMP JUMPDEST SWAP2 POP PUSH2 0x1F4B DUP3 PUSH2 0x1F0C JUMP JUMPDEST PUSH1 0x20 DUP3 ADD SWAP1 POP SWAP2 SWAP1 POP JUMP JUMPDEST PUSH0 PUSH1 0x20 DUP3 ADD SWAP1 POP DUP2 DUP2 SUB PUSH0 DUP4 ADD MSTORE PUSH2 0x1F6D DUP2 PUSH2 0x1F34 JUMP JUMPDEST SWAP1 POP SWAP2 SWAP1 POP JUMP JUMPDEST PUSH0 DUP2 SWAP1 POP SWAP3 SWAP2 POP POP JUMP JUMPDEST POP JUMP JUMPDEST PUSH0 PUSH2 0x1F8C PUSH0 DUP4 PUSH2 0x1F74 JUMP JUMPDEST SWAP2 POP PUSH2 0x1F97 DUP3 PUSH2 0x1F7E JUMP JUMPDEST PUSH0 DUP3 ADD SWAP1 POP SWAP2 SWAP1 POP JUMP JUMPDEST PUSH0 PUSH2 0x1FAB DUP3 PUSH2 0x1F81 JUMP JUMPDEST SWAP2 POP DUP2 SWAP1 POP SWAP2 SWAP1 POP JUMP JUMPDEST PUSH32 0x455448207472616E73666572206661696C656400000000000000000000000000 PUSH0 DUP3 ADD MSTORE POP JUMP JUMPDEST PUSH0 PUSH2 0x1FE9 PUSH1 0x13 DUP4 PUSH2 0x1645 JUMP JUMPDEST SWAP2 POP PUSH2 0x1FF4 DUP3 PUSH2 0x1FB5 JUMP JUMPDEST PUSH1 0x20 DUP3 ADD SWAP1 POP SWAP2 SWAP1 POP JUMP JUMPDEST PUSH0 PUSH1 0x20 DUP3 ADD SWAP1 POP DUP2 DUP2 SUB PUSH0 DUP4 ADD MSTORE PUSH2 0x2016 DUP2 PUSH2 0x1FDD JUMP JUMPDEST SWAP1 POP SWAP2 SWAP1 POP JUMP JUMPDEST PUSH32 0x52657665616C207068617365206E6F7420656E64656400000000000000000000 PUSH0 DUP3 ADD MSTORE POP JUMP JUMPDEST PUSH0 PUSH2 0x2051 PUSH1 0x16 DUP4 PUSH2 0x1645 JUMP JUMPDEST SWAP2 POP PUSH2 0x205C DUP3 PUSH2 0x201D JUMP JUMPDEST PUSH1 0x20 DUP3 ADD SWAP1 POP SWAP2 SWAP1 POP JUMP JUMPDEST PUSH0 PUSH1 0x20 DUP3 ADD SWAP1 POP DUP2 DUP2 SUB PUSH0 DUP4 ADD MSTORE PUSH2 0x207E DUP2 PUSH2 0x2045 JUMP JUMPDEST SWAP1 POP SWAP2 SWAP1 POP JUMP JUMPDEST PUSH32 0x416C72656164792066696E616C697A6564000000000000000000000000000000 PUSH0 DUP3 ADD MSTORE POP JUMP JUMPDEST PUSH0 PUSH2 0x20B9 PUSH1 0x11 DUP4 PUSH2 0x1645 JUMP JUMPDEST SWAP2 POP PUSH2 0x20C4 DUP3 PUSH2 0x2085 JUMP JUMPDEST PUSH1 0x20 DUP3 ADD SWAP1 POP SWAP2 SWAP1 POP JUMP JUMPDEST PUSH0 PUSH1 0x20 DUP3 ADD SWAP1 POP DUP2 DUP2 SUB PUSH0 DUP4 ADD MSTORE PUSH2 0x20E6 DUP2 PUSH2 0x20AD JUMP JUMPDEST SWAP1 POP SWAP2 SWAP1 POP JUMP JUMPDEST PUSH32 0x52657665616C207068617365206E6F7420737461727465640000000000000000 PUSH0 DUP3 ADD MSTORE POP JUMP JUMPDEST PUSH0 PUSH2 0x2121 PUSH1 0x18 DUP4 PUSH2 0x1645 JUMP JUMPDEST SWAP2 POP PUSH2 0x212C DUP3 PUSH2 0x20ED JUMP JUMPDEST PUSH1 0x20 DUP3 ADD SWAP1 POP SWAP2 SWAP1 POP JUMP JUMPDEST PUSH0 PUSH1 0x20 DUP3 ADD SWAP1 POP DUP2 DUP2 SUB PUSH0 DUP4 ADD MSTORE PUSH2 0x214E DUP2 PUSH2 0x2115 JUMP JUMPDEST SWAP1 POP SWAP2 SWAP1 POP JUMP JUMPDEST PUSH32 0x52657665616C20706861736520656E6465640000000000000000000000000000 PUSH0 DUP3 ADD MSTORE POP JUMP JUMPDEST PUSH0 PUSH2 0x2189 PUSH1 0x12 DUP4 PUSH2 0x1645 JUMP JUMPDEST SWAP2 POP PUSH2 0x2194 DUP3 PUSH2 0x2155 JUMP JUMPDEST PUSH1 0x20 DUP3 ADD SWAP1 POP SWAP2 SWAP1 POP JUMP JUMPDEST PUSH0 PUSH1 0x20 DUP3 ADD SWAP1 POP DUP2 DUP2 SUB PUSH0 DUP4 ADD MSTORE PUSH2 0x21B6 DUP2 PUSH2 0x217D JUMP JUMPDEST SWAP1 POP SWAP2 SWAP1 POP JUMP JUMPDEST PUSH32 0x57726F6E672045544820616D6F756E7400000000000000000000000000000000 PUSH0 DUP3 ADD MSTORE POP JUMP JUMPDEST PUSH0 PUSH2 0x21F1 PUSH1 0x10 DUP4 PUSH2 0x1645 JUMP JUMPDEST SWAP2 POP PUSH2 0x21FC DUP3 PUSH2 0x21BD JUMP JUMPDEST PUSH1 0x20 DUP3 ADD SWAP1 POP SWAP2 SWAP1 POP JUMP JUMPDEST PUSH0 PUSH1 0x20 DUP3 ADD SWAP1 POP DUP2 DUP2 SUB PUSH0 DUP4 ADD MSTORE PUSH2 0x221E DUP2 PUSH2 0x21E5 JUMP JUMPDEST SWAP1 POP SWAP2 SWAP1 POP JUMP JUMPDEST PUSH32 0x4E6F20636F6D6D69746D656E7400000000000000000000000000000000000000 PUSH0 DUP3 ADD MSTORE POP JUMP JUMPDEST PUSH0 PUSH2 0x2259 PUSH1 0xD DUP4 PUSH2 0x1645 JUMP JUMPDEST SWAP2 POP PUSH2 0x2264 DUP3 PUSH2 0x2225 JUMP JUMPDEST PUSH1 0x20 DUP3 ADD SWAP1 POP SWAP2 SWAP1 POP JUMP JUMPDEST PUSH0 PUSH1 0x20 DUP3 ADD SWAP1 POP DUP2 DUP2 SUB PUSH0 DUP4 ADD MSTORE PUSH2 0x2286 DUP2 PUSH2 0x224D JUMP JUMPDEST SWAP1 POP SWAP2 SWAP1 POP JUMP JUMPDEST PUSH32 0x416C72656164792072657665616C656400000000000000000000000000000000 PUSH0 DUP3 ADD MSTORE POP JUMP JUMPDEST PUSH0 PUSH2 0x22C1 PUSH1 0x10 DUP4 PUSH2 0x1645 JUMP JUMPDEST SWAP2 POP PUSH2 0x22CC DUP3 PUSH2 0x228D JUMP JUMPDEST PUSH1 0x20 DUP3 ADD SWAP1 POP SWAP2 SWAP1 POP JUMP JUMPDEST PUSH0 PUSH1 0x20 DUP3 ADD SWAP1 POP DUP2 DUP2 SUB PUSH0 DUP4 ADD MSTORE PUSH2 0x22EE DUP2 PUSH2 0x22B5 JUMP JUMPDEST SWAP1 POP SWAP2 SWAP1 POP JUMP JUMPDEST PUSH32 0x436F6D6D69746D656E74206D69736D6174636800000000000000000000000000 PUSH0 DUP3 ADD MSTORE POP JUMP JUMPDEST PUSH0 PUSH2 0x2329 PUSH1 0x13 DUP4 PUSH2 0x1645 JUMP JUMPDEST SWAP2 POP PUSH2 0x2334 DUP3 PUSH2 0x22F5 JUMP JUMPDEST PUSH1 0x20 DUP3 ADD SWAP1 POP SWAP2 SWAP1 POP JUMP JUMPDEST PUSH0 PUSH1 0x20 DUP3 ADD SWAP1 POP DUP2 DUP2 SUB PUSH0 DUP4 ADD MSTORE PUSH2 0x2356 DUP2 PUSH2 0x231D JUMP JUMPDEST SWAP1 POP SWAP2 SWAP1 POP JUMP JUMPDEST PUSH0 PUSH1 0x40 DUP3 ADD SWAP1 POP PUSH2 0x2370 PUSH0 DUP4 ADD DUP6 PUSH2 0x1980 JUMP JUMPDEST PUSH2 0x237D PUSH1 0x20 DUP4 ADD DUP5 PUSH2 0x1A9C JUMP JUMPDEST SWAP4 SWAP3 POP POP POP JUMP JUMPDEST PUSH0 DUP2 SWAP1 POP SWAP3 SWAP2 POP POP JUMP JUMPDEST PUSH32 0x19457468657265756D205369676E6564204D6573736167653A0A333200000000 PUSH0 DUP3 ADD MSTORE POP JUMP JUMPDEST PUSH0 PUSH2 0x23C2 PUSH1 0x1C DUP4 PUSH2 0x2384 JUMP JUMPDEST SWAP2 POP PUSH2 0x23CD DUP3 PUSH2 0x238E JUMP JUMPDEST PUSH1 0x1C DUP3 ADD SWAP1 POP SWAP2 SWAP1 POP JUMP JUMPDEST PUSH0 DUP2 SWAP1 POP SWAP2 SWAP1 POP JUMP JUMPDEST PUSH2 0x23F2 PUSH2 0x23ED DUP3 PUSH2 0x1752 JUMP JUMPDEST PUSH2 0x23D8 JUMP JUMPDEST DUP3 MSTORE POP POP JUMP JUMPDEST PUSH0 PUSH2 0x2402 DUP3 PUSH2 0x23B6 JUMP JUMPDEST SWAP2 POP PUSH2 0x240E DUP3 DUP5 PUSH2 0x23E1 JUMP JUMPDEST PUSH1 0x20 DUP3 ADD SWAP2 POP DUP2 SWAP1 POP SWAP3 SWAP2 POP POP JUMP JUMPDEST PUSH32 0x5369676E6174757265206D757374206265203635206279746573000000000000 PUSH0 DUP3 ADD MSTORE POP JUMP JUMPDEST PUSH0 PUSH2 0x2451 PUSH1 0x1A DUP4 PUSH2 0x1645 JUMP JUMPDEST SWAP2 POP PUSH2 0x245C DUP3 PUSH2 0x241D JUMP JUMPDEST PUSH1 0x20 DUP3 ADD SWAP1 POP SWAP2 SWAP1 POP JUMP JUMPDEST PUSH0 PUSH1 0x20 DUP3 ADD SWAP1 POP DUP2 DUP2 SUB PUSH0 DUP4 ADD MSTORE PUSH2 0x247E DUP2 PUSH2 0x2445 JUMP JUMPDEST SWAP1 POP SWAP2 SWAP1 POP JUMP JUMPDEST PUSH0 PUSH1 0xFF DUP3 AND SWAP1 POP SWAP2 SWAP1 POP JUMP JUMPDEST PUSH0 PUSH2 0x249B DUP3 PUSH2 0x2485 JUMP JUMPDEST SWAP2 POP PUSH2 0x24A6 DUP4 PUSH2 0x2485 JUMP JUMPDEST SWAP3 POP DUP3 DUP3 ADD SWAP1 POP PUSH1 0xFF DUP2 GT ISZERO PUSH2 0x24BF JUMPI PUSH2 0x24BE PUSH2 0x1DC8 JUMP JUMPDEST JUMPDEST SWAP3 SWAP2 POP POP JUMP JUMPDEST PUSH32 0x496E76616C6964207369676E6174757265207600000000000000000000000000 PUSH0 DUP3 ADD MSTORE POP JUMP JUMPDEST PUSH0 PUSH2 0x24F9 PUSH1 0x13 DUP4 PUSH2 0x1645 JUMP JUMPDEST SWAP2 POP PUSH2 0x2504 DUP3 PUSH2 0x24C5 JUMP JUMPDEST PUSH1 0x20 DUP3 ADD SWAP1 POP SWAP2 SWAP1 POP JUMP JUMPDEST PUSH0 PUSH1 0x20 DUP3 ADD SWAP1 POP DUP2 DUP2 SUB PUSH0 DUP4 ADD MSTORE PUSH2 0x2526 DUP2 PUSH2 0x24ED JUMP JUMPDEST SWAP1 POP SWAP2 SWAP1 POP JUMP JUMPDEST PUSH32 0x496E76616C6964207369676E6174757265207300000000000000000000000000 PUSH0 DUP3 ADD MSTORE POP JUMP JUMPDEST PUSH0 PUSH2 0x2561 PUSH1 0x13 DUP4 PUSH2 0x1645 JUMP JUMPDEST SWAP2 POP PUSH2 0x256C DUP3 PUSH2 0x252D JUMP JUMPDEST PUSH1 0x20 DUP3 ADD SWAP1 POP SWAP2 SWAP1 POP JUMP JUMPDEST PUSH0 PUSH1 0x20 DUP3 ADD SWAP1 POP DUP2 DUP2 SUB PUSH0 DUP4 ADD MSTORE PUSH2 0x258E DUP2 PUSH2 0x2555 JUMP JUMPDEST SWAP1 POP SWAP2 SWAP1 POP JUMP JUMPDEST PUSH2 0x259E DUP2 PUSH2 0x2485 JUMP JUMPDEST DUP3 MSTORE POP POP JUMP JUMPDEST PUSH0 PUSH1 0x80 DUP3 ADD SWAP1 POP PUSH2 0x25B7 PUSH0 DUP4 ADD DUP8 PUSH2 0x17D5 JUMP JUMPDEST PUSH2 0x25C4 PUSH1 0x20 DUP4 ADD DUP7 PUSH2 0x2595 JUMP JUMPDEST PUSH2 0x25D1 PUSH1 0x40 DUP4 ADD DUP6 PUSH2 0x17D5 JUMP JUMPDEST PUSH2 0x25DE PUSH1 0x60 DUP4 ADD DUP5 PUSH2 0x17D5 JUMP JUMPDEST SWAP6 SWAP5 POP POP POP POP POP JUMP JUMPDEST PUSH32 0x5369676E6174757265207265636F76657279206661696C656400000000000000 PUSH0 DUP3 ADD MSTORE POP JUMP JUMPDEST PUSH0 PUSH2 0x261B PUSH1 0x19 DUP4 PUSH2 0x1645 JUMP JUMPDEST SWAP2 POP PUSH2 0x2626 DUP3 PUSH2 0x25E7 JUMP JUMPDEST PUSH1 0x20 DUP3 ADD SWAP1 POP SWAP2 SWAP1 POP JUMP JUMPDEST PUSH0 PUSH1 0x20 DUP3 ADD SWAP1 POP DUP2 DUP2 SUB PUSH0 DUP4 ADD MSTORE PUSH2 0x2648 DUP2 PUSH2 0x260F JUMP JUMPDEST SWAP1 POP SWAP2 SWAP1 POP JUMP INVALID LOG2 PUSH5 0x6970667358 0x22 SLT KECCAK256 0xC8 0xC5 PUSH18 0xC15D1B79D5B866C819D02B9974B71BDE498D MLOAD ORIGIN PUSH22 0x469A1B9CF1404E5364736F6C63430008220033000000 "
				},
				"gasEstimates": {
					"creation": {
						"codeDepositCost": "1972200",
						"executionCost": "infinite",
						"totalCost": "infinite"
					},
					"external": {
						"COMMIT_AUTHORIZATION_TYPEHASH()": "369",
						"auctionId()": "infinite",
						"commitBid(address,bytes32,uint256,uint256,bytes)": "infinite",
						"commitEnd()": "infinite",
						"commitments(address)": "7344",
						"credits(address)": "2912",
						"finalize()": "infinite",
						"finalized()": "2577",
						"getCommitAuthorizationDigest(address,bytes32,uint256,uint256)": "infinite",
						"getCommitAuthorizationHash(address,bytes32,uint256,uint256)": "infinite",
						"highestBid()": "2447",
						"highestBidder()": "2552",
						"makeCommitment(address,uint256,bytes32)": "infinite",
						"nonces(address)": "2825",
						"phase()": "infinite",
						"revealBid(uint256,bytes32)": "infinite",
						"revealEnd()": "infinite",
						"seller()": "infinite",
						"withdraw()": "infinite"
					},
					"internal": {
						"_recoverSigner(bytes32,bytes calldata)": "infinite"
					}
				},
				"methodIdentifiers": {
					"COMMIT_AUTHORIZATION_TYPEHASH()": "e8ba4047",
					"auctionId()": "10782f8f",
					"commitBid(address,bytes32,uint256,uint256,bytes)": "11928dbe",
					"commitEnd()": "3eee4e27",
					"commitments(address)": "e8fcf723",
					"credits(address)": "fe5ff468",
					"finalize()": "4bb278f3",
					"finalized()": "b3f05b97",
					"getCommitAuthorizationDigest(address,bytes32,uint256,uint256)": "fb667b48",
					"getCommitAuthorizationHash(address,bytes32,uint256,uint256)": "2ec4620f",
					"highestBid()": "d57bde79",
					"highestBidder()": "91f90157",
					"makeCommitment(address,uint256,bytes32)": "023f5bdf",
					"nonces(address)": "7ecebe00",
					"phase()": "b1c9fe6e",
					"revealBid(uint256,bytes32)": "62c5424a",
					"revealEnd()": "a6e66477",
					"seller()": "08551a53",
					"withdraw()": "3ccfd60b"
				}
			},
			"storageLayout": {
				"storage": [
					{
						"astId": 12,
						"contract": "main.sol:SignedSealedBidAuction",
						"label": "highestBidder",
						"offset": 0,
						"slot": "0",
						"type": "t_address"
					},
					{
						"astId": 14,
						"contract": "main.sol:SignedSealedBidAuction",
						"label": "highestBid",
						"offset": 0,
						"slot": "1",
						"type": "t_uint256"
					},
					{
						"astId": 16,
						"contract": "main.sol:SignedSealedBidAuction",
						"label": "finalized",
						"offset": 0,
						"slot": "2",
						"type": "t_bool"
					},
					{
						"astId": 18,
						"contract": "main.sol:SignedSealedBidAuction",
						"label": "withdrawalLocked",
						"offset": 1,
						"slot": "2",
						"type": "t_bool"
					},
					{
						"astId": 30,
						"contract": "main.sol:SignedSealedBidAuction",
						"label": "commitments",
						"offset": 0,
						"slot": "3",
						"type": "t_mapping(t_address,t_struct(StoredCommitment)25_storage)"
					},
					{
						"astId": 34,
						"contract": "main.sol:SignedSealedBidAuction",
						"label": "nonces",
						"offset": 0,
						"slot": "4",
						"type": "t_mapping(t_address,t_uint256)"
					},
					{
						"astId": 38,
						"contract": "main.sol:SignedSealedBidAuction",
						"label": "credits",
						"offset": 0,
						"slot": "5",
						"type": "t_mapping(t_address,t_uint256)"
					}
				],
				"types": {
					"t_address": {
						"encoding": "inplace",
						"label": "address",
						"numberOfBytes": "20"
					},
					"t_bool": {
						"encoding": "inplace",
						"label": "bool",
						"numberOfBytes": "1"
					},
					"t_bytes32": {
						"encoding": "inplace",
						"label": "bytes32",
						"numberOfBytes": "32"
					},
					"t_mapping(t_address,t_struct(StoredCommitment)25_storage)": {
						"encoding": "mapping",
						"key": "t_address",
						"label": "mapping(address => struct SignedSealedBidAuction.StoredCommitment)",
						"numberOfBytes": "32",
						"value": "t_struct(StoredCommitment)25_storage"
					},
					"t_mapping(t_address,t_uint256)": {
						"encoding": "mapping",
						"key": "t_address",
						"label": "mapping(address => uint256)",
						"numberOfBytes": "32",
						"value": "t_uint256"
					},
					"t_struct(StoredCommitment)25_storage": {
						"encoding": "inplace",
						"label": "struct SignedSealedBidAuction.StoredCommitment",
						"members": [
							{
								"astId": 20,
								"contract": "main.sol:SignedSealedBidAuction",
								"label": "value",
								"offset": 0,
								"slot": "0",
								"type": "t_bytes32"
							},
							{
								"astId": 22,
								"contract": "main.sol:SignedSealedBidAuction",
								"label": "nonce",
								"offset": 0,
								"slot": "1",
								"type": "t_uint256"
							},
							{
								"astId": 24,
								"contract": "main.sol:SignedSealedBidAuction",
								"label": "revealed",
								"offset": 0,
								"slot": "2",
								"type": "t_bool"
							}
						],
						"numberOfBytes": "96"
					},
					"t_uint256": {
						"encoding": "inplace",
						"label": "uint256",
						"numberOfBytes": "32"
					}
				}
			},
			"userdoc": {
				"kind": "user",
				"methods": {
					"commitBid(address,bytes32,uint256,uint256,bytes)": {
						"notice": "Submits a signed commitment."
					},
					"finalize()": {
						"notice": "Finishes the auction after the reveal period."
					},
					"getCommitAuthorizationDigest(address,bytes32,uint256,uint256)": {
						"notice": "Returns the prefixed digest used by ecrecover."
					},
					"getCommitAuthorizationHash(address,bytes32,uint256,uint256)": {
						"notice": "Returns the value the bidder signs off-chain."
					},
					"makeCommitment(address,uint256,bytes32)": {
						"notice": "Creates the commitment for a private bid."
					},
					"phase()": {
						"notice": "Returns the current auction phase."
					},
					"revealBid(uint256,bytes32)": {
						"notice": "Reveals the bid and deposits exactly bidAmount wei."
					},
					"withdraw()": {
						"notice": "Withdraws refunds or seller proceeds."
					}
				},
				"notice": "Educational example:         1. A bidder creates a private commitment.         2. The bidder signs authorization for that commitment.         3. Any relayer can submit the signed commitment.         4. The bidder reveals the bid and deposits ETH.         5. Losing bidders can withdraw their ETH.",
				"version": 1
			}
		}
	}
}